:100000000C942A000C9447000C9447000C94470071
:100010000C9447000C9447000C9447000C94470044
:100020000C9447000C9447000C9447000C94470034
:100030000C94A6010C947C020C94A3020C9455021F
:100040000C9447000C9447000C9447000C94470014
:100050000C94470011241FBECFE5D8E0DEBFCDBF12
:1000600010E0A0E6B0E0E8E9F5E002C005900D92EE
:10007000AC36B107D9F721E0ACE6B0E001C01D9283
:10008000A737B207E1F70E943C010C94CA020C9416
:10009000000080916000843081F00E94F100813086
:1000A00049F40E943F01813039F484E0809360007C
:1000B00081E0089580E0089580E00895CF93DF9374
:1000C000CDB7DEB7CF5FD1090FB6F894DEBF0FBE54
:1000D000CDBF80916000843039F5CE0101962FEFBD
:1000E000FC0111922A95E9F70E9421018530C1F4A3
:1000F00083E690E00E94060188B38F7E88BBCE0124
:1001000001960E94CD01682F70E0CE0101960E94F9
:100110008001813059F488B3806188BB81E009C0D7
:10012000813031F080E005C085E003C080E001C08F
:1001300081E0C150DF4F0FB6F894DEBF0FBECDBFD8
:10014000DF91CF9108950E944900813039F48FB733
:1001500080688FBF0E945E008130E1F380E00895E7
:10016000CF93DF93C0916D00D0E00E945302C2593B
:10017000DF4F888390916D00E92FF0E0E259FF4F47
:1001800080818D3071F40E940C02E0916D00F0E0EE
:10019000E259FF4F108210926D0081E080936C0055
:1001A0001DC0883051F4992341F00E940C028091C7
:1001B0006D00815080936D0011C0883079F090916E
:1001C0006D01913021F48AE20E940C0202C00E946B
:1001D0000C0280916D008F5F80936D00DF91CF9155
:1001E000089580916100833081F00E94F601813092
:1001F00011F0873049F480EB90E00E943E0283E0EA
:100200008093610081E0089580E00895CF93DF93AB
:10021000009781F020916100223079F0EC010E947A
:10022000CD01682F70E0CE010E941702813021F0CD
:1002300020E003C024E001C021E0822FDF91CF91B4
:100240000895BC01892BA1F080916100823099F062
:1002500080916C00813071F410926C008EE690E019
:100260000E94E5018EE690E00E94D90185E00895A4
:1002700084E0089581E008950E94A300FFCF80915B
:100280006200873031F187B3806B87BB87B38F7B88
:1002900087BB88B3806188BB8DB180618DB98DB11A
:1002A0008F7D8DB98DB1877F8DB98DB18B7F8DB9E4
:1002B0008DB18E7F8DB98DB18D7F8DB98DB18160FE
:1002C0008DB98DB180648DB987E08093620081E043
:1002D000089588E00895CF93DF931F92CDB7DEB7DE
:1002E00090916200973039F48FB9779BFECF8FB130
:1002F000898381E001C086E00F90DF91CF9108955E
:10030000EF92FF920F931F93CF93209162002730BB
:10031000A1F48B017C01C0E009C0F701E20FF31FDB
:1003200080810E946B01813051F4CF5F2C2F30E02F
:100330002017310790F381E003C086E001C080E020
:10034000CF911F910F91FF90EF9008951F920F9200
:100350000FB60F9211242F933F934F935F936F9398
:100360007F938F939F93AF93BF93EF93FF93E0910E
:100370006E01F0916F010995FF91EF91BF91AF91DF
:100380009F918F917F916F915F914F913F912F91AD
:100390000F900FBE0F901F901895AC0180E001C028
:1003A0008F5FFA01E80FF11D20812111F9CF8F5FD6
:1003B0000895AC0190E002C09F5F1082FA01E90F3E
:1003C000F11D20812111F8CF0895DC0190E005C0D6
:1003D000FB01E20FF31F40839F5F292F30E0FD01F7
:1003E000E20FF31F40814111F3CF08958091700116
:1003F000813081F010BC87E689B982E08BB988E151
:100400008AB980E880BD80B5866880BD81E0809330
:100410007001089587E0089590917001992329F063
:100420005D9BFECF8CB981E0089586E00895EF9240
:10043000FF920F931F93CF93DF932091700122239C
:1004400099F08B017C01C0E0D0E009C0F701EC0F0E
:10045000FD1F80810E940C02813041F42196C0175B
:10046000D107A0F381E003C086E001C080E0DF9106
:10047000CF911F910F91FF90EF9008959C01909163
:100480007001992361F02115310559F08AB1806816
:100490008AB9309374012093730181E0089586E056
:1004A000089585E008958CB108951F920F920FB6BC
:1004B0000F9211242F933F934F935F936F937F93EA
:1004C0008F939F93AF93BF93EF93FF93E091750149
:1004D000F09176010995FF91EF91BF91AF919F91B6
:1004E0008F917F916F915F914F913F912F910F90DD
:1004F0000FBE0F901F9018951F920F920FB60F927C
:1005000011242F933F934F935F936F937F938F9318
:100510009F93AF93BF93EF93FF93E0917301F0919B
:1005200074010995FF91EF91BF91AF919F918F91C8
:100530007F916F915F914F913F912F910F900FBEDF
:100540000F901F9018951F920F920FB60F921124C3
:100550002F933F934F935F936F937F938F939F93CB
:10056000AF93BF93EF93FF93E0917101F09172010C
:100570000995FF91EF91BF91AF919F918F917F91DD
:100580006F915F914F913F912F910F900FBE0F9000
:080590001F901895F894FFCFAD
:0C05980005020653656E64696E670A0078
:00000001FF
