:100000000C942A000C9447000C9447000C94470071
:100010000C9447000C9447000C9447000C94470044
:100020000C9447000C9447000C9447000C94470034
:100030000C9489010C9438020C945F020C94110208
:100040000C9447000C9447000C9447000C94470014
:100050000C94470011241FBECFE5D8E0DEBFCDBF12
:1000600010E0A0E6B0E0E0E1F5E002C005900D92FE
:10007000A436B107D9F721E0A4E6B0E001C01D9293
:10008000AF36B207E1F70E941D010C9486020C9472
:10009000000080916000843081F00E94ED0081308A
:1000A00049F40E942001813039F484E0809360009B
:1000B00081E0089580E0089580E00895CF93DF9374
:1000C000CDB7DEB7CF5FD1090FB6F894DEBF0FBE54
:1000D000CDBF80916000843019F5CE0101962FEFDD
:1000E000FC0111922A95E9F70E9402018530A1F4E2
:1000F00088B38F7E88BBCE0101960E94B001682F25
:1001000070E0CE0101960E946301813059F488B3FA
:10011000806188BB81E009C0813031F080E005C09A
:1001200085E003C080E001C081E0C150DF4F0FB621
:10013000F894DEBF0FBECDBFDF91CF9108950E942E
:100140004900813039F48FB780688FBF0E945E000C
:100150008130E1F380E00895CF93DF93C091650093
:10016000D0E00E940F02CA59DF4F8883909165004A
:10017000E92FF0E0EA59FF4F80818D3071F40E9441
:10018000EF01E0916500F0E0EA59FF4F1082109214
:10019000650081E0809364001DC0883051F499238C
:1001A00041F00E94EF0180916500815080936500CD
:1001B00011C0883079F090916501913021F48AE284
:1001C0000E94EF0102C00E94EF01809165008F5FE5
:1001D00080936500DF91CF91089580916100833015
:1001E00081F00E94D901813011F0873049F48CEA06
:1001F00090E00E94FA0183E08093610081E008951D
:1002000080E00895BC01892BA1F0809161008230CB
:1002100099F080916400813071F41092640086E658
:1002200090E00E94C80186E690E00E94BC0185E053
:10023000089584E0089581E008950E949F00FFCF13
:1002400080916200873041F187B3806B87BB87B3B1
:100250008F7B87BB88B3806188BB8DB180618DB98E
:100260008DB18F7D8DB98DB1877F8DB98DB18B7F2C
:100270008DB98EB181608EB98DB18E7F8DB98DB102
:100280008D7F8DB98DB18DB98DB180648DB987E0C9
:100290008093620081E0089588E00895CF93DF9312
:1002A0001F92CDB7DEB790916200973039F48FB9C5
:1002B000779BFECF8FB1898381E001C086E00F90EC
:1002C000DF91CF910895EF92FF920F931F93CF93F9
:1002D000209162002730A1F48B017C01C0E009C0AD
:1002E000F701E20FF31F80810E944E01813051F42B
:1002F000CF5F2C2F30E02017310790F381E003C04F
:1003000086E001C080E0CF911F910F91FF90EF90A8
:1003100008951F920F920FB60F9211242F933F93BF
:100320004F935F936F937F938F939F93AF93BF93FD
:10033000EF93FF93E0916601F09167010995FF91BA
:10034000EF91BF91AF919F918F917F916F915F914D
:100350004F913F912F910F900FBE0F901F901895C6
:10036000AC0180E001C08F5FFA01E80FF11D208130
:100370002111F9CF8F5F0895AC0190E002C09F5F1B
:100380001082FA01E90FF11D20812111F8CF0895A3
:10039000DC0190E005C0FB01E20FF31F40839F5F8B
:1003A000292F30E0FD01E20FF31F40814111F3CF0F
:1003B000089580916801813081F010BC8CE089B98A
:1003C00082E08BB988E18AB980E880BD80B5866813
:1003D00080BD81E080936801089587E00895909141
:1003E0006801992329F05D9BFECF8CB981E00895C7
:1003F00086E008959C0190916801992361F0211590
:10040000310559F08AB180688AB930936C01209324
:100410006B0181E0089586E0089585E008958CB130
:1004200008951F920F920FB60F9211242F933F93AE
:100430004F935F936F937F938F939F93AF93BF93EC
:10044000EF93FF93E0916D01F0916E010995FF919B
:10045000EF91BF91AF919F918F917F916F915F913C
:100460004F913F912F910F900FBE0F901F901895B5
:100470001F920F920FB60F9211242F933F934F9319
:100480005F936F937F938F939F93AF93BF93EF93FC
:10049000FF93E0916B01F0916C010995FF91EF9151
:1004A000BF91AF919F918F917F916F915F914F918C
:1004B0003F912F910F900FBE0F901F9018951F9294
:1004C0000F920FB60F9211242F933F934F935F9388
:1004D0006F937F938F939F93AF93BF93EF93FF930C
:1004E000E0916901F0916A010995FF91EF91BF9147
:1004F000AF919F918F917F916F915F914F913F91BC
:100500002F910F900FBE0F901F901895F894FFCF6A
:0405100005020600DA
:00000001FF
