S014000052656365766965725F4D43552E7372656397
S11300000C942A000C9447000C9447000C9447006D
S11300100C9447000C9447000C9447000C94470040
S11300200C9447000C9447000C9447000C94470030
S11300300C946D010C9426020C944D020C94FF0157
S11300400C9447000C9447000C9447000C94470010
S11300500C94470011241FBECFE5D8E0DEBFCDBF0E
S113006010E0A0E6B0E0ECEEF4E002C005900D92E2
S1130070A636B107D9F721E0A6E6B0E001C01D928B
S1130080A137B207E1F70E940F010C9474020C949B
S1130090000080916000843081F00E94DF00813094
S11300A049F40E941201813039F484E080936000A5
S11300B081E0089580E0089580E00895CF93DF9370
S11300C0CDB7DEB7CF5FD1090FB6F894DEBF0FBE50
S11300D0CDBF809160008430B9F4CE0101962FEF3A
S11300E0FC0111922A95E9F76FEF70E00E9440013C
S11300F0813061F4CE0101960E94F40083E690E021
S11301000E94F40081E003C085E001C080E0C1509A
S1130110DF4F0FB6F894DEBF0FBECDBFDF91CF9196
S113012008950E944900813039F48FB780688FBFE9
S11301300E945E008130E1F380E00895CF93DF9365
S1130140C0916700D0E00E94FD01C859DF4F888349
S113015090916700E92FF0E0E859FF4F80818D30DE
S113016071F40E94B601E0916700F0E0E859FF4F96
S113017010821092670081E0809366001DC0883071
S113018051F4992341F00E94B60180916700815097
S11301908093670011C0883079F0909167019130A5
S11301A021F48AE20E94B60102C00E94B601809145
S11301B067008F5F80936700DF91CF9108958091EE
S11301C06100833081F00E94A001813011F08730FA
S11301D049F48EE990E00E94E80183E08093610095
S11301E081E0089580E00895CF93DF93009781F034
S11301F020916100223079F0EC010E949401682F73
S113020070E0CE010E94C101813021F020E003C0E2
S113021024E001C021E0822FDF91CF9108950E9454
S11302209100FFCF809162008730B9F087B380647A
S113023087BB87B38F7D87BB87B38F7E87BB87B32D
S11302408F7787BB8DB18F7E8DB98DB180648DB969
S113025087E08093620081E0089588E00895FC01BE
S113026090916200973041F4309741F0779BFECF34
S11302708FB1808381E0089586E0089585E0089534
S1130280CF92DF92EF92FF921F93CF93DF936C0193
S1130290909162009730B1F47B0110E00CC0E6014C
S11302A0C80FD91FCE010E942F01813069F49881B3
S11302B0992359F01F5F812F90E08E159F0578F3E5
S11302C081E003C086E001C080E0DF91CF911F91FF
S11302D0FF90EF90DF90CF9008951F920F920FB68A
S11302E00F9211242F933F934F935F936F937F93B8
S11302F08F939F93AF93BF93EF93FF93E091680124
S1130300F09169010995FF91EF91BF91AF919F9190
S11303108F917F916F915F914F913F912F910F90AA
S11303200FBE0F901F901895AC0180E001C08F5F45
S1130330FA01E80FF11D20812111F9CF8F5F089593
S113034080916A01813081F010BC8CE089B982E02F
S11303508BB988E18AB980E880BD80B5866880BDA4
S113036081E080936A01089587E0089590916A017D
S1130370992329F05D9BFECF8CB981E0089586E036
S11303800895EF92FF920F931F93CF93DF932091E1
S11303906A01222399F08B017C01C0E0D0E009C0FE
S11303A0F701EC0FFD1F80810E94B601813041F4FA
S11303B02196C017D107A0F381E003C086E001C0F5
S11303C080E0DF91CF911F910F91FF90EF900895FE
S11303D09C0190916A01992361F02115310559F02E
S11303E08AB180688AB930936E0120936D0181E0EF
S11303F0089586E0089585E008958CB108951F92CC
S11304000F920FB60F9211242F933F934F935F9344
S11304106F937F938F939F93AF93BF93EF93FF93C8
S1130420E0916F01F09170010995FF91EF91BF91F7
S1130430AF919F918F917F916F915F914F913F9178
S11304402F910F900FBE0F901F9018951F920F922F
S11304500FB60F9211242F933F934F935F936F9393
S11304607F938F939F93AF93BF93EF93FF93E09109
S11304706D01F0916E010995FF91EF91BF91AF91DC
S11304809F918F917F916F915F914F913F912F91A8
S11304900F900FBE0F901F9018951F920F920FB6DA
S11304A00F9211242F933F934F935F936F937F93F6
S11304B08F939F93AF93BF93EF93FF93E0916B015F
S11304C0F0916C010995FF91EF91BF91AF919F91CC
S11304D08F917F916F915F914F913F912F910F90E9
S10F04E00FBE0F901F901895F894FFCFEA
S10904EC0502060D0000EC
S9030000FC
