:100000000C9431000C94D2120C94F9120C9420131D
:100010000C9430150C9455150C94C1140C94E614E2
:100020000C940B150C949C140C9477140C9452148F
:100030000C9475170C94F91B0C94201C0C94D21B77
:100040000C94AE0F0C944E000C944E000C944E0089
:100050000C944E00851A911A881A8B1A8E1A851ADA
:10006000851A11241FBECFE5D8E0DEBFCDBF14E056
:10007000A0E6B0E0EEEDFDE302C005900D92A23FD8
:10008000B107D9F726E0A2EFB4E001C01D92AD366A
:10009000B207E1F70E940D0F0C94ED1E0C940000C6
:1000A000CF93DF9320910D0530E0C9010296D82F40
:1000B000D295D07F2D5F3F4FC22FC295C07F8FE07A
:1000C00095E00E949C17482F50E06FE075E08D2F5F
:1000D00090E00E94D2098130D9F489E195E00E9434
:1000E0009C17482F50E069E175E08C2F90E00E944A
:1000F000D209813079F460910D056F5F60930D0531
:1001000082E090E00E94E308813031F080E005C099
:1001100080E003C080E001C081E0DF91CF910895CD
:10012000CF93DF931F92CDB7DEB7198281E0809322
:100130003A050E94F50C60E080E00E94960C813048
:10014000F9F487ED90E00E94E10C8130D9F4CE0102
:1001500001960E94500D813059F460E00E94960C87
:10016000813091F4898190E00E94230D813071F4F7
:1001700088EE90E00E94E10C813051F080E009C0EF
:1001800080E007C080E005C080E003C080E001C0DF
:1001900081E00F90DF91CF9108951F93CF93DF936C
:1001A000CDB7DEB72A970FB6F894DEBF0FBECDBF2E
:1001B000FE0131968AE0DF011D928A95E9F71092DF
:1001C000FF041BC090E002968295807F4AE050E0D9
:1001D000BE016F5F7F4F90E00E94AB0A813089F5CE
:1001E0006BE275E0CE0101960E94A817813069F09C
:1001F0008091FF048F5F8093FF048091FF049091B2
:100200000D058917F8F280E001C081E08130D9F452
:100210008091FF0490E00396182F1295107F6FE0F5
:1002200075E0CE0101960E94E71748E050E069E1D1
:1002300075E0812F90E00E94AB0A813031F080E0C0
:1002400005C080E003C08BE001C08AE02A960FB6AB
:10025000F894DEBF0FBECDBFDF91CF911F910895FF
:10026000CF93DF93EC018091FD0490E08D509B4F84
:100270000E94780B863009F074C06091FD04862FCF
:1002800090E0FC01ED50FB4F20812D3309F5FC017E
:10029000ED50FB4F10821092FD0466E081E00E9459
:1002A000960C813009F05FC087EF90E00E94E10C6E
:1002B000813009F05AC066E00E94960C813009F046
:1002C00056C0BE0183EF94E00E94E71787E05AC052
:1002D0002D32B1F4EFEFE60FE093FD04F0E0ED50C6
:1002E000FB4F10826B5F81E00E94960C813009F019
:1002F00040C080E20E94B10C8130E9F180E042C050
:100300006A3049F16A5F81E00E94960C8130A9F55C
:100310008091FE0481110BC0E091FD04F0E0ED50EE
:10032000FB4F80810E94B10C813049F50DC0809156
:10033000FD04843030F48AE20E94B10C813009F56A
:1003400003C081508093FD048091FD048F5F8093F2
:10035000FD0481E017C0FC01ED50FB4F108281E0ED
:1003600011C081E00FC080E00DC080E00BC080E0D4
:1003700009C080E007C081E005C080E003C080E0E4
:1003800001C080E0DF91CF9108954F925F926F920C
:100390007F928F929F92AF92BF92CF92DF92EF9215
:1003A000FF92CF93DF93CDB7DEB728970FB6F894BF
:1003B000DEBF0FBECDBFFE01319688E0DF011D928A
:1003C0008A95E9F789E195E00E9446182B013C01E6
:1003D00080E095E00E9446184B015C01CE01019639
:1003E0000E94DB17CE0101960E943001873009F090
:1003F000B9C0CE0101960E9446186B017C019B0199
:10040000AC01C501B4010E94B41C88230CF56AEF4D
:1004100070E087E091E00E94FA0C24EF31E040E0C8
:1004200050E060E070E080E090E00E94D50F0E9414
:10043000F50C60E080E00E94960C813009F09DC0D0
:1004400085E191E00E94E10C813009F48BC097C0F6
:1004500062E271E082E391E00E94FA0CA70196014A
:10046000C301B2010E94B41C88230CF560E471E062
:100470008BE491E00E94FA0C24EF31E040E050E080
:1004800060E070E080E090E00E94D50F0E94F50CE3
:1004900060E080E00E94960C813009F072C085E136
:1004A00091E00E94E10C813009F45CC06CC06AE507
:1004B00071E088E691E00E94FA0C40E064E680E09A
:1004C0000E94090E28EE33E040E050E060E070E06A
:1004D00080E090E00E94D50F80E00E949A0D10927B
:1004E0003C05A7019601C301B2010E94471C6B01A4
:1004F0007C0189E195E00E94DB1749E155E0C701E5
:10050000B6010E94C4188091FF0490E00396F82E73
:10051000FF0CFF0CFF0CFF0C89E195E00E949C177B
:10052000482F50E069E175E08F2D90E00E94D209DC
:10053000813059F569E175E086E791E00E94FA0C97
:1005400028EE33E040E050E060E070E080E090E0D2
:100550000E94D50F65E871E084E991E00E94FA0CF1
:1005600081E014C02BE930E040E050E060E070E052
:1005700080E090E00E94D50F31CF80E007C080E09E
:1005800005C080E003C080E001C080E028960FB67F
:10059000F894DEBF0FBECDBFDF91CF91FF90EF90FB
:1005A000DF90CF90BF90AF909F908F907F906F9093
:1005B0005F904F9008951F93CF93DF9300D000D0AA
:1005C0001F92CDB7DEB7FE01319685E0DF011D92A7
:1005D0008A95E9F781E08093FE0410E0CE01019650
:1005E0000E94DB17CE0101960E943001873009F08E
:1005F00057C01F5F65E375E0CE0101960E94A81702
:10060000813009F443C0133011F568EF70E082EADD
:1006100091E00E94FA0C28EE33E040E050E060E008
:1006200070E080E090E00E94D50F61EB71E082EC19
:1006300091E00E94FA0C28EE33E040E050E060E0E8
:1006400070E080E090E00E94D50F89E037C061ED56
:1006500071E082EA91E00E94FA0C24EF31E040E080
:1006600050E060E070E080E090E00E94D50F0E94D2
:10067000F50C60E080E00E94960C8130E1F48EED94
:1006800091E00E94E10C813059F017C062E271E004
:1006900082E391E00E94FA0C1092FE0488E00EC002
:1006A0002BE930E040E050E060E070E080E090E076
:1006B0000E94D50F93CF80E001C080E00F900F9093
:1006C0000F900F900F90DF91CF911F9108950E948E
:1006D000F50C60E080E00E94960C813009F04CC07F
:1006E0000E94CD008B3041F46DEE71E08DEF91E012
:1006F0000E94FA0C8BE008958EED91E00E94E10CCF
:100700008130E1F50E94DB028930D1F18830D1F5EA
:100710006EE072E08BE192E00E94FA0C20ED37E08F
:1007200040E050E060E070E080E090E00E94D50F93
:1007300069E175E086E791E00E94FA0C20ED37E070
:1007400040E050E060E070E080E090E00E94D50F73
:100750000E94F50C60E080E00E94960C8130A1F4CC
:1007600085E191E00E94E10C813081F40E94C50195
:10077000813069F080E0089580E0089580E0089578
:1007800089E0089580E0089580E0089580E008956C
:10079000AC0120E091E00AC0FB01E90FF11D80816E
:1007A000FA01E20FF11D80832F5F9F5F9A30A0F363
:1007B000FA01E20FF11D108220E09BE00AC0FB016C
:1007C000E90FF11D8081FA01E20FF11D82872F5F91
:1007D0009F5F9431A0F3FA01E20FF11D128690E0C1
:1007E00085E10AC0FB01E80FF11D2081FA01E90F44
:1007F000F11D248B9F5F8F5F8931A0F3FA01E90F10
:10080000F11D148A81E008951F93CF93DF93CDB734
:10081000DEB7DA950FB6F894DEBF0FBECDBF81E02C
:1008200080933C051982FE0132968FEFDF011D9205
:100830008A95E9F767E272E086E392E00E94FA0C9B
:100840000FC080E00E945208813009F089C0BE01CB
:100850006F5F7F4F80E00E944008813009F082C0C6
:100860008981882371F367E472E086E592E00E9453
:10087000FA0C60E082E10E945C1141C06CE170E022
:10088000CE0102960E944817813009F06DC08A811E
:100890008A32A9F58B818A3291F561E082E10E946A
:1008A0005C1165E672E082E092E00E94FA0C28EEAC
:1008B00033E040E050E060E070E080E090E00E94D3
:1008C000D50F61EB71E082EC91E00E94FA0C28EE0A
:1008D00033E040E050E060E070E080E090E00E94B3
:1008E000D50F10923C0565E871E084E991E00E9423
:1008F000FA0CCE0102960E94DB1711E038C08A8103
:10090000833209F0BBCF61E082E10E945C11BE013D
:100910006E5F7F4F81E295E00E94C803182F8130FF
:1009200029F581E295E00E9467038B3011F0893050
:1009300099F428EE33E040E050E060E070E080E0C1
:1009400090E00E94D50F10923C0565E871E084E9C3
:1009500091E00E94FA0C0BC0813049F010E007C012
:1009600010E005C010E003C010E001C010E0812FCE
:10097000D3950FB6F894DEBF0FBECDBFDF91CF91F8
:100980001F91089580916100843009F4BDC00E94D8
:100990005F0C813009F097C00E94BA0E813009F0D7
:1009A00094C00E94D408813009F091C00E941A17A7
:1009B000813009F08EC00E94650B813009F08BC038
:1009C0000E94410D813009F088C00E94890D81305C
:1009D00009F085C00E942D08813009F082C082EDA7
:1009E00094E00E94E10C813009F07DC084EC94E039
:1009F0000E94CF0E813009F078C06EE075E080E093
:100A000090E00E941F09813009F071C02AE030E0B7
:100A100040E050E060E070E080E090E00E94D50FA0
:100A200080910E058A3AF9F0109260008CED94E006
:100A30000E949C17482F50E06CED74E08BE090E032
:100A40000E94D209813009F054C060E772E081E869
:100A500092E00E94FA0C82E992E00E94CF0E81306F
:100A600009F049C02BC081E08093600048E050E06D
:100A700060E075E083E090E00E94AB0A8130E9F528
:100A80006DE075E082E090E00E941F098130B9F5C9
:100A900045E050E068E075E08BE090E00E94AB0A32
:100AA000813079F565E871E084E991E00E94FA0C03
:100AB00085EA92E00E94CF0E813029F584E0809390
:100AC000610081E0089580E0089580E0089580E06D
:100AD000089580E0089580E0089580E0089580E022
:100AE000089580E0089580E0089580E0089580E012
:100AF000089580E0089580E0089580E0089580E002
:100B0000089580E0089580E008950F931F93CF9398
:100B1000DF93CDB7DEB7CF5FD1090FB6F894DEBF54
:100B20000FBECDBF8C01CE0101962FEFFC011192BB
:100B30002A95E9F70E94EA0E853039F4B801CE0112
:100B400001960E94E71781E005C0813011F080E036
:100B500001C086E0C150DF4F0FB6F894DEBF0FBE74
:100B6000CDBFDF91CF911F910F910895CF93DF9368
:100B7000EC0181EB92E00E94CF0E8130C1F4CE01F6
:100B80000E948505813029F011F0863091F486307D
:100B9000B1F38981882379F0CE010E94DB178FEBB6
:100BA00092E00E94CF0E813021F380E005C080E00A
:100BB00003C080E001C081E0DF91CF910895CF9321
:100BC000DF93EC0189EE92E00E94CF0E8130D9F4E0
:100BD000CE010E948505813029F011F08630A9F4FC
:100BE0008630B1F38F81811103C08C818E3279F010
:100BF000CE010E94DB1787EF92E00E94CF0E81307A
:100C000009F380E005C080E003C080E001C081E01E
:100C1000DF91CF910895CF93DF93EC0188E293E0C9
:100C20000E94CF0E8130C1F4CE010E948505813033
:100C300029F011F0863091F48630B1F3898588234C
:100C400079F0CE010E94DB178FE293E00E94CF0E75
:100C5000813021F380E005C080E003C080E001C066
:100C600081E0DF91CF910895CF93DF93EC0180E590
:100C700093E00E94CF0E8130C1F4CE010E94850521
:100C8000813029F011F0863091F48630B1F38F81F4
:100C9000882379F0CE010E94DB178BE593E00E9458
:100CA000CF0E813021F380E005C080E003C080E0FA
:100CB00001C081E0DF91CF9108951F93CF93DF931F
:100CC000CDB7DEB762970FB6F894DEBF0FBECDBFCB
:100CD000CE0101962AE0DC011D922A95E9F7FE017A
:100CE0003B9628E0DF011D922A95E9F70E940B064A
:100CF000813059F56FE075E0CE0101960E94E7174B
:100D0000CE010B960E943406813009F569E175E049
:100D1000CE010B960E94E7170E945000182F8130D9
:100D2000C1F480910D058130A9F480E893E00E9420
:100D3000CF0E8AEA80930E056AEA80E090E00E9476
:100D4000E308813039F010E005C010E003C010E086
:100D500001C010E0812F62960FB6F894DEBF0FBE7F
:100D6000CDBFDF91CF911F910895CF93DF93EC0119
:100D70000E94050F8AE993E00E94CF0E813069F549
:100D8000CE010E948505813029F011F0863039F5B9
:100D90008630B1F3BE018CED94E00E94A81781303B
:100DA00039F085EA93E00E94CF0E813041F019C0FE
:100DB00085EB93E00E94CF0E8130A9F40AC0CE01EA
:100DC0000E94DB1782EC93E00E94CF0E813091F2FB
:100DD0000CC00E94090F81E009C080E007C080E0DC
:100DE00005C080E003C080E001C080E0DF91CF91CA
:100DF0000895CF93DF93CDB7DEB769970FB6F89418
:100E0000DEBF0FBECDBF80916100843009F00EC1FE
:100E1000FE0131968AE0DF011D928A95E9F7809103
:100E20006000811182C0198E188E729685E0DF01F4
:100E30001D928A95E9F7389788E0DF011D928A951F
:100E4000E9F78091F204811109C0CE0143960E9416
:100E5000B506813009F05DC08093F20483EE93E023
:100E60000E94CF0E813009F056C0CE0148960E94F4
:100E7000B605888D813339F40E945D06CE0148960F
:100E80000E94DB17C7C08233D1F4CE010B960E94BB
:100E9000DF05CE010B960E949C17482F50E0BE0143
:100EA000655F7F4F83E090E00E94D2098130A9F511
:100EB00060E075E0CE010B960E94E717ABC083336C
:100EC00009F580910E058A3AA9F41092F20481E0A6
:100ED000809360000E94F50C85EA92E00E94CF0E9C
:100EE0008130E9F465E871E084E991E00E94FA0C50
:100EF00081E09DC081E394E00E94CF0E813089F0B3
:100F000080E095C08FE694E00E94CF0E813059F4C6
:100F100081C080E08CC080E08AC080E088C080E032
:100F200086C081E084C080E082C080913B05813032
:100F300031F480913C05811102C010926000CE0115
:100F400001960E948505813031F561EE74E0CE0195
:100F500001960E94A817813011F580913C058130DF
:100F600051F480933B058FE794E00E94CF0E8130CF
:100F700009F04AC014C01092600060E772E081E896
:100F800092E00E94FA0C82E992E00E94CF0E81303A
:100F9000E9F180E04CC0813011F08630C9F51B8A40
:100FA000CE0143960E94780B8630B1F48B89813351
:100FB00019F40E9404042EC0823319F40E94900098
:100FC00029C08D3239F510923A0565E871E084E95F
:100FD00091E00E94FA0C1EC080913A058130D1F454
:100FE0001B86CE010B960E94500D813099F460E073
:100FF0000E94960C813031F48B8590E00E94230D85
:10100000813041F080E013C080E011C081E00FC06A
:1010100080E00DC024E630E040E050E060E070E0A9
:1010200080E090E00E94D50F81E001C085E06996E4
:101030000FB6F894DEBF0FBECDBFDF91CF910895FC
:101040000E94C204813039F48FB780688FBF0E943C
:10105000F9068130E1F380E00895809162008530E7
:1010600071F085E890E00E946E10813011F08730B9
:1010700029F485E08093620081E0089580E008957E
:10108000823060F46115710559F0E82FF0E0E35CFF
:10109000FA4F8081FB01808381E0089582E008950A
:1010A00083E008950F931F93CF93DF931F92CDB7E3
:1010B000DEB7823008F058C01982082F10E0F8011E
:1010C000ED59FF4FBE016F5F7F4F80810E944D122F
:1010D000813009F04BC08981813009F504C0019647
:1010E000A11DB11D03C080E090E0DC01883B2BE036
:1010F0009207A105B10598F3BE016F5F7F4FF8011C
:10110000ED59FF4F80810E944D12813089F5898110
:10111000813081F5F801E35CFA4F808330C0882389
:1011200031F081E02CC00196A11DB11D03C080E00B
:1011300090E0DC01883B2BE09207A105B10598F314
:10114000BE016F5F7F4FF801ED59FF4F80810E9414
:101150004D12813089F48981811110C0F801E35C5E
:10116000FA4F108281E00BC082E009C080E007C026
:1011700080E005C081E003C080E001C081E00F9005
:10118000DF91CF911F910F9108959A012227377017
:10119000220F232F221F330B31952065FC01208362
:1011A000FB01408381E0089580916400833051F019
:1011B0000E947A15853029F083E08093640081E0F5
:1011C000089580E008951F93CF93DF9300D01F927E
:1011D000CDB7DEB7AC016B8390916400933011F50D
:1011E00019821A82BE016E5F7F4FCE0101960E9466
:1011F000C508182F8130C1F421E030E0AE014D5F09
:101200005F4F6A8189810E94B416813079F42FE0A2
:1012100030E040E050E060E070E080E090E00E946C
:10122000D50F05C012E003C010E001C010E0812F0F
:101230000F900F900F90DF91CF911F910895EF9233
:10124000FF921F93CF93DF9300D0CDB7DEB7AC01F1
:1012500090916400933021F56115710519F17B01BE
:1012600019821A82BE016E5F7F4FCE0101960E94E5
:10127000C508182F8130C1F421E030E0A7016A8150
:1012800089810E940317813089F425E030E040E035
:1012900050E060E070E080E090E00E94D50F07C071
:1012A00012E005C014E003C010E001C010E0812F7F
:1012B0000F900F90DF91CF911F91FF90EF900895C5
:1012C000EF92FF921F93CF93DF9300D0CDB7DEB79D
:1012D000909164009330F9F461157105F1F07B0190
:1012E00090E1899FA001112419821A82BE016E5FCC
:1012F0007F4FCE0101960E94C508182F813079F4E6
:1013000020E130E0A7016A8189810E94B416813012
:1013100039F010E005C012E003C014E001C010E095
:10132000812F0F900F90DF91CF911F91FF90EF9041
:101330000895EF92FF921F93CF93DF9300D0CDB724
:10134000DEB7909164009330F9F461157105F1F006
:101350007B0190E1899FA001112419821A82BE01AC
:101360006E5F7F4FCE0101960E94C508182F813015
:1013700079F420E130E0A7016A8189810E94031796
:10138000813039F010E005C012E003C014E001C064
:1013900010E0812F0F900F90DF91CF911F91FF9060
:1013A000EF9008956F927F928F929F92AF92BF922B
:1013B000CF92DF92EF92FF920F931F93CF93DF9321
:1013C00000D0CDB7DEB75C016B017A01809164007B
:1013D000833009F0A1C0672B09F4A0C019821A82DA
:1013E000A501BE016E5F7F4FCE0101960E94C50828
:1013F000182F813009F094C0450180EF882287E0E2
:101400009822969487949694879496948794969429
:101410008794682C8A2D8F7051F190E1A92EA81A1B
:10142000B12CEA14FB0458F49701A6016A81898162
:101430000E94B416813009F47CC010E07AC0950196
:10144000A6016A8189810E94B416813009F06AC0C0
:10145000EA18FB082FE030E040E050E060E070E088
:1014600080E090E00E94D50F7724739403C0712C24
:10147000A12CB12CC701929582958F7089279F70FE
:101480008927082F1CC00150B6016A0D7B1D872DCE
:10149000860D0E946009813009F046C0739480E196
:1014A000E81AF10880E1A80EB11C2FE030E040E01E
:1014B00050E060E070E080E090E00E94D50F1016F0
:1014C00014F3E114F104A9F1A401470D511D429553
:1014D0005295507F5427407F5427BE016E5F7F4F47
:1014E000CE0101960E94C508182F8130F9F4A6019B
:1014F0004A0D5B1D97016A8189810E94B416813073
:10150000B9F42FE030E040E050E060E070E080E0CF
:1015100090E00E94D50F0DC012E00BC014E009C08E
:1015200010E007C010E005C010E003C010E001C0EB
:1015300010E0812F0F900F90DF91CF911F910F91AD
:10154000FF90EF90DF90CF90BF90AF909F908F90E3
:101550007F906F9008956F927F928F929F92AF923B
:10156000BF92CF92DF92EF92FF920F931F93CF9390
:10157000DF9300D0CDB7DEB75C016B017A018091BB
:101580006400833009F084C0672B09F483C019829A
:101590001A82A501BE016E5F7F4FCE0101960E94A7
:1015A000C508182F813009F077C0450180EF8822E7
:1015B00087E098229694879496948794969487943B
:1015C00096948794782C8A2D8F70F9F090E1A92E4B
:1015D000A81AB12CEA14FB0458F49701A6016A81F9
:1015E00089810E940317813009F45DC010E05BC05F
:1015F0009501A6016A8189810E940317813009F053
:101600004DC0EA18FB0801E003C000E0A12CB12C9A
:10161000C701929582958F7089279F70892711C085
:10162000B6016A0D7B1D802F870D0E9499098130BC
:10163000B9F50F5F80E1E81AF10880E1A80EB11C4E
:10164000862D66246A94680E8111EACFE114F104B4
:1016500051F1A401400F511D42955295507F5427DE
:10166000407F5427BE016E5F7F4FCE0101960E94DE
:10167000C508182F8130B1F4A6014A0D5B1D9701F2
:101680006A8189810E940317813069F010E00BC0E4
:1016900012E009C014E007C010E005C010E003C06C
:1016A00010E001C010E0812F0F900F90DF91CF91DB
:1016B0001F910F91FF90EF90DF90CF90BF90AF9070
:1016C0009F908F907F906F900895809165008530F6
:1016D00071F085E890E00E946E10813011F0873043
:1016E00029F485E08093650081E0089580E0089505
:1016F000AF92BF92CF92DF92EF92FF920F931F9320
:10170000CF93DF931F92CDB7DEB76C019091650048
:10171000953009F050C0C114D10409F44EC081E0E5
:10172000898300E043C0A02EB12CF501E658FF4F9D
:1017300060E080810E945C11813009F040C010E0BF
:1017400029C0E12EF12CF701EA58FF4FBE016F5F6F
:101750007F4F80810E944D12813099F589818111DE
:1017600018C061E0F501E658FF4F80810E945C11CE
:10177000813049F59701220F331F220F331F2A5959
:101780003F4FF901EA0DFB1D8081F601808386E061
:101790001DC01F5F1430A8F2F501E658FF4F61E04D
:1017A00080810E945C11813081F40F5F043008F465
:1017B000BACF87E00BC084E009C083E007C080E0B7
:1017C00005C080E003C080E001C080E00F90DF91A1
:1017D000CF911F910F91FF90EF90DF90CF90BF902E
:1017E000AF900895CF93C82F80FF05C061E08AE0D5
:1017F0000E945C1104C060E08AE00E945C11C1FF9D
:1018000005C061E08BE00E945C1104C060E08BE0E9
:101810000E945C11C2FF05C061E08CE00E945C1177
:1018200004C060E08CE00E945C11C3FF05C061E071
:101830008DE00E945C1104C060E08DE00E945C11AC
:10184000CF91089561E089E00E945C1121E030E0D1
:1018500040E050E060E070E080E090E00E94D50F52
:1018600060E089E00E945C110895CF93C82F60E08A
:1018700087E00E945C118C2F82958F700E94F20B82
:101880000E94220C21E030E040E050E060E070E097
:1018900080E090E00E94D50F8C2F8F700E94F20B99
:1018A0000E94220C22E030E040E050E060E070E076
:1018B00080E090E00E94D50F81E0CF910895809163
:1018C0007E00863091F185E890E00E946E108130B4
:1018D00011F0873049F524E130E040E050E060E06D
:1018E00070E080E090E00E94D50F60E087E00E9409
:1018F0005C1160E089E00E945C1183E30E94350C7A
:1019000082E30E94350C88E20E94350C8CE00E9434
:10191000350C86E00E94350C81E00E94350C86E093
:1019200080937E0081E0089580E0089590917E008C
:10193000963089F4833088F4613188F4282F30E0C0
:101940002E5F3F4F862F90E4299F800D11240E9427
:10195000350C81E0089585E0089583E0089582E0E4
:101960000895CF9390917E00963041F5C82F61E0A5
:1019700087E00E945C118C2F82958F700E94F20B81
:101980000E94220C21E030E040E050E060E070E096
:1019900080E090E00E94D50F8C2F8F700E94F20B98
:1019A0000E94220C22E030E040E050E060E070E075
:1019B00080E090E00E94D50F81E001C085E0CF91EA
:1019C0000895CF93DF93EC0180917E00863049F437
:1019D00003C021960E94B10C88818111FACF81E069
:1019E00001C085E0DF91CF91089581E00E94350C20
:1019F00081E008950F931F93CF93DF93EC018B0148
:101A00000E94F50C60E080E00E94960C813089F421
:101A1000CE010E94E10C813071F460E00E94960CCE
:101A2000813059F4C8010E94E10C813039F080E026
:101A300005C080E003C080E001C080E0DF91CF916D
:101A40001F910F910895CF93DF93CDB7DEB76197C4
:101A50000FB6F894DEBF0FBECDBF41E0BE016F5F91
:101A60007F4F0E94F817CE0101960E94E10C81E0A1
:101A700061960FB6F894DEBF0FBECDBFDF91CF9158
:101A8000089580917F00853051F00E94100F8130C1
:101A900029F485E080937F0081E0089580E0089537
:101AA0000F931F93CF93DF9300D000D0CDB7DEB755
:101AB0009C0190917F009530F1F421153105E9F0FA
:101AC000890119821A821B821C82BE016F5F7F4FBF
:101AD00080E00E94380F813091F469817A818B8196
:101AE0009C812AE030E040E050E00E948D1EF80129
:101AF000208381E005C084E003C083E001C080E072
:101B00000F900F900F900F90DF91CF911F910F9139
:101B1000089580918000863049F00E94DB19813061
:101B200039F486E08093800081E0089586E008958E
:101B300080E00895DF92EF92FF920F931F93CF936F
:101B4000DF9381115DC0D82E082F10E07801EE0CD4
:101B5000FF1CEE0CFF1CC701800F911FEC01C95147
:101B6000DB4F60E089810E945C1160E08A810E9405
:101B70005C11E0E01CC0ED15C9F0D801AA0FBB1F35
:101B8000AA0FBB1FA00FB11FA951BB4F2C918E2FC5
:101B900090E0DC01AA0FBB1FAA0FBB1F8A0F9B1F7F
:101BA000DC01A951BB4F8C91281719F0EF5FEE2390
:101BB00011F3E13069F4F801EE0FFF1FEE0FFF1F84
:101BC000E00FF11FE951FB4F80810E942B1B12C0D7
:101BD000F0E0E25CFA4F808181110CC0F801EE0F59
:101BE000FF1FEE0FFF1FE00FF11FE951FB4F808138
:101BF0000E942B1BF801E25CFA4F108281E001C0C9
:101C000082E0DF91CF911F910F91FF90EF90DF90D5
:101C10000895FF920F931F93CF93DF9390918000CD
:101C2000963009F057C0811157C0653608F056C08C
:101C3000423008F055C0082F10E0F801E25CFA4F7E
:101C40009081913009F44EC0F62E611104C00E94BB
:101C50009A0D81E048C0411112C025E0209FC001CB
:101C6000219F900D1124EC01C951DB4F61E0898166
:101C70000E945C1160E08A810E945C1113C04130B7
:101C800089F425E0209FC001219F900D1124EC01D3
:101C9000C951DB4F60E089810E945C1161E08A815B
:101CA0000E945C11F801E25CFA4F81E08083F80148
:101CB000EE0FFF1FEE0FFF1FE00FF11FE951FB4F6B
:101CC0004381548160E070E02F2D80810E94F719DC
:101CD00081E009C087E007C082E005C083E003C05F
:101CE00084E001C085E0DF91CF911F910F91FF90BB
:101CF0000895CF93DF93C0914005D0E00E94D01BA0
:101D0000CF5BDA4F888390914005E92FF0E0EF5BDD
:101D1000FA4F80818D3071F40E94891BE09140055B
:101D2000F0E0EF5BFA4F10821092400581E0809363
:101D30003F051DC0883051F4992341F00E94891B52
:101D40008091400581508093400511C0883079F022
:101D500090914006913021F48AE20E94891B02C0D2
:101D60000E94891B809140058F5F80934005DF9121
:101D7000CF91089580918100833081F00E94731B80
:101D8000813011F0873049F489E79EE00E94BB1B47
:101D900083E08093810081E0089580E00895CF93EF
:101DA000DF93009781F020918100223079F0EC01DF
:101DB0000E949C17682F70E0CE010E94941B813016
:101DC00021F020E003C024E001C021E0822FDF9158
:101DD000CF910895BC01892BA1F0809181008230C0
:101DE00099F080913F05813071F410923F0581E4B4
:101DF00095E00E94E71781E495E00E94DB1785E0FB
:101E0000089584E0089581E0089581E0809340067C
:101E100008951092400681E008950E942008FFCFA7
:101E200080918200873011F120E013C03BB3E22F94
:101E3000F0E0EE0FFF1FED57FF4F81E090E00080D4
:101E400002C0880F991F0A94E2F7809583238BBB09
:101E50002F5F222359F397E096B986B18F7D86B91B
:101E600086B186B99093820081E0089588E0089554
:101E7000CF92DF92EF92FF92CF93DF939091820007
:101E8000973009F061C06115710509F45FC037B181
:101E900090E0FC01EE0FFF1FED57FF4F2081232B39
:101EA00027B947B1318150E4359F90011124242B8B
:101EB00027B926B1206826B926B1206426B9349BFB
:101EC000FECF44B125B130E0322F2227242B880FDA
:101ED000991FFC01ED57FF4F8181833041F0813024
:101EE00069F08823A1F0C12CD12C760118C0C12C37
:101EF000D12C76016894E5F8F6F811C00F2EC12CAC
:101F0000F0E4DF2EFCE9EF2EFD2CF02D08C00F2EA3
:101F1000C12CF0E4DF2EFCE9EF2EFD2CF02DEB01BF
:101F2000B90180E090E00E945A1DA70196010E942D
:101F30000C1E0E942B1D688379838A839B8386B144
:101F4000806186B981E003C086E001C085E0DF9151
:101F5000CF91FF90EF90DF90CF9008951F920F9256
:101F60000FB60F9211242F933F934F935F936F936C
:101F70007F938F939F93AF93BF93EF93FF93E091E2
:101F80004106F09142060995FF91EF91BF91AF9103
:101F90009F918F917F916F915F914F913F912F9181
:101FA0000F900FBE0F901F9018952F923F924F9257
:101FB0005F926F927F928F929F92AF92BF92CF92D9
:101FC000DF92EF92FF920F931F93CF93DF9300D096
:101FD00000D000D0CDB7DEB7222E332E442E552EA2
:101FE000662E79838A839B83912C1D821C82B0E0AC
:101FF000F0E0E0E0712C812C44C02D2D3E2D4F2DC2
:10200000502F612F7A2F8B2D9C2DA1E00E94C41E92
:10201000D22EE32EF42E052F162FA72FB82EC92E61
:102020000AC0D12CE12CF12C00E010E0A0E0B12C92
:10203000C12CAD80EE832D2D3E2D4F2D502F612FC5
:102040007A2F8B2D9C2D2B383105410551056105CB
:1020500071058105910589F280F2EE81292D3A2DD5
:102060004C815B2F6F2F7E2F872D982DA1E00E9432
:10207000C41E922E3D834C83B52FF62FE72F782E6A
:10208000892E292D3D814C815B2F6F2F7E2F872D2F
:10209000982DA22CB32CC42CD52CE62CF9800A81C7
:1020A0001B810E94D01E08F4BCCF26960FB6F89470
:1020B000DEBF0FBECDBFDF91CF911F910F91FF907B
:1020C000EF90DF90CF90BF90AF909F908F907F90D8
:1020D0006F905F904F903F902F900895AC01892BA7
:1020E00009F4E4C090E0D7C0E92FF0E0EE0FFF1F45
:1020F000EE0FFF1FE40FF51F3181383008F0D8C014
:1021000020812130C1F138F0223009F464C023303D
:1021100009F491C0CFC02AB361E070E0DB0102C0D6
:10212000AA0FBB1F3A95E2F78A2F809582238ABBBC
:10213000AAB38281282F30E0018002C0220F331F12
:102140000A94E2F72A2B2ABB8BB3018002C0660FE8
:10215000771F0A94E2F7609568236BBB6BB38381AA
:10216000282F30E0018002C0220F331F0A94E2F7CB
:10217000262B2BBB8FC027B361E070E0DB0102C0D0
:10218000AA0FBB1F3A95E2F78A2F8095822387BB5F
:10219000A7B38281282F30E0018002C0220F331FB5
:1021A0000A94E2F72A2B27BB88B3018002C0660F8E
:1021B000771F0A94E2F76095682368BB68B3838150
:1021C000282F30E0018002C0220F331F0A94E2F76B
:1021D000262B28BB5FC024B361E070E0DB0102C0A6
:1021E000AA0FBB1F3A95E2F78A2F8095822384BB02
:1021F000A4B38281282F30E0018002C0220F331F58
:102200000A94E2F72A2B24BB85B3018002C0660F33
:10221000771F0A94E2F76095682365BB65B38381F5
:10222000282F30E0018002C0220F331F0A94E2F70A
:10223000262B25BB2FC021B361E070E0DB0102C07B
:10224000AA0FBB1F3A95E2F78A2F8095822381BBA4
:10225000A1B38281282F30E0018002C0220F331FFA
:102260000A94E2F72A2B21BB82B3018002C0660FD9
:10227000771F0A94E2F76095682362BB62B383819B
:10228000282F30E0018002C0220F331F0A94E2F7AA
:10229000262B22BB9F5F943108F426CF509345062E
:1022A0004093440681E080934306089585E00895B5
:1022B00083E0089584E00895853108F090C09091FE
:1022C0004306992309F48DC0E82FF0E0CF01880F71
:1022D000991F880F991FE0914406F0914506E80F79
:1022E000F91F8081813021F130F08230F1F18330AB
:1022F00009F458C078C0613069F42BB381E090E0F4
:10230000018002C0880F991F0A94E2F7822B8BBBD1
:1023100081E008952BB381E090E0018002C0880F36
:10232000991F0A94E2F7809582238BBB81E0089580
:10233000613069F428B381E090E0018002C0880F29
:10234000991F0A94E2F7822B88BB81E0089528B395
:1023500081E090E0018002C0880F991F0A94E2F7A3
:102360008095822388BB81E00895613069F425B3AC
:1023700081E090E0018002C0880F991F0A94E2F783
:10238000822B85BB81E0089525B381E090E0018038
:1023900002C0880F991F0A94E2F78095822385BBBB
:1023A00081E00895613069F422B381E090E001801A
:1023B00002C0880F991F0A94E2F7822B82BB81E04A
:1023C000089522B381E090E0018002C0880F991F38
:1023D0000A94E2F78095822382BB81E0089582E02F
:1023E000089586E0089584E00895853108F04FC08F
:1023F00090914306992309F44CC0E82FF0E0CF01F7
:10240000880F991F880F991FE0914406F0914506A7
:10241000E80FF91F8081813099F028F08230E9F0CF
:10242000833041F138C02BB381E090E0018002C0DD
:10243000880F991F0A94E2F782278BBB81E00895E9
:1024400028B381E090E0018002C0880F991F0A94B0
:10245000E2F7822788BB81E0089525B381E090E010
:10246000018002C0880F991F0A94E2F7822785BB7A
:1024700081E0089522B381E090E0018002C0880FDE
:10248000991F0A94E2F7822782BB81E0089582E0D7
:10249000089586E0089584E00895853108F07CC0B1
:1024A00090914306992309F479C0E82FF0E0CF0119
:1024B000880F991F880F991FE0914406F0914506F7
:1024C000E80FF91F80818130F9F030F08230A1F1FE
:1024D000833009F449C064C049B3518181E090E080
:1024E0009C01052E02C0220F331F0A94E2F7842FAD
:1024F00090E08223932302C0959587955A95E2F741
:10250000FB01808381E0089546B3518181E090E032
:102510009C01052E02C0220F331F0A94E2F7842F7C
:1025200090E08223932302C0959587955A95E2F710
:10253000FB01808381E0089543B3518181E090E005
:102540009C01052E02C0220F331F0A94E2F7842F4C
:1025500090E08223932302C0959587955A95E2F7E0
:10256000FB01808381E0089540B3518181E090E0D8
:102570009C01052E02C0220F331F0A94E2F7842F1C
:1025800090E08223932302C0959587955A95E2F7B0
:10259000FB01808381E0089582E0089586E008953C
:1025A00084E008951F920F920FB60F9211242F937B
:1025B0003F934F935F936F937F938F939F93AF93CB
:1025C000BF93EF93FF93E0914A06F0914B06099574
:1025D000FF91EF91BF91AF919F918F917F916F91FB
:1025E0005F914F913F912F910F900FBE0F901F90D1
:1025F00018951F920F920FB60F9211242F933F93AD
:102600004F935F936F937F938F939F93AF93BF93FA
:10261000EF93FF93E0914806F09149060995FF91E9
:10262000EF91BF91AF919F918F917F916F915F914A
:102630004F913F912F910F900FBE0F901F901895C3
:102640001F920F920FB60F9211242F933F934F9327
:102650005F936F937F938F939F93AF93BF93EF930A
:10266000FF93E0914606F09147060995FF91EF919F
:10267000BF91AF919F918F917F916F915F914F919A
:102680003F912F910F900FBE0F901F90189590E0E3
:102690000EC0292F30E0F901EE0FFF1F2E0F3F1F54
:1026A000F901E451FB4F2081281719F09F5F99230E
:1026B00081F3892F90E0FC01EE0FFF1FEE0FFF1F4B
:1026C000E35BF94F4081518162817381411551056E
:1026D0006105710581F0880F991F880F991FFC0112
:1026E000E35BF94F415051096109710940835183FE
:1026F00062837383089523B72E7F23BF23B72D7F73
:1027000023BF23B72B7F23BF29B72E7F29BFFC010F
:10271000EF5AF94F24E02083E0915206F0915306DE
:102720000995089580914C06813061F120E024C024
:10273000822F90E0FC01EE0FFF1FE80FF91FE4511C
:10274000FB4F3081332319F03330F0F40FC0FC011C
:10275000EE0FFF1FE80FF91FE451FB4F32813111DB
:1027600005C013BE39B73C7F39BF12BEFC01EF5A1A
:10277000F94F31E030832F5F2223D1F281E0809343
:102780004C06089583E0089585E008950F931F9304
:10279000CF93DF93890181114AC0C82FD0E0FE0199
:1027A000EF5AF94F8081882309F443C0823009F43D
:1027B00042C082E0FE01EF5AF94F8083FE01EE0F26
:1027C000FF1FEC0FFD1FE451FB4F8081882321F098
:1027D000833098F185E034C0CB01BA012FEF30E0AF
:1027E00040E050E00E948D1EFE01EE0FFF1FEE0F35
:1027F000FF1FE35BF94F2083318342835383262FEE
:10280000372F89B7816089BF109353060093520612
:10281000CE01880F991FC80FD91FC451DB4F898182
:1028200083BF232B61F0619562BF81E009C086E020
:1028300007C082E005C087E003C081E001C081E0FD
:10284000DF91CF911F910F910895811123C090E0E6
:10285000FC01EF5AF94F20812223F1F02230F1F4EC
:10286000FC01EE0FFF1FE80FF91FE451FB4F208121
:10287000222319F02330A0F406C023B7287F23BFFA
:1028800029B72C7F29BFFC01EF5AF94F23E02083A1
:1028900081E0089586E0089582E0089588E0089533
:1028A00085E008951F920F920FB60F9211242F9377
:1028B0003F934F935F936F937F938F939F93AF93C8
:1028C000BF93EF93FF9380E00E944713FF91EF9136
:1028D000BF91AF919F918F917F916F915F914F9138
:1028E0003F912F910F900FBE0F901F9018951F9240
:1028F0000F920FB60F9211242F933F934F935F9334
:102900006F937F938F939F93AF93BF93EF93FF93B7
:1029100080E00E944713FF91EF91BF91AF919F918B
:102920008F917F916F915F914F913F912F910F9078
:102930000FBE0F901F9018951F920F920FB60F9217
:1029400011242F933F934F935F936F937F938F93B4
:102950009F93AF93BF93EF93FF9381E00E94471340
:10296000FF91EF91BF91AF919F918F917F916F9167
:102970005F914F913F912F910F900FBE0F901F903D
:1029800018951F920F920FB60F9211242F933F9319
:102990004F935F936F937F938F939F93AF93BF9367
:1029A000EF93FF9381E00E944713FF91EF91BF9156
:1029B000AF919F918F917F916F915F914F913F91D7
:1029C0002F910F900FBE0F901F9018951F920F928E
:1029D0000FB60F9211242F933F934F935F936F93F2
:1029E0007F938F939F93AF93BF93EF93FF9381E078
:1029F0000E944713FF91EF91BF91AF919F918F91EB
:102A00007F916F915F914F913F912F910F900FBEEA
:102A10000F901F9018951F920F920FB60F921124CE
:102A20002F933F934F935F936F937F938F939F93D6
:102A3000AF93BF93EF93FF9381E00E944713FF9101
:102A4000EF91BF91AF919F918F917F916F915F9126
:102A50004F913F912F910F900FBE0F901F9018959F
:102A60001F920F920FB60F9211242F933F934F9303
:102A70005F936F937F938F939F93AF93BF93EF93E6
:102A8000FF9382E00E944713FF91EF91BF91AF91B6
:102A90009F918F917F916F915F914F913F912F9176
:102AA0000F900FBE0F901F9018951F920F920FB6A8
:102AB0000F9211242F933F934F935F936F937F93C4
:102AC0008F939F93AF93BF93EF93FF9382E00E9406
:102AD0004713FF91EF91BF91AF919F918F917F919C
:102AE0006F915F914F913F912F910F900FBE0F907B
:102AF0001F9018958091D500863049F082E081B909
:102B000089E080B986E08093D50081E0089587E070
:102B100008958091D500863059F484EA86BF06B6C0
:102B200007FEFDCF81B1887F883021F080E00895D5
:102B300085E0089581E008959091D500963029F5BB
:102B4000623028F588232CF190E0880F991F682BBC
:102B500063B984E886BF06B607FEFDCF81B1887FE2
:102B6000883359F028F48831B1F0803241F00BC03D
:102B7000803489F0883429F006C088E3089580E223
:102B8000089588E4089580E0089585E0089582E03E
:102B9000089583E0089581E008958091D5008630FE
:102BA00059F484EA86BF06B607FEFDCF81B1887F5F
:102BB000803121F080E0089585E0089581E0089556
:102BC0008091D500863039F484E986BF06B604FCCE
:102BD000FDCF81E0089585E008959091D50096306D
:102BE00069F483B984E886BF06B607FEFDCF81B1DC
:102BF000887F883229F0803329F4089585E008958C
:102C000088E2089580E00895FC019091D500963007
:102C100079F4309779F084EC86BF06B607FEFDCFD5
:102C200081B1887F803541F483B1808381E008954C
:102C300085E0089584E0089580E00895FC01909176
:102C4000D500963079F4309779F084E886BF06B6DF
:102C500007FEFDCF81B1887F883541F483B1808341
:102C600081E0089585E0089584E0089580E0089566
:102C70007F928F929F92AF92BF92CF92DF92EF920C
:102C8000FF920F931F93CF93DF93782EEB017A017E
:102C900069018091D500863009F047C0209709F47A
:102CA00046C0232B09F445C077200CF444C00E9491
:102CB0008915882309F44AC060E0872D0E949C157D
:102CC0008130D9F50BC04E018FEF881A980A8881A0
:102CD0000E94ED1575018823C9F1E401570181E0D7
:102CE000A81AB108EF2879F70E94CD15813039F57F
:102CF00061E0872D0E949C15813019F508C0E6011E
:102D00002196C6010E9404168130E9F46E0101503B
:102D10001109A9F7C6010E941E168130B1F40E9464
:102D2000E015813099F080E011C085E00FC084E0AB
:102D30000DC084E00BC083E009C080E007C080E0E4
:102D400005C080E003C080E001C080E0DF91CF914A
:102D50001F910F91FF90EF90DF90CF90BF90AF90B9
:102D60009F908F907F900895BF92CF92DF92EF92C5
:102D7000FF920F931F93CF93DF93182F062FEA0133
:102D800079018091D500863059F5209759F11123AA
:102D90005CF10E948915882361F160E0812F0E9417
:102DA0009C15B82E81E0B81221C0802F0E94ED152D
:102DB00081110CC01EC06E018FEFC81AD80A88811D
:102DC0000E94ED1578018823A1F0E60187010150EA
:102DD0001109EF2881F70E94E015811109C009C08F
:102DE00085E007C084E005C083E003C080E001C047
:102DF0008B2DDF91CF911F910F91FF90EF90DF907E
:102E0000CF90BF9008950F931F93CF93DF931F929E
:102E1000CDB7DEB7698389019A0141E050E0BE0178
:102E20006F5F7F4F0E9438160F90DF91CF911F91F7
:102E30000F9108958091D6008730B9F087B38064F0
:102E400087BB87B38F7D87BB87B38F7E87BB87B3F5
:102E50008F7787BB8DB18F7E8DB98DB180648DB931
:102E600087E08093D60081E0089588E00895FC0112
:102E70009091D600973041F4309741F0779BFECF88
:102E80008FB1808381E0089586E0089585E00895FC
:102E9000CF92DF92EF92FF921F93CF93DF936C015B
:102EA0009091D6009730B1F47B0110E00CC0E601A0
:102EB000C80FD91FCE010E943717813069F498815D
:102EC000992359F01F5F812F90E08E159F0578F3AD
:102ED00081E003C086E001C080E0DF91CF911F91C7
:102EE000FF90EF90DF90CF9008951F920F920FB652
:102EF0000F9211242F933F934F935F936F937F9380
:102F00008F939F93AF93BF93EF93FF93E0915406FA
:102F1000F09155060995FF91EF91BF91AF919F9167
:102F20008F917F916F915F914F913F912F910F9072
:102F30000FBE0F901F901895AC0180E001C08F5F0D
:102F4000FA01E80FF11D20812111F9CF8F5F08955B
:102F5000FF920F931F93CF93DF938C01EB010E949D
:102F60009C17F82ECE010E949C178F15B8F0F8160A
:102F7000B8F030E009C0FE01E80FF91F8081821728
:102F800088F0281788F03F5F832F90E0F801E80F62
:102F9000F91F20812111EFCF81E007C082E005C039
:102FA00083E003C082E001C083E0DF91CF911F91F5
:102FB0000F91FF900895AC0190E002C09F5F1082D6
:102FC000FA01E90FF11D20812111F8CF0895DC01EC
:102FD00090E005C0FB01E20FF31F40839F5F292FA4
:102FE00030E0FD01E20FF31F40814111F3CF08955E
:102FF0000F931F93CF93DF93FC018B01413009F0B6
:1030000040C0C0E0D0E06AE070E00E94791ECB01D1
:10301000009711F02196F7CFDE011196A00FB11F96
:103020001C922DC0A8014C0F5D1F9F01ADECBCECA4
:103030000E94B51E96958795969587959695879546
:103040009C01220F331F880F991F880F991F880F2B
:10305000991F820F931F9F01281B390BC901805DA7
:10306000DA018C939F01ADECBCEC0E94B51EFC0113
:10307000F695E795F695E795F695E79521973097BC
:1030800089F6DF91CF911F910F9108958F929F92B2
:10309000AF92BF92CF92DF92EF92FF920F931F9366
:1030A000CF93DF93EC010E949C170FEF080FC12C08
:1030B000D12C760110E01EC0FE01E10FF11D6081F0
:1030C0006E3211F41F5F18C070E060537109072E53
:1030D000000C880B990B0E945C1DA70196010E94B1
:1030E000481C20E030E040E251E40E940C1E6B01DD
:1030F0007C011F5F101700F320E030E040E251E454
:10310000C701B6010E94B91C4B015C010F2EC12CF6
:10311000D12CF0E8EF2EFFE3FF2EF02D24C020E0AD
:1031200030E040E251E4C701B6010E94B91C6B01D6
:103130007C01FE01E10FF11D608170E060537109B7
:10314000072E000C880B990B0E945C1DA7019601AD
:103150000E940C1E9B01AC01C501B4010E94481CD9
:103160004B015C011F5F1017D0F2C501B401DF9164
:10317000CF911F910F91FF90EF90DF90CF90BF9074
:10318000AF909F908F9008958F929F92AF92BF9231
:10319000CF92DF92EF92FF920F931F93CF93DF9323
:1031A0004B015C018A010E942B1DC62ED72EE82EF2
:1031B000F92E262F372F482F592FD0E009C0CA01EA
:1031C000B9012AE030E040E050E00E948D1EDF5F50
:1031D000211531054105510591F7CFEFCD0F6C2D2C
:1031E0007D2D8E2D9F2D14C02AE030E040E050E070
:1031F0000E948D1EDC01CB01C096A11DB11DF801FE
:10320000EC0FF11D8083622F732F842F952FC150F7
:10321000611571058105910539F76C2D7D2D8E2D78
:103220009F2D0E945A1D9B01AC01C501B4010E9453
:10323000471C20E030E040E251E40E940C1E6B018C
:103240007C010E942B1D21E02D0FF801ED0FF11DD7
:103250003EE23083DE5FF801E20FF11D20E3260F2E
:1032600020830E945A1D9B01AC01C701B6010E9438
:10327000471C20E030E040E251E40E940C1E0E9416
:103280002B1DF801ED0FF11D605D6083DF91CF9183
:103290001F910F91FF90EF90DF90CF90BF90AF9074
:1032A0009F908F9008950F931F93E0915706F0E041
:1032B000EE0FFF1FE151FB4F80810E94F51181301D
:1032C00009F076C08091570690E09C01220F331FD1
:1032D000F901EE0FFF1FEE0FFF1FEE0FFF1FE21BA6
:1032E000F30BE85AF94F2585223009F061C0880FA9
:1032F000991FFC01EE0FFF1FEE0FFF1FEE0FFF1FC8
:10330000E81BF90BE85AF94F4185528563857485AE
:10331000FC01E151FB4F23E539E181810E94C61395
:10332000813009F045C08091570690E09C01220F42
:10333000331FF901EE0FFF1FEE0FFF1FEE0FFF1FF0
:10334000E21BF30BE85AF94F01851285238534857A
:103350004581568167817085041715072607370751
:10336000B1F4880F991FFC01EE0FFF1FEE0FFF1F36
:10337000EE0FFF1FE81BF90BE85AF94F818192818C
:10338000A381B48181879287A387B48711C0880FF6
:10339000991FFC01EE0FFF1FEE0FFF1FEE0FFF1F27
:1033A000E81BF90BE85AF94F418752876387748706
:1033B0001F910F91089580915606813091F00E94DF
:1033C0009213813011F0833071F485E890E00E940F
:1033D0006E10813011F0873041F481E08093560601
:1033E000089580E0089580E0089580E008954F9268
:1033F0005F926F927F928F929F92AF92BF92CF9285
:10340000DF92EF92FF920F931F93CF93DF9300D041
:1034100000D000D0CDB7DEB790915606913009F0BC
:10342000F2C08111F2C0253608F0F1C0E82FF0E0BB
:10343000FE83ED83DF01AA0FBB1FFD01EE0FFF1F0F
:10344000EE0FFF1FEE0FFF1FEA1BFB0BE85AF94FB1
:103450009585923009F4DDC0222309F4DCC0122FD7
:10346000C82E243661F4FD01E151FB4F61E08081FB
:103470000E945C11813009F4D0C080E0D5C0CB013E
:10348000BA010E945A1D9B01AC0160E070E080E827
:103490009FE30E94B91C4B015C01612F70E080E04A
:1034A00090E00E945C1DA50194010E940C1E20E08A
:1034B00030E048EC52E40E94B91C2B013C019B0116
:1034C000AC01C501B4010E94471C4B015C01ED81B8
:1034D000FE81EE0FFF1FE151FB4FD1808D2D90E05B
:1034E000FC01EE0FFF1F8E0F9F1FFC01E451FB4FED
:1034F000E1818E2F90E0FC013197E730F10508F073
:103500008EC0E65DFF4F0C94AF1E61E070E00BC013
:1035100060E470E008C060E071E005C060E074E065
:1035200002C068E070E080E090E00E945A1D20E058
:1035300034E244E759E40E94B91C69837A838B839F
:103540009C83C09257069B01AC01C301B2010E944B
:10355000B91CED80FE80EE0CFF1C8701000F111FCF
:10356000000F111F000F111F0E191F09085A194FC4
:103570000E942B1DF80161837283838394832981C8
:103580003A814B815C81C501B4010E94B91C0E9443
:103590002B1DF8016583768387839087C082F701AE
:1035A000E151FB4F61E080810E945C118130C9F5DF
:1035B0008EE02D813E81829FF001839FF00D1124CA
:1035C000E85AF94F418152816381748123E539E1E1
:1035D0008D2D0E94C613813031F58EE02D813E8104
:1035E000829FF001839FF00D1124E85AF94F8581E5
:1035F0009681A781B08581879287A387B48782E06F
:10360000858781E011C082E00FC083E00DC084E0B7
:103610000BC085E009C081E007C081E005C080E003
:1036200003C080E001C080E026960FB6F894DEBFAC
:103630000FBECDBFDF91CF911F910F91FF90EF9003
:10364000DF90CF90BF90AF909F908F907F906F90C2
:103650005F904F900895CF93DF93909156069130ED
:10366000B1F5811136C0C82FD0E0CE01880F991F67
:10367000FC01EE0FFF1FEE0FFF1FEE0FFF1FE81BF9
:10368000F90BE85AF94F8585823029F5FE01EE0FD6
:10369000FF1FE151FB4F60E080810E945C1181308F
:1036A000E1F48EE08C9FF0018D9FF00D1124E85A1B
:1036B000F94F83E08587FE01EE0FFF1FE151FB4FBD
:1036C00081810E942514813051F080E009C082E0A0
:1036D00007C083E005C085E003C080E001C081E051
:1036E000DF91CF91089580916606813081F010BC02
:1036F00087E689B982E08BB988E18AB980E880BD24
:1037000080B5866880BD81E080936606089587E075
:10371000089590916606992329F05D9BFECF8CB9A0
:1037200081E0089586E00895EF92FF920F931F9332
:10373000CF93DF9320916606222399F08B017C01C1
:10374000C0E0D0E009C0F701EC0FFD1F80810E94AE
:10375000891B813041F42196C017D107A0F381E085
:1037600003C086E001C080E0DF91CF911F910F91EF
:10377000FF90EF9008959C0190916606992361F067
:103780002115310559F08AB180688AB930936A06EB
:103790002093690681E0089586E0089585E0089504
:1037A0008CB108951F920F920FB60F9211242F9390
:1037B0003F934F935F936F937F938F939F93AF93B9
:1037C000BF93EF93FF93E0916B06F0916C06099520
:1037D000FF91EF91BF91AF919F918F917F916F91E9
:1037E0005F914F913F912F910F900FBE0F901F90BF
:1037F00018951F920F920FB60F9211242F933F939B
:103800004F935F936F937F938F939F93AF93BF93E8
:10381000EF93FF93E0916906F0916A060995FF9195
:10382000EF91BF91AF919F918F917F916F915F9138
:103830004F913F912F910F900FBE0F901F901895B1
:103840001F920F920FB60F9211242F933F934F9315
:103850005F936F937F938F939F93AF93BF93EF93F8
:10386000FF93E0916706F09168060995FF91EF914B
:10387000BF91AF919F918F917F916F915F914F9188
:103880003F912F910F900FBE0F901F901895505899
:10389000BB27AA270E945F1C0C94D21D0E94C41D46
:1038A00038F00E94CB1D20F039F49F3F19F426F424
:1038B0000C94C11D0EF4E095E7FB0C94BB1DE92FA1
:1038C0000E94E31D58F3BA17620773078407950730
:1038D00020F079F4A6F50C94051E0EF4E0950B2E5D
:1038E000BA2FA02D0B01B90190010C01CA01A00152
:1038F0001124FF27591B99F0593F50F4503E68F1AD
:103900001A16F040A22F232F342F4427585FF3CFED
:10391000469537952795A795F0405395C9F77EF4BE
:103920001F16BA0B620B730B840BBAF09150A1F007
:10393000FF0FBB1F661F771F881FC2F70EC0BA0F8D
:10394000621F731F841F48F4879577956795B79515
:10395000F7959E3F08F0B0CF9395880F08F0992710
:10396000EE0F9795879508950E94971D08F481E0C2
:1039700008950E94CD1C0C94D21D0E94CB1D58F0BE
:103980000E94C41D40F029F45F3F29F00C94BB1D38
:1039900051110C94061E0C94C11D0E94E31D68F386
:1039A0009923B1F3552391F3951B550BBB27AA27F8
:1039B00062177307840738F09F5F5F4F220F331F32
:1039C000441FAA1FA9F335D00E2E3AF0E0E832D0FA
:1039D00091505040E695001CCAF72BD0FE2F29D0FD
:1039E000660F771F881FBB1F261737074807AB07CF
:1039F000B0E809F0BB0B802DBF01FF2793585F4F44
:103A00003AF09E3F510578F00C94BB1D0C94061EB5
:103A10005F3FE4F3983ED4F3869577956795B79525
:103A2000F7959F5FC9F7880F911D9695879597F930
:103A30000895E1E0660F771F881FBB1F62177307A9
:103A40008407BA0720F0621B730B840BBA0BEE1FBE
:103A500088F7E09508950E94EB1D88F09F5798F035
:103A6000B92F9927B751B0F0E1F0660F771F881F83
:103A7000991F1AF0BA95C9F714C0B13091F00E949D
:103A8000051EB1E008950C94051E672F782F882736
:103A9000B85F39F0B93FCCF3869577956795B395C4
:103AA000D9F73EF490958095709561957F4F8F4F33
:103AB0009F4F0895E89409C097FB3EF49095809538
:103AC000709561957F4F8F4F9F4F9923A9F0F92FE4
:103AD00096E9BB279395F695879577956795B79562
:103AE000F111F8CFFAF4BB0F11F460FF1BC06F5F48
:103AF0007F4F8F4F9F4F16C0882311F096E911C05A
:103B0000772321F09EE8872F762F05C0662371F07A
:103B100096E8862F70E060E02AF09A95660F771F8E
:103B2000881FDAF7880F9695879597F90895990F6A
:103B30000008550FAA0BE0E8FEEF16161706E80777
:103B4000F907C0F012161306E407F50798F0621B98
:103B5000730B840B950B39F40A2661F0232B242B6D
:103B6000252B21F408950A2609F4A140A6958FEF8C
:103B7000811D811D089597F99F6780E870E060E0DE
:103B800008959FEF80EC089500240A9416161706F6
:103B900018060906089500240A941216130614063E
:103BA00005060895092E0394000C11F4882352F0A1
:103BB000BB0F40F4BF2B11F460FF04C06F5F7F4F59
:103BC0008F4F9F4F089557FD9058440F551F59F040
:103BD0005F3F71F04795880F97FB991F61F09F3FFA
:103BE00079F087950895121613061406551FF2CF23
:103BF0004695F1DF08C0161617061806991FF1CF73
:103C000086957105610508940895E894BB27662799
:103C10007727CB0197F908950E941F1E0C94D21D9F
:103C20000E94C41D38F00E94CB1D20F0952311F096
:103C30000C94BB1D0C94C11D11240C94061E0E94F3
:103C4000E31D70F3959FC1F3950F50E0551F629FE0
:103C5000F001729FBB27F00DB11D639FAA27F00DE5
:103C6000B11DAA1F649F6627B00DA11D661F829F0C
:103C70002227B00DA11D621F739FB00DA11D621FF1
:103C8000839FA00D611D221F749F3327A00D611D0E
:103C9000231F849F600D211D822F762F6A2F1124F0
:103CA0009F5750409AF0F1F088234AF0EE0FFF1F23
:103CB000BB1F661F771F881F91505040A9F79E3F7A
:103CC000510580F00C94BB1D0C94061E5F3FE4F37D
:103CD000983ED4F3869577956795B795F795E795D0
:103CE0009F5FC1F7FE2B880F911D9695879597F9D9
:103CF000089597FB072E16F4009407D077FD09D09E
:103D00000E94D91E07FC05D03EF4909581959F4FE7
:103D10000895709561957F4F0895A1E21A2EAA1B10
:103D2000BB1BFD010DC0AA1FBB1FEE1FFF1FA2176B
:103D3000B307E407F50720F0A21BB30BE40BF50B68
:103D4000661F771F881F991F1A9469F760957095F1
:103D5000809590959B01AC01BD01CF010895EE0FB8
:103D6000FF1F0590F491E02D0994A29FB001B39F2D
:103D7000C001A39F700D811D1124911DB29F700D74
:103D8000811D1124911D08950024A7FD00942A0F80
:103D9000301D401D501D601D701D801D901D08951B
:103DA0002A153B054C055D056E057F0580079107CB
:103DB0000895AA1BBB1B51E107C0AA1FBB1FA61772
:103DC000B70710F0A61BB70B881F991F5A95A9F7C4
:0E3DD00080959095BC01CD010895F894FFCF29
:103DDE00020504110204313233783435362B37386C
:103DEE00392B302E3D2D0304050600010213050468
:103DFE000702060003020501010206010102070186
:103E0E000102020001020300010204000103050089
:103E1E000100010100000201000003010000040185
:103E2E000000050100000601000007010003020169
:103E3E000003030100030401000102000003070157
:103E4E000103060101050643757272656E742054F6
:103E5E00656D702069733A00202020272D2720548D
:103E6E006F2045786974002020002020202045789E
:103E7E00636565646564002020204D617820416D86
:103E8E006F756E7400456E74657220416D6F756E40
:103E9E0074002050726F63657373696E672E2E2ED9
:103EAE002E002020506C6561736520576169740087
:103EBE0020202020202046756E64002020496E733D
:103ECE00756666696369656E740020205472616E52
:103EDE0073616374696F6E00202020537563636590
:103EEE00737366756C002020596F75722042616C79
:103EFE00616E636500322E446973706C6179205473
:103F0E00656D7000312E496E736572742043617257
:103F1E00640020496E636F72726563742050494E5F
:103F2E0000437573746F6D657220536572766963A5
:103F3E006500506C6561736520436F6E74616374C8
:103F4E000020202054727920416761696E00456E11
:103F5E0074657220596F75722050494E00696E203B
:103F6E0074686520446174616261736500596F7590
:103F7E00722043617264206973206E6F740020207A
:103F8E002020437573746F6D6572002020202057BA
:103F9E00656C636F6D6500202050726573732042EF
:103FAE007574746F6E0057616974696E6720666F01
:103FBE0072204361726400526563656976696E674B
:103FCE00204461746100427574746F6E2050726586
:103FDE00737365640050726F6772616D6D65640016
:103FEE002A2A2A2A2A4C4F434B45442A2A2A2A2A6D
:103FFE00002A2A2A2A2A2A41544D2A2A2A2A2A2AD9
:10400E002A000A50726F6772616D6D696E67204D7E
:10401E006F64650D000A55534552204D6F64650D52
:10402E00000A596F757220496E7075743A20000A35
:10403E00496E76616C69642043686F6963652C20F4
:10404E004F6E6C792043686F6F73652066726F6D6B
:10405E00203120746F20330D000A4D617820416DA0
:10406E006F756E743A20000A496E76616C69642031
:10407E0042616C616E63652C204F6E6C7920372027
:10408E00636861726163746572732065672E203197
:10409E003233342E35360D000A50414E3A20000A86
:1040AE00496E76616C69642050414E2C204F6E6CC7
:1040BE0079203920636861726163746572730D00D3
:1040CE000A42616C616E63653A20000A496E766140
:1040DE006C69642042616C616E63652C204F6E6C5E
:1040EE0079203720636861726163746572730D00A5
:1040FE000A446174612053617665642C20466C61BC
:10410E0067205261697365640A000A41544D20505C
:10411E00494E3A20000A496E636F727265637420CD
:10412E0050494E0D000A4C6F6164696E672E2E2E3B
:10413E000D000A496E76616C69642050494E2C2040
:10414E004F6E6C792034206368617261637465729E
:10415E00730D000A312E416464204E65772043753D
:10416E0073746F6D65720A0D322E557064617465CD
:10417E00204578697374696E6720437573746F6D2B
:10418E0065720A0D332E557064617465204D617829
:10419E0020416D6F756E740A0D342E457869740D5D
:1041AE00000A446174612042617365206973206561
:1041BE006D7074792C20796F75206D757374207203
:1041CE0065676973746572206174206C65617374C0
:1041DE00206F6E6520637573746F6D65720D000AC6
:1041EE00496E76616C696420496E70757421000A9F
:1041FE0041544D2069732042757379204E6F772C90
:10420E002050726F6772616D6D696E67204D6F64BD
:10421E00652077696C6C20737461727420616674AA
:10422E0065722063757272656E742050726F63656D
:10423E0073730D0041544D205465726D696E616C3F
:10424E000D004C6F6164696E672E2E00383532306A
:10425E000041444D494E00000E0F64000003001053
:02426E0000004E
:00000001FF
