S00B000041544D2E7372656337
S11300000C9431000C9405130C942C130C9453137E
S11300100C9463150C9488150C94F4140C94191511
S11300200C943E150C94CF140C94AA140C948514BF
S11300300C94A8170C942C1C0C94531C0C94051CA5
S11300400C94E10F0C944E000C944E000C944E0052
S11300500C944E00B81AC41ABB1ABE1AC11AB81AA4
S1130060B81A11241FBECFE5D8E0DEBFCDBF14E01F
S1130070A0E6B0E0E4E4FEE302C005900D92A03FE8
S1130080B107D9F726E0A0EFB4E001C01D92AB366A
S1130090B207E1F70E94400F0C94201F0C9400005B
S11300A0CF93DF9390910B05292F30E02F5F3F4FC3
S11300B0D22FD295DD0FD07E9295990F907EC0E31A
S11300C0C90F8DE095E00E94CF17482F50E06DE0F6
S11300D075E08D2F90E00E94050A8130D9F487E104
S11300E095E00E94CF17482F50E067E175E08C2F10
S11300F090E00E94050A813079F460910B056F5FEE
S113010060930B0582E090E00E941609813031F083
S113011080E005C080E003C080E001C081E0DF91A1
S1130120CF910895CF93DF931F92CDB7DEB7198295
S113013081E0809338050E94280D60E080E00E94F1
S1130140C90C8130F9F487ED90E00E94140D8130E0
S1130150D9F4CE0101960E94830D813059F460E0F8
S11301600E94C90C813091F4898190E00E94560D5F
S1130170813071F488EE90E00E94140D813051F0CA
S113018080E009C080E007C080E005C080E003C0D3
S113019080E001C081E00F90DF91CF9108951F931B
S11301A0CF93DF93CDB7DEB72A970FB6F894DEBFAF
S11301B00FBECDBFFE0131968AE0DF011D928A9504
S11301C0E9F71092FD041CC090E001968295880F17
S11301D0807E4AE050E0BE016F5F7F4F90E00E9456
S11301E0DE0A813081F569E275E0CE0101960E9454
S11301F0DB17813069F08091FD048F5F8093FD04EB
S11302008091FD0490910B058917F0F280E001C004
S113021081E08130D1F41091FD041295110F107E0C
S1130220105D6DE075E0CE0101960E941A1848E059
S113023050E067E175E0812F90E00E94DE0A813092
S113024031F080E005C080E003C08BE001C08AE0AB
S11302502A960FB6F894DEBF0FBECDBFDF91CF91C3
S11302601F910895CF93DF93EC018091FB0490E0FC
S11302708F509B4F0E94AB0B863009F074C0609185
S1130280FB04862F90E0FC01EF50FB4F20812D33BF
S113029009F5FC01EF50FB4F10821092FB0466E05D
S11302A081E00E94C90C813009F05FC087EF90E0C3
S11302B00E94140D813009F05AC066E00E94C90CF6
S11302C0813009F056C0BE0181EF94E00E941A18F3
S11302D087E05AC02D32B1F4EFEFE60FE093FB0450
S11302E0F0E0EF50FB4F10826B5F81E00E94C90C7D
S11302F0813009F040C080E20E94E40C8130E9F1D1
S113030080E042C06A3049F16A5F81E00E94C90C12
S11303108130A9F58091FC0481110BC0E091FB04AC
S1130320F0E0EF50FB4F80810E94E40C813049F5EE
S11303300DC08091FB04843030F48AE20E94E40C06
S1130340813009F503C081508093FB048091FB0444
S11303508F5F8093FB0481E017C0FC01EF50FB4FDB
S1130360108281E011C081E00FC080E00DC080E008
S11303700BC080E009C080E007C081E005C080E0D8
S113038003C080E001C080E0DF91CF9108954F92D7
S11303905F926F927F928F929F92AF92BF92CF9211
S11303A0DF92EF92FF921F93CF93DF93CDB7DEB727
S11303B028970FB6F894DEBF0FBECDBFFE0131966D
S11303C088E0DF011D928A95E9F787E195E00E94B4
S11303D079182B013C018EEF94E00E9479184B01AF
S11303E05C01CE0101960E940E18CE0101960E9476
S11303F03201873009F0B6C0CE0101960E94791807
S11304006B017C019B01AC01C501B4010E94E71C96
S113041088230CF56AEF70E087E091E00E942D0DCF
S113042024EF31E040E050E060E070E080E090E0F4
S11304300E9408100E94280D60E080E00E94C90C10
S1130440813009F09AC085E191E00E94140D813059
S113045009F488C094C062E271E082E391E00E94F2
S11304602D0DA7019601C301B2010E94E71C882348
S11304700CF560E471E08BE491E00E942D0D24EF13
S113048031E040E050E060E070E080E090E00E9405
S113049008100E94280D60E080E00E94C90C8130A1
S11304A009F06FC085E191E00E94140D813009F4D8
S11304B059C069C06AE571E088E691E00E942D0D9B
S11304C040E064E680E00E943C0E28EE33E040E029
S11304D050E060E070E080E090E00E94081080E06E
S11304E00E94CD0D10923A05A7019601C301B201F5
S11304F00E947A1C6B017C0187E195E00E940E1832
S113050047E155E0C701B6010E94F7181091FD04B8
S11305101295110F107E105D87E195E00E94CF17B0
S1130520482F50E067E175E0812F90E00E94050AB2
S1130530813059F567E175E086E791E00E942D0D61
S113054028EE33E040E050E060E070E080E090E0CE
S11305500E94081065E871E084E991E00E942D0D85
S113056081E014C02BE930E040E050E060E070E04E
S113057080E090E00E94081034CF80E007C080E063
S113058005C080E003C080E001C080E028960FB67B
S1130590F894DEBF0FBECDBFDF91CF911F91FF90C6
S11305A0EF90DF90CF90BF90AF909F908F907F900F
S11305B06F905F904F9008951F93CF93DF9300D077
S11305C000D01F92CDB7DEB7FE01319685E0DF0182
S11305D01D928A95E9F781E08093FC0410E0CE0136
S11305E001960E940E18CE0101960E9432018730B6
S11305F009F057C01F5F63E375E0CE0101960E94C6
S1130600DB17813009F443C0133011F568EF70E053
S113061082EA91E00E942D0D28EE33E040E050E0A4
S113062060E070E080E090E00E94081061EB71E00F
S113063082EC91E00E942D0D28EE33E040E050E082
S113064060E070E080E090E00E94081089E037C02C
S113065061ED71E082EA91E00E942D0D24EF31E01A
S113066040E050E060E070E080E090E00E9408101C
S11306700E94280D60E080E00E94C90C8130E1F402
S11306808EED91E00E94140D813059F017C062E2A2
S113069071E082E391E00E942D0D1092FC0488E049
S11306A00EC02BE930E040E050E060E070E080E014
S11306B090E00E94081093CF80E001C080E00F908A
S11306C00F900F900F900F90DF91CF911F9108958D
S11306D00E94280D60E080E00E94C90C813009F07E
S11306E04CC00E94CF008B3041F46DEE71E08DEF71
S11306F091E00E942D0D8BE008958EED91E00E9413
S1130700140D8130E1F50E94DC028930D1F188308A
S1130710D1F56EE072E08BE192E00E942D0D20EDA8
S113072037E040E050E060E070E080E090E00E945C
S1130730081067E175E086E791E00E942D0D20ED39
S113074037E040E050E060E070E080E090E00E943C
S113075008100E94280D60E080E00E94C90C8130DE
S1130760A1F485E191E00E94140D813081F40E948E
S1130770C701813069F080E0089580E0089580E049
S1130780089589E0089580E0089580E0089580E068
S11307900895AC0120E091E00AC0FB01E90FF11DCE
S11307A08081FA01E20FF11D80832F5F9F5F9A30F1
S11307B0A0F3FA01E20FF11D108220E09BE00AC0D1
S11307C0FB01E90FF11D8081FA01E20FF11D82871F
S11307D02F5F9F5F9431A0F3FA01E20FF11D12869F
S11307E090E085E10AC0FB01E80FF11D2081FA01C8
S11307F0E90FF11D248B9F5F8F5F8931A0F3FA010C
S1130800E90FF11D148A81E008951F93CF93DF93BC
S1130810CDB7DEB7DA950FB6F894DEBF0FBECDBF05
S113082081E080933A051982FE0132968FEFDF0151
S11308301D928A95E9F767E272E086E392E00E94EE
S11308402D0D0FC080E00E948508813009F089C019
S1130850BE016F5F7F4F80E00E947308813009F012
S113086082C08981882371F367E472E086E592E0AF
S11308700E942D0D60E082E10E948F1141C06CE165
S113088070E0CE0102960E947B17813009F06DC0A2
S11308908A818A32A9F58B818A3291F561E082E1FD
S11308A00E948F1165E672E082E092E00E942D0DB5
S11308B028EE33E040E050E060E070E080E090E05B
S11308C00E94081061EB71E082EC91E00E942D0D12
S11308D028EE33E040E050E060E070E080E090E03B
S11308E00E94081010923A0565E871E084E991E0ED
S11308F00E942D0DCE0102960E940E1811E038C000
S11309008A81833209F0BBCF61E082E10E948F11BA
S1130910BE016E5F7F4F8FE195E00E94C903182FDF
S1130920813029F58FE195E00E9468038B3011F046
S1130930893099F428EE33E040E050E060E070E064
S113094080E090E00E94081010923A0565E871E09A
S113095084E991E00E942D0D0BC0813049F010E034
S113096007C010E005C010E003C010E001C010E0B3
S1130970812FD3950FB6F894DEBF0FBECDBFDF91A4
S1130980CF911F91089580916100843009F4BDC016
S11309900E94920C813009F097C00E94ED0E8130C4
S11309A009F094C00E940709813009F091C00E94A7
S11309B04D17813009F08EC00E94980B813009F0E8
S11309C08BC00E94740D813009F088C00E94BC0D58
S11309D0813009F085C00E946008813009F082C02E
S11309E081ED94E00E94140D813009F07DC083EC08
S11309F094E00E94020F813009F078C06CE075E049
S1130A0080E090E00E945209813009F071C02AE030
S1130A1030E040E050E060E070E080E090E00E9470
S1130A20081080910C058A3AF9F0109260008BED61
S1130A3094E00E94CF17482F50E06BED74E08BE0F8
S1130A4090E00E94050A813009F054C060E772E02A
S1130A5081E892E00E942D0D82E992E00E94020F4B
S1130A60813009F049C02BC081E08093600048E0E8
S1130A7050E06EEF74E083E090E00E94DE0A813083
S1130A80E9F56BE075E082E090E00E945209813064
S1130A90B9F545E050E066E075E08BE090E00E9437
S1130AA0DE0A813079F565E871E084E991E00E941D
S1130AB02D0D85EA92E00E94020F813029F584E031
S1130AC08093610081E0089580E0089580E00895B6
S1130AD080E0089580E0089580E0089580E008951E
S1130AE080E0089580E0089580E0089580E008950E
S1130AF080E0089580E0089580E0089580E00895FE
S1130B0080E0089580E0089580E008950F931F9396
S1130B10CF93DF93CDB7DEB7CF5FD1090FB6F8948B
S1130B20DEBF0FBECDBF8C01CE0101962FEFFC01BD
S1130B3011922A95E9F70E941D0F853039F4B80106
S1130B40CE0101960E941A1881E005C0813011F08F
S1130B5080E001C086E0C150DF4F0FB6F894DEBFDD
S1130B600FBECDBFDF91CF911F910F910895CF9309
S1130B70DF93EC0181EB92E00E94020F8130C1F41B
S1130B80CE010E948605813029F011F0863091F45F
S1130B908630B1F38981882379F0CE010E940E1842
S1130BA08FEB92E00E94020F813021F380E005C0B8
S1130BB080E003C080E001C081E0DF91CF9108951F
S1130BC00F931F93CF938C0189EE92E00E94020F42
S1130BD0813061F5C8010E9486058130E9F011F089
S1130BE0863031F58630B1F3C0E017C0F801EC0F60
S1130BF0F11D808190ED980F9A3060F08E3251F0A3
S1130C0087EF92E00E94020F8130A1F4C8010E9494
S1130C100E1805C0CF5F01C0C0E0C73038F3C7303D
S1130C2099F6C8010E940E1881E005C080E003C057
S1130C3080E001C080E0CF911F910F9108951F9330
S1130C40CF93DF93EC0181E393E00E94020F8130A4
S1130C5099F5CE010E948605813029F011F0863085
S1130C6069F58630B1F3CE010E94CF178A30E9F0DE
S1130C7088E393E00E94020F813011F5CE010E94B7
S1130C800E18E1CFFE01E10FF11D808180538A30FF
S1130C9050F088E393E00E94020F813099F4CE0172
S1130CA00E940E1805C01F5F01C010E0193050F3F8
S1130CB0193049F681E007C080E005C080E003C038
S1130CC080E001C080E0DF91CF911F910895CF9320
S1130CD0DF93EC018BE693E00E94020F8130C1F4B4
S1130CE0CE010E948605813029F011F0863091F4FE
S1130CF08630B1F38F81882379F0CE010E940E18DB
S1130D0086E793E00E94020F813021F380E005C062
S1130D1080E003C080E001C081E0DF91CF910895BD
S1130D201F93CF93DF93CDB7DEB762970FB6F894D6
S1130D30DEBF0FBECDBFCE0101962AE0DC011D92BD
S1130D402A95E9F7FE013B9628E0DF011D922A95DA
S1130D50E9F70E941F06813059F56DE075E0CE0178
S1130D6001960E941A18CE010B960E9467068130E4
S1130D7009F567E175E0CE010B960E941A180E94EE
S1130D805000182F8130C1F480910B058130A9F4F3
S1130D908BE993E00E94020F8AEA80930C056AEAC9
S1130DA080E090E00E941609813039F010E005C01F
S1130DB010E003C010E001C010E0812F62960FB66E
S1130DC0F894DEBF0FBECDBFDF91CF911F91089580
S1130DD0CF93DF93EC010E94380F85EB93E00E94E0
S1130DE0020F813069F5CE010E948605813029F019
S1130DF011F0863039F58630B1F3BE018BED94E005
S1130E000E94DB17813039F080EC93E00E94020FDE
S1130E10813041F019C080ED93E00E94020F8130CF
S1130E20A9F40AC0CE010E940E188DED93E00E9431
S1130E30020F813091F20CC00E943C0F81E009C086
S1130E4080E007C080E005C080E003C080E001C00E
S1130E5080E0DF91CF910895CF93DF93CDB7DEB7D4
S1130E6069970FB6F894DEBF0FBECDBF80916100C5
S1130E70843009F00EC1FE0131968AE0DF011D9233
S1130E808A95E9F780916000811182C0198E188ECD
S1130E90729685E0DF011D928A95E9F7389788E01C
S1130EA0DF011D928A95E9F78091F004811109C050
S1130EB0CE0143960E94E806813009F05DC080931C
S1130EC0F0048EEF93E00E94020F813009F056C0C7
S1130ED0CE0148960E94B705888D813339F40E946B
S1130EE09006CE0148960E940E18C7C08233D1F4F2
S1130EF0CE010B960E94E005CE010B960E94CF17FF
S1130F00482F50E0BE01655F7F4F83E090E00E9470
S1130F10050A8130A9F56EEF74E0CE010B960E94AC
S1130F201A18ABC0833309F580910C058A3AA9F4E9
S1130F301092F00481E0809360000E94280D85EAFD
S1130F4092E00E94020F8130E9F465E871E084E9DF
S1130F5091E00E942D0D81E09DC080E394E00E9409
S1130F60020F813089F080E095C08EE694E00E9403
S1130F70020F813059F481C080E08CC080E08AC0C7
S1130F8080E088C080E086C081E084C080E082C0C8
S1130F9080913905813031F480913A05811102C084
S1130FA010926000CE0101960E948605813031F5D1
S1130FB060EE74E0CE0101960E94DB17813011F5DA
S1130FC080913A05813051F4809339058EE794E09D
S1130FD00E94020F813009F04AC014C010926000D0
S1130FE060E772E081E892E00E942D0D82E992E0D0
S1130FF00E94020F8130E9F180E04CC0813011F091
S11310008630C9F51B8ACE0143960E94AB0B86300D
S1131010B1F48B89813319F40E9405042EC0823304
S113102019F40E94920029C08D3239F510923805C6
S113103065E871E084E991E00E942D0D1EC0809165
S113104038058130D1F41B86CE010B960E94830DA6
S1131050813099F460E00E94C90C813031F48B85B1
S113106090E00E94560D813041F080E013C080E092
S113107011C081E00FC080E00DC024E630E040E004
S113108050E060E070E080E090E00E94081081E0B1
S113109001C085E069960FB6F894DEBF0FBECDBFE0
S11310A0DF91CF9108950E94C304813039F48FB742
S11310B080688FBF0E942C078130E1F380E008959F
S11310C080916200853071F085E890E00E94A11063
S11310D0813011F0873029F485E08093620081E04B
S11310E0089580E00895823060F46115710559F027
S11310F0E82FF0E0E55CFA4F8081FB01808381E01A
S1131100089582E0089583E008950F931F93CF9389
S1131110DF931F92CDB7DEB7823008F058C0198232
S1131120082F10E0F801ED59FF4FBE016F5F7F4FAC
S113113080810E948012813009F04BC08981813006
S113114009F504C00196A11DB11D03C080E090E023
S1131150DC01883B2BE09207A105B10598F3BE01A1
S11311606F5F7F4FF801ED59FF4F80810E9480121D
S1131170813089F58981813081F5F801E55CFA4F88
S1131180808330C0882331F081E02CC00196A11DFA
S1131190B11D03C080E090E0DC01883B2BE09207A6
S11311A0A105B10598F3BE016F5F7F4FF801ED59BA
S11311B0FF4F80810E948012813089F489818111DE
S11311C010C0F801E55CFA4F108281E00BC082E0A8
S11311D009C080E007C080E005C081E003C080E072
S11311E001C081E00F90DF91CF911F910F9108957D
S11311F09A0122273770220F232F221F330B319598
S11312002065FC012083FB01408381E008958091E7
S11312106400833051F00E94AD15853029F083E0DD
S11312208093640081E0089580E008951F93CF9334
S1131230DF9300D01F92CDB7DEB7AC016B839091E2
S11312406400933011F519821A82BE016E5F7F4FDC
S1131250CE0101960E94F808182F8130C1F421E0D4
S113126030E0AE014D5F5F4F6A8189810E94E716CD
S1131270813079F42FE030E040E050E060E070E04D
S113128080E090E00E94081005C012E003C010E066
S113129001C010E0812F0F900F900F90DF91CF913C
S11312A01F910895EF92FF921F93CF93DF9300D085
S11312B0CDB7DEB7AC0190916400933021F5611590
S11312C0710519F17B0119821A82BE016E5F7F4F8D
S11312D0CE0101960E94F808182F8130C1F421E054
S11312E030E0A7016A8189810E943617813089F430
S11312F025E030E040E050E060E070E080E090E025
S11313000E94081007C012E005C014E003C010E0FA
S113131001C010E0812F0F900F90DF91CF911F91AA
S1131320FF90EF900895EF92FF921F93CF93DF9376
S113133000D0CDB7DEB7909164009330F9F4611515
S11313407105F1F07B0190E1899FA00111241982BC
S11313501A82BE016E5F7F4FCE0101960E94F8088B
S1131360182F813079F420E130E0A7016A81898166
S11313700E94E716813039F010E005C012E003C086
S113138014E001C010E0812F0F900F90DF91CF91F6
S11313901F91FF90EF900895EF92FF921F93CF93C8
S11313A0DF9300D0CDB7DEB7909164009330F9F4A9
S11313B061157105F1F07B0190E1899FA001112471
S11313C019821A82BE016E5F7F4FCE0101960E9480
S11313D0F808182F813079F420E130E0A7016A8100
S11313E089810E943617813039F010E005C012E07F
S11313F003C014E001C010E0812F0F900F90DF9123
S1131400CF911F91FF90EF9008956F927F928F92EA
S11314109F92AF92BF92CF92DF92EF92FF920F937F
S11314201F93CF93DF9300D0CDB7DEB75C016B0180
S11314307A0180916400833009F0A1C0672B09F41C
S1131440A0C019821A82A501BE016E5F7F4FCE0132
S113145001960E94F808182F813009F094C04501C4
S113146080EF882287E098229694879496948794B4
S11314709694879496948794682C8A2D8F7051F152
S113148090E1A92EA81AB12CEA14FB0458F4970190
S1131490A6016A8189810E94E716813009F47CC023
S11314A010E07AC09501A6016A8189810E94E7163D
S11314B0813009F06AC0EA18FB082FE030E040E010
S11314C050E060E070E080E090E00E940810772433
S11314D0739403C0712CA12CB12CC70192958295F1
S11314E08F7089279F708927082F1CC00150B6016F
S11314F06A0D7B1D872D860D0E949309813009F0AA
S113150046C0739480E1E81AF10880E1A80EB11C8A
S11315102FE030E040E050E060E070E080E090E0F8
S11315200E940810101614F3E114F104A9F1A401A7
S1131530470D511D42955295507F5427407F5427A3
S1131540BE016E5F7F4FCE0101960E94F808182FEE
S11315508130F9F4A6014A0D5B1D97016A818981E6
S11315600E94E7168130B9F42FE030E040E050E00B
S113157060E070E080E090E00E9408100DC012E08E
S11315800BC014E009C010E007C010E005C010E073
S113159003C010E001C010E0812F0F900F90DF9185
S11315A0CF911F910F91FF90EF90DF90CF90BF905C
S11315B0AF909F908F907F906F9008956F927F92DD
S11315C08F929F92AF92BF92CF92DF92EF92FF924F
S11315D00F931F93CF93DF9300D0CDB7DEB75C0199
S11315E06B017A0180916400833009F084C0672B19
S11315F009F483C019821A82A501BE016E5F7F4F70
S1131600CE0101960E94F808182F813009F077C0A6
S1131610450180EF882287E09822969487949694D7
S113162087949694879496948794782C8A2D8F70B7
S1131630F9F090E1A92EA81AB12CEA14FB0458F48D
S11316409701A6016A8189810E943617813009F4C5
S11316505DC010E05BC09501A6016A8189810E948A
S11316603617813009F04DC0EA18FB0801E003C0C9
S113167000E0A12CB12CC701929582958F70892727
S11316809F70892711C0B6016A0D7B1D802F870DBD
S11316900E94CC098130B9F50F5F80E1E81AF108A6
S11316A080E1A80EB11C862D66246A94680E81110F
S11316B0EACFE114F10451F1A401400F511D429508
S11316C05295507F5427407F5427BE016E5F7F4F51
S11316D0CE0101960E94F808182F8130B1F4A601BA
S11316E04A0D5B1D97016A8189810E9436178130FA
S11316F069F010E00BC012E009C014E007C010E06C
S113170005C010E003C010E001C010E0812F0F906D
S11317100F90DF91CF911F910F91FF90EF90DF9089
S1131720CF90BF90AF909F908F907F906F900895CF
S113173080916500853071F085E890E00E94A110E9
S1131740813011F0873029F485E08093650081E0D1
S1131750089580E00895AF92BF92CF92DF92EF9206
S1131760FF920F931F93CF93DF931F92CDB7DEB7F2
S11317706C0190916500953009F050C0C114D104FA
S113178009F44EC081E0898300E043C0A02EB12C4F
S1131790F501E658FF4F60E080810E948F1181308F
S11317A009F040C010E029C0E12EF12CF701EA58FD
S11317B0FF4FBE016F5F7F4F80810E948012813096
S11317C099F58981811118C061E0F501E658FF4F50
S11317D080810E948F11813049F59701220F331FB8
S11317E0220F331F2A593F4FF901EA0DFB1D808157
S11317F0F601808386E01DC01F5F1430A8F2F50156
S1131800E658FF4F61E080810E948F11813081F49E
S11318100F5F043008F4BACF87E00BC084E009C03E
S113182083E007C080E005C080E003C080E001C021
S113183080E00F90DF91CF911F910F91FF90EF9077
S1131840DF90CF90BF90AF900895CF93C82F80FFC3
S113185005C061E08AE00E948F1104C060E08AE064
S11318600E948F11C1FF05C061E08BE00E948F11BF
S113187004C060E08BE00E948F11C2FF05C061E0EC
S11318808CE00E948F1104C060E08CE00E948F11F4
S1131890C3FF05C061E08DE00E948F1104C060E0C9
S11318A08DE00E948F11CF91089561E089E00E943C
S11318B08F1121E030E040E050E060E070E080E033
S11318C090E00E94081060E089E00E948F11089562
S11318D0CF93C82F60E087E00E948F118C2F8295F0
S11318E08F700E94250C0E94550C21E030E040E0EE
S11318F050E060E070E080E090E00E9408108C2FDF
S11319008F700E94250C0E94550C22E030E040E0CC
S113191050E060E070E080E090E00E94081081E018
S1131920CF91089580917E00863091F185E890E012
S11319300E94A110813011F0873049F524E130E094
S113194040E050E060E070E080E090E00E94081029
S113195060E087E00E948F1160E089E00E948F11AF
S113196083E30E94680C82E30E94680C88E20E9470
S1131970680C8CE00E94680C86E00E94680C81E090
S11319800E94680C86E080937E0081E0089580E0E8
S1131990089590917E00963089F4833088F4613103
S11319A088F4282F30E02E5F3F4F862F90E4299F44
S11319B0800D11240E94680C81E0089585E008954B
S11319C083E0089582E00895CF9390917E0096304D
S11319D041F5C82F61E087E00E948F118C2F82951A
S11319E08F700E94250C0E94550C21E030E040E0ED
S11319F050E060E070E080E090E00E9408108C2FDE
S1131A008F700E94250C0E94550C22E030E040E0CB
S1131A1050E060E070E080E090E00E94081081E017
S1131A2001C085E0CF910895CF93DF93EC018091BD
S1131A307E00863049F403C021960E94E40C88811C
S1131A408111FACF81E001C085E0DF91CF91089543
S1131A5081E00E94680C81E008950F931F93CF9357
S1131A60DF93EC018B010E94280D60E080E00E946E
S1131A70C90C813089F4CE010E94140D813071F4B7
S1131A8060E00E94C90C813059F4C8010E94140D11
S1131A90813039F080E005C080E003C080E001C0FF
S1131AA080E0DF91CF911F910F910895CF93DF9341
S1131AB0CDB7DEB761970FB6F894DEBF0FBECDBFCA
S1131AC041E0BE016F5F7F4F0E942B18CE0101964B
S1131AD00E94140D81E061960FB6F894DEBF0FBE2C
S1131AE0CDBFDF91CF91089580917F00853051F073
S1131AF00E94430F813029F485E080937F0081E0C8
S1131B00089580E008950F931F93CF93DF9300D03F
S1131B1000D0CDB7DEB79C0190917F009530F1F4F1
S1131B2021153105E9F0890119821A821B821C8270
S1131B30BE016F5F7F4F80E00E946B0F813091F494
S1131B4069817A818B819C812AE030E040E050E019
S1131B500E94C01EF801208381E005C084E003C018
S1131B6083E001C080E00F900F900F900F90DF9101
S1131B70CF911F910F91089580918000863049F094
S1131B800E940E1A813039F486E08093800081E04F
S1131B90089586E0089580E00895DF92EF92FF9221
S1131BA00F931F93CF93DF9381115DC0D82E082F1D
S1131BB010E07801EE0CFF1CEE0CFF1CC701800F37
S1131BC0911FEC01CA51DB4F60E089810E948F11A3
S1131BD060E08A810E948F11E0E01CC0ED15C9F01D
S1131BE0D801AA0FBB1FAA0FBB1FA00FB11FAA5178
S1131BF0BB4F2C918E2F90E0DC01AA0FBB1FAA0FC4
S1131C00BB1F8A0F9B1FDC01AA51BB4F8C91281765
S1131C1019F0EF5FEE2311F3E13069F4F801EE0FF0
S1131C20FF1FEE0FFF1FE00FF11FEA51FB4F8081F2
S1131C300E945E1B12C0F0E0E45CFA4F80818111C7
S1131C400CC0F801EE0FFF1FEE0FFF1FE00FF11F96
S1131C50EA51FB4F80810E945E1BF801E45CFA4F5D
S1131C60108281E001C082E0DF91CF911F910F913A
S1131C70FF90EF90DF900895FF920F931F93CF93FF
S1131C80DF9390918000963009F057C0811157C0BE
S1131C90653608F056C0423008F055C0082F10E0F1
S1131CA0F801E45CFA4F9081913009F44EC0F62EAD
S1131CB0611104C00E94CD0D81E048C0411112C0E1
S1131CC025E0209FC001219F900D1124EC01CA51F1
S1131CD0DB4F61E089810E948F1160E08A810E945C
S1131CE08F1113C0413089F425E0209FC001219F4A
S1131CF0900D1124EC01CA51DB4F60E089810E94F0
S1131D008F1161E08A810E948F11F801E45CFA4F1F
S1131D1081E08083F801EE0FFF1FEE0FFF1FE00F3D
S1131D20F11FEA51FB4F4381548160E070E02F2D95
S1131D3080810E942A1A81E009C087E007C082E0FE
S1131D4005C083E003C084E001C085E0DF91CF914A
S1131D501F910F91FF900895CF93DF93C0913E059B
S1131D60D0E00E94031CC15CDA4F888390913E0549
S1131D70E92FF0E0E15CFA4F80818D3071F40E942C
S1131D80BC1BE0913E05F0E0E15CFA4F108210923A
S1131D903E0581E080933D051DC0883051F49923B0
S1131DA041F00E94BC1B80913E05815080933E050A
S1131DB011C0883079F090913E06913021F48AE286
S1131DC00E94BC1B02C00E94BC1B80913E058F5F19
S1131DD080933E05DF91CF910895809181008330F7
S1131DE081F00E94A61B813011F0873049F48CEAFF
S1131DF09EE00E94EE1B83E08093810081E00895C1
S1131E0080E00895CF93DF93009781F020918100C3
S1131E10223079F0EC010E94CF17682F70E0CE01D8
S1131E200E94C71B813021F020E003C024E001C0E0
S1131E3021E0822FDF91CF910895BC01892BA1F07D
S1131E4080918100823099F080913D05813071F458
S1131E5010923D058FE395E00E941A188FE395E0F8
S1131E600E940E1885E0089584E0089581E00895A5
S1131E7081E080933E06089510923E0681E0089525
S1131E800E945308FFCF80918200873011F120E037
S1131E9013C03BB3E22FF0E0EE0FFF1FED57FF4FEF
S1131EA081E090E0008002C0880F991F0A94E2F755
S1131EB0809583238BBB2F5F222359F397E096B938
S1131EC086B18F7D86B986B186B99093820081E010
S1131ED0089588E00895CF92DF92EF92FF92CF9316
S1131EE0DF9390918200973009F061C0611571050C
S1131EF009F45FC037B190E0FC01EE0FFF1FED570E
S1131F00FF4F2081232B27B947B1318150E4359FFE
S1131F1090011124242B27B926B1206826B926B1B3
S1131F20206426B9349BFECF44B125B130E0322F72
S1131F302227242B880F991FFC01ED57FF4F818125
S1131F40833041F0813069F08823A1F0C12CD12C79
S1131F50760118C0C12CD12C76016894E5F8F6F806
S1131F6011C00F2EC12CF0E4DF2EFCE9EF2EFD2C66
S1131F70F02D08C00F2EC12CF0E4DF2EFCE9EF2E6B
S1131F80FD2CF02DEB01B90180E090E00E948D1D45
S1131F90A70196010E943F1E0E945E1D68837983FB
S1131FA08A839B8386B1806186B981E003C086E021
S1131FB001C085E0DF91CF91FF90EF90DF90CF904B
S1131FC008951F920F920FB60F9211242F933F93EF
S1131FD04F935F936F937F938F939F93AF93BF932D
S1131FE0EF93FF93E0913F06F09140060995FF912E
S1131FF0EF91BF91AF919F918F917F916F915F917D
S11320004F913F912F910F900FBE0F901F901895F5
S11320102F923F924F925F926F927F928F929F92F4
S1132020AF92BF92CF92DF92EF92FF920F931F93E2
S1132030CF93DF9300D000D000D0CDB7DEB7222EEF
S1132040332E442E552E662E79838A839B83912CBE
S11320501D821C82B0E0F0E0E0E0712C812C44C0D1
S11320602D2D3E2D4F2D502F612F7A2F8B2D9C2DF2
S1132070A1E00E94F71ED22EE32EF42E052F162F78
S1132080A72FB82EC92E0AC0D12CE12CF12C00E0C8
S113209010E0A0E0B12CC12CAD80EE832D2D3E2D9F
S11320A04F2D502F612F7A2F8B2D9C2D2B383105DE
S11320B041055105610571058105910589F280F29B
S11320C0EE81292D3A2D4C815B2F6F2F7E2F872D8A
S11320D0982DA1E00E94F71E922E3D834C83B52FCC
S11320E0F62FE72F782E892E292D3D814C815B2FE9
S11320F06F2F7E2F872D982DA22CB32CC42CD52C7A
S1132100E62CF9800A811B810E94031F08F4BCCFCE
S113211026960FB6F894DEBF0FBECDBFDF91CF91E8
S11321201F910F91FF90EF90DF90CF90BF90AF90F1
S11321309F908F907F906F905F904F903F902F90E3
S11321400895AC01892B09F4E4C090E0D7C0E92FCD
S1132150F0E0EE0FFF1FEE0FFF1FE40FF51F3181BC
S1132160383008F0D8C020812130C1F138F0223055
S113217009F464C0233009F491C0CFC02AB361E0EC
S113218070E0DB0102C0AA0FBB1F3A95E2F78A2F69
S1132190809582238ABBAAB38281282F30E00180F4
S11321A002C0220F331F0A94E2F72A2B2ABB8BB3F7
S11321B0018002C0660F771F0A94E2F760956823D6
S11321C06BBB6BB38381282F30E0018002C0220FE8
S11321D0331F0A94E2F7262B2BBB8FC027B361E091
S11321E070E0DB0102C0AA0FBB1F3A95E2F78A2F09
S11321F08095822387BBA7B38281282F30E001809A
S113220002C0220F331F0A94E2F72A2B27BB88B39C
S1132210018002C0660F771F0A94E2F76095682375
S113222068BB68B38381282F30E0018002C0220F8D
S1132230331F0A94E2F7262B28BB5FC024B361E066
S113224070E0DB0102C0AA0FBB1F3A95E2F78A2FA8
S11322508095822384BBA4B38281282F30E001803F
S113226002C0220F331F0A94E2F72A2B24BB85B342
S1132270018002C0660F771F0A94E2F76095682315
S113228065BB65B38381282F30E0018002C0220F33
S1132290331F0A94E2F7262B25BB2FC021B361E03C
S11322A070E0DB0102C0AA0FBB1F3A95E2F78A2F48
S11322B08095822381BBA1B38281282F30E00180E5
S11322C002C0220F331F0A94E2F72A2B21BB82B3E8
S11322D0018002C0660F771F0A94E2F760956823B5
S11322E062BB62B38381282F30E0018002C0220FD9
S11322F0331F0A94E2F7262B22BB9F5F943108F424
S113230026CF509343064093420681E080934106D2
S1132310089585E0089583E0089584E00895853163
S113232008F090C090914106992309F48DC0E82FDC
S1132330F0E0CF01880F991F880F991FE0914206A2
S1132340F0914306E80FF91F8081813021F130F0CC
S11323508230F1F1833009F458C078C0613069F4F7
S11323602BB381E090E0018002C0880F991F0A948A
S1132370E2F7822B8BBB81E008952BB381E090E0E0
S1132380018002C0880F991F0A94E2F78095822386
S11323908BBB81E00895613069F428B381E090E05B
S11323A0018002C0880F991F0A94E2F7822B88BB30
S11323B081E0089528B381E090E0018002C0880F95
S11323C0991F0A94E2F78095822388BB81E00895DF
S11323D0613069F425B381E090E0018002C0880F88
S11323E0991F0A94E2F7822B85BB81E0089525B3F7
S11323F081E090E0018002C0880F991F0A94E2F7FF
S11324008095822385BB81E00895613069F422B30D
S113241081E090E0018002C0880F991F0A94E2F7DE
S1132420822B82BB81E0089522B381E090E0018099
S113243002C0880F991F0A94E2F78095822382BB19
S113244081E0089582E0089586E0089584E0089587
S1132450853108F04FC090914106992309F44CC08E
S1132460E82FF0E0CF01880F991F880F991FE091A2
S11324704206F0914306E80FF91F8081813099F0FC
S113248028F08230E9F0833041F138C02BB381E089
S113249090E0018002C0880F991F0A94E2F7822716
S11324A08BBB81E0089528B381E090E0018002C0F5
S11324B0880F991F0A94E2F7822788BB81E0089568
S11324C025B381E090E0018002C0880F991F0A942F
S11324D0E2F7822785BB81E0089522B381E090E092
S11324E0018002C0880F991F0A94E2F7822782BBF9
S11324F081E0089582E0089586E0089584E00895D7
S1132500853108F07CC090914106992309F479C083
S1132510E82FF0E0CF01880F991F880F991FE091F1
S11325204206F0914306E80FF91F80818130F9F0EB
S113253030F08230A1F1833009F449C064C049B35A
S1132540518181E090E09C01052E02C0220F331FCF
S11325500A94E2F7842F90E08223932302C0959596
S113256087955A95E2F7FB01808381E0089546B38D
S1132570518181E090E09C01052E02C0220F331F9F
S11325800A94E2F7842F90E08223932302C0959566
S113259087955A95E2F7FB01808381E0089543B360
S11325A0518181E090E09C01052E02C0220F331F6F
S11325B00A94E2F7842F90E08223932302C0959536
S11325C087955A95E2F7FB01808381E0089540B333
S11325D0518181E090E09C01052E02C0220F331F3F
S11325E00A94E2F7842F90E08223932302C0959506
S11325F087955A95E2F7FB01808381E0089582E094
S1132600089586E0089584E008951F920F920FB60E
S11326100F9211242F933F934F935F936F937F9364
S11326208F939F93AF93BF93EF93FF93E0914806EB
S1132630F09149060995FF91EF91BF91AF919F9158
S11326408F917F916F915F914F913F912F910F9057
S11326500FBE0F901F9018951F920F920FB60F92F6
S113266011242F933F934F935F936F937F938F9393
S11326709F93AF93BF93EF93FF93E0914606F0913E
S113268047060995FF91EF91BF91AF919F918F916B
S11326907F916F915F914F913F912F910F900FBE5A
S11326A00F901F9018951F920F920FB60F9211243E
S11326B02F933F934F935F936F937F938F939F9346
S11326C0AF93BF93EF93FF93E0914406F0914506D7
S11326D00995FF91EF91BF91AF919F918F917F9158
S11326E06F915F914F913F912F910F900FBE0F907B
S11326F01F90189590E00EC0292F30E0F901EE0FDD
S1132700FF1F2E0F3F1FF901E551FB4F20812817B2
S113271019F09F5F992381F3892F90E0FC01EE0F5C
S1132720FF1FEE0FFF1FE55BF94F4081518162816E
S11327307381411551056105710581F0880F991F59
S1132740880F991FFC01E55BF94F4150510961095C
S113275071094083518362837383089523B72E7F65
S113276023BF23B72D7F23BF23B72B7F23BF29B7D5
S11327702E7F29BFFC01E15BF94F24E02083E09127
S11327805006F09151060995089580914A068130CA
S113279061F120E024C0822F90E0FC01EE0FFF1FC6
S11327A0E80FF91FE551FB4F3081332319F0333023
S11327B0F0F40FC0FC01EE0FFF1FE80FF91FE55105
S11327C0FB4F3281311105C013BE39B73C7F39BF8D
S11327D012BEFC01E15BF94F31E030832F5F22230D
S11327E0D1F281E080934A06089583E0089585E05C
S11327F008950F931F93CF93DF93890181114AC0EA
S1132800C82FD0E0FE01E15BF94F8081882309F4F1
S113281043C0823009F442C082E0FE01E15BF94F1B
S11328208083FE01EE0FFF1FEC0FFD1FE551FB4FF0
S11328308081882321F0833098F185E034C0CB0176
S1132840BA012FEF30E040E050E00E94C01EFE01CC
S1132850EE0FFF1FEE0FFF1FE55BF94F208331835F
S113286042835383262F372F89B7816089BF109302
S1132870510600935006CE01880F991FC80FD91F27
S1132880C551DB4F898183BF232B61F0619562BF02
S113289081E009C086E007C082E005C087E003C08C
S11328A081E001C081E0DF91CF911F910F910895E4
S11328B0811123C090E0FC01E15BF94F20812223C8
S11328C0F1F02230F1F4FC01EE0FFF1FE80FF91FC5
S11328D0E551FB4F2081222319F02330A0F406C0D8
S11328E023B7287F23BF29B72C7F29BFFC01E15BD5
S11328F0F94F23E0208381E0089586E0089582E083
S1132900089588E0089585E008951F920F920FB608
S11329100F9211242F933F934F935F936F937F9361
S11329208F939F93AF93BF93EF93FF9380E00E94A5
S11329307A13FF91EF91BF91AF919F918F917F9106
S11329406F915F914F913F912F910F900FBE0F9018
S11329501F9018951F920F920FB60F9211242F9368
S11329603F934F935F936F937F938F939F93AF9313
S1132970BF93EF93FF9380E00E947A13FF91EF914E
S1132980BF91AF919F918F917F916F915F914F9183
S11329903F912F910F900FBE0F901F9018951F928B
S11329A00F920FB60F9211242F933F934F935F937F
S11329B06F937F938F939F93AF93BF93EF93FF9303
S11329C081E00E947A13FF91EF91BF91AF919F91A3
S11329D08F917F916F915F914F913F912F910F90C4
S11329E00FBE0F901F9018951F920F920FB60F9263
S11329F011242F933F934F935F936F937F938F9300
S1132A009F93AF93BF93EF93FF9381E00E947A1358
S1132A10FF91EF91BF91AF919F918F917F916F91B2
S1132A205F914F913F912F910F900FBE0F901F9088
S1132A3018951F920F920FB60F9211242F933F9364
S1132A404F935F936F937F938F939F93AF93BF93B2
S1132A50EF93FF9381E00E947A13FF91EF91BF916E
S1132A60AF919F918F917F916F915F914F913F9122
S1132A702F910F900FBE0F901F9018951F920F92D9
S1132A800FB60F9211242F933F934F935F936F933D
S1132A907F938F939F93AF93BF93EF93FF9381E0C3
S1132AA00E947A13FF91EF91BF91AF919F918F9103
S1132AB07F916F915F914F913F912F910F900FBE36
S1132AC00F901F9018951F920F920FB60F9211241A
S1132AD02F933F934F935F936F937F938F939F9322
S1132AE0AF93BF93EF93FF9382E00E947A13FF9119
S1132AF0EF91BF91AF919F918F917F916F915F9172
S1132B004F913F912F910F900FBE0F901F901895EA
S1132B101F920F920FB60F9211242F933F934F934E
S1132B205F936F937F938F939F93AF93BF93EF9331
S1132B30FF9382E00E947A13FF91EF91BF91AF91CE
S1132B409F918F917F916F915F914F913F912F91C1
S1132B500F900FBE0F901F9018958091D50086306E
S1132B6049F082E081B989E080B986E08093D5009C
S1132B7081E0089587E008958091D500863059F466
S1132B8084EA86BF06B607FEFDCF81B1887F883010
S1132B9021F080E0089585E0089581E00895909102
S1132BA0D500963029F5623028F588232CF190E081
S1132BB0880F991F682B63B984E886BF06B607FEA1
S1132BC0FDCF81B1887F883359F028F48831B1F082
S1132BD0803241F00BC0803489F0883429F006C07B
S1132BE088E3089580E2089588E4089580E00895D4
S1132BF085E0089582E0089583E0089581E00895D2
S1132C008091D500863059F484EA86BF06B607FE63
S1132C10FDCF81B1887F803121F080E0089585E087
S1132C20089581E008958091D500863039F484E9CF
S1132C3086BF06B604FCFDCF81E0089585E00895C3
S1132C409091D500963069F483B984E886BF06B6BE
S1132C5007FEFDCF81B1887F883229F0803329F4C3
S1132C60089585E0089588E2089580E00895FC01C0
S1132C709091D500963079F4309779F084EC86BF42
S1132C8006B607FEFDCF81B1887F803541F483B15C
S1132C90808381E0089585E0089584E0089580E0CC
S1132CA00895FC019091D500963079F4309779F02D
S1132CB084E886BF06B607FEFDCF81B1887F8835DC
S1132CC041F483B1808381E0089585E0089584E030
S1132CD0089580E008957F928F929F92AF92BF9261
S1132CE0CF92DF92EF92FF920F931F93CF93DF93D4
S1132CF0782EEB017A0169018091D500863009F0C4
S1132D0047C0209709F446C0232B09F445C0772017
S1132D100CF444C00E94BC15882309F44AC060E046
S1132D20872D0E94CF158130D9F50BC04E018FEF4E
S1132D30881A980A88810E94201675018823C9F18F
S1132D40E401570181E0A81AB108EF2879F70E943D
S1132D500016813039F561E0872D0E94CF1581304E
S1132D6019F508C0E6012196C6010E943716813084
S1132D70E9F46E0101501109A9F7C6010E94511628
S1132D808130B1F40E941316813099F080E011C0B3
S1132D9085E00FC084E00DC084E00BC083E009C06F
S1132DA080E007C080E005C080E003C080E001C08F
S1132DB080E0DF91CF911F910F91FF90EF90DF9012
S1132DC0CF90BF90AF909F908F907F900895BF92C7
S1132DD0CF92DF92EF92FF920F931F93CF93DF93E3
S1132DE0182F062FEA0179018091D500863059F514
S1132DF0209759F111235CF10E94BC15882361F1DD
S1132E0060E0812F0E94CF15B82E81E0B81221C056
S1132E10802F0E94201681110CC01EC06E018FEFFE
S1132E20C81AD80A88810E94201678018823A1F044
S1132E30E601870101501109EF2881F70E9413165A
S1132E40811109C009C085E007C084E005C083E0A2
S1132E5003C080E001C08B2DDF91CF911F910F91B2
S1132E60FF90EF90DF90CF90BF9008950F931F9342
S1132E70CF93DF931F92CDB7DEB7698389019A019F
S1132E8041E050E0BE016F5F7F4F0E946B160F90D0
S1132E90DF91CF911F910F9108958091D6008730D3
S1132EA0B9F087B3806487BB87B38F7D87BB87B353
S1132EB08F7E87BB87B38F7787BB8DB18F7E8DB9AC
S1132EC08DB180648DB987E08093D60081E0089548
S1132ED088E00895FC019091D600973041F4309732
S1132EE041F0779BFECF8FB1808381E0089586E027
S1132EF0089585E00895CF92DF92EF92FF921F9399
S1132F00CF93DF936C019091D6009730B1F47B019D
S1132F1010E00CC0E601C80FD91FCE010E946A1749
S1132F20813069F49881992359F01F5F812F90E0D3
S1132F308E159F0578F381E003C086E001C080E030
S1132F40DF91CF911F91FF90EF90DF90CF90089584
S1132F501F920F920FB60F9211242F933F934F930A
S1132F605F936F937F938F939F93AF93BF93EF93ED
S1132F70FF93E0915206F09153060995FF91EF916A
S1132F80BF91AF919F918F917F916F915F914F917D
S1132F903F912F910F900FBE0F901F901895AC0189
S1132FA080E001C08F5FFA01E80FF11D208121113B
S1132FB0F9CF8F5F0895FF920F931F93CF93DF9301
S1132FC08C01EB010E94CF17F82ECE010E94CF177F
S1132FD08F15B8F0F816B8F030E009C0FE01E80F1C
S1132FE0F91F8081821788F0281788F03F5F832FAC
S1132FF090E0F801E80FF91F20812111EFCF81E063
S113300007C082E005C083E003C082E001C083E022
S1133010DF91CF911F910F91FF900895AC0190E043
S113302002C09F5F1082FA01E90FF11D2081211176
S1133030F8CF0895DC0190E005C0FB01E20FF31F17
S113304040839F5F292F30E0FD01E20FF31F408191
S11330504111F3CF08950F931F93CF93DF93FC0196
S11330608B01413009F040C0C0E0D0E06AE070E07C
S11330700E94AC1ECB01009711F02196F7CFDE0120
S11330801196A00FB11F1C922DC0A8014C0F5D1FFB
S11330909F01ADECBCEC0E94E81E96958795969531
S11330A08795969587959C01220F331F880F991F4A
S11330B0880F991F880F991F820F931F9F01281B48
S11330C0390BC901805DDA018C939F01ADECBCEC36
S11330D00E94E81EFC01F695E795F695E795F695AE
S11330E0E7952197309789F6DF91CF911F910F9142
S11330F008958F929F92AF92BF92CF92DF92EF92F8
S1133100FF920F931F93CF93DF93EC010E94CF178D
S11331100FEF080FC12CD12C760110E01EC0FE0168
S1133120E10FF11D60816E3211F41F5F18C070E071
S113313060537109072E000C880B990B0E948F1D98
S1133140A70196010E947B1C20E030E040E251E49C
S11331500E943F1E6B017C011F5F101700F320E0EB
S113316030E040E251E4C701B6010E94EC1C4B017F
S11331705C010F2EC12CD12CF0E8EF2EFFE3FF2EC3
S1133180F02D24C020E030E040E251E4C701B60154
S11331900E94EC1C6B017C01FE01E10FF11D6081BA
S11331A070E060537109072E000C880B990B0E9484
S11331B08F1DA70196010E943F1E9B01AC01C50112
S11331C0B4010E947B1C4B015C011F5F1017D0F2FD
S11331D0C501B401DF91CF911F910F91FF90EF9042
S11331E0DF90CF90BF90AF909F908F9008958F9273
S11331F09F92AF92BF92CF92DF92EF92FF920F9382
S11332001F93CF93DF934B015C018A010E945E1DE3
S1133210C62ED72EE82EF92E262F372F482F592FBA
S1133220D0E009C0CA01B9012AE030E040E050E032
S11332300E94C01EDF5F211531054105510591F73C
S1133240CFEFCD0F6C2D7D2D8E2D9F2D14C02AE038
S113325030E040E050E00E94C01EDC01CB01C0968B
S1133260A11DB11DF801EC0FF11D8083622F732F96
S1133270842F952FC150611571058105910539F78A
S11332806C2D7D2D8E2D9F2D0E948D1D9B01AC01DB
S1133290C501B4010E947A1C20E030E040E251E410
S11332A00E943F1E6B017C010E945E1D21E02D0FD8
S11332B0F801ED0FF11D3EE23083DE5FF801E20F0D
S11332C0F11D20E3260F20830E948D1D9B01AC017C
S11332D0C701B6010E947A1C20E030E040E251E4CC
S11332E00E943F1E0E945E1DF801ED0FF11D605DFE
S11332F06083DF91CF911F910F91FF90EF90DF904A
S1133300CF90BF90AF909F908F9008950F931F938D
S1133310E0915506F0E0EE0FFF1FE251FB4F808174
S11333200E942812813009F076C08091550690E001
S11333309C01220F331FF901EE0FFF1FEE0FFF1F39
S1133340EE0FFF1FE21BF30BEA5AF94F25852230DB
S113335009F061C0880F991FFC01EE0FFF1FEE0FEB
S1133360FF1FEE0FFF1FE81BF90BEA5AF94F4185C7
S1133370528563857485FC01E251FB4F26E839E1EF
S113338081810E94F913813009F045C0809155066E
S113339090E09C01220F331FF901EE0FFF1FEE0F87
S11333A0FF1FEE0FFF1FE21BF30BEA5AF94F0185D3
S11333B0128523853485458156816781708504177C
S11333C0150726073707B1F4880F991FFC01EE0F84
S11333D0FF1FEE0FFF1FEE0FFF1FE81BF90BEA5A4A
S11333E0F94F81819281A381B48181879287A387D8
S11333F0B48711C0880F991FFC01EE0FFF1FEE0F59
S1133400FF1FEE0FFF1FE81BF90BEA5AF94F418724
S11334105287638774871F910F9108958091540692
S1133420813091F00E94C513813011F0833071F422
S113343085E890E00E94A110813011F0873041F4BA
S113344081E080935406089580E0089580E0089513
S113345080E008954F925F926F927F928F929F9235
S1133460AF92BF92CF92DF92EF92FF920F931F938E
S1133470CF93DF9300D000D000D0CDB7DEB79091CA
S11334805406913009F0F2C08111F2C0253608F0DB
S1133490F1C0E82FF0E0FE83ED83DF01AA0FBB1F2C
S11334A0FD01EE0FFF1FEE0FFF1FEE0FFF1FEA1BC4
S11334B0FB0BEA5AF94F9585923009F4DDC02223BB
S11334C009F4DCC0122FC82E243661F4FD01E25148
S11334D0FB4F61E080810E948F11813009F4D0C0DC
S11334E080E0D5C0CB01BA010E948D1D9B01AC01C7
S11334F060E070E080E89FE30E94EC1C4B015C01FB
S1133500612F70E080E090E00E948F1DA50194017E
S11335100E943F1E20E030E048EC52E40E94EC1C84
S11335202B013C019B01AC01C501B4010E947A1C32
S11335304B015C01ED81FE81EE0FFF1FE251FB4F59
S1133540D1808D2D90E0FC01EE0FFF1F8E0F9F1F89
S1133550FC01E551FB4FE1818E2F90E0FC01319796
S1133560E730F10508F08EC0E65DFF4F0C94E21ED3
S113357061E070E00BC060E470E008C060E071E0FE
S113358005C060E074E002C068E070E080E090E0B4
S11335900E948D1D20E034E244E759E40E94EC1CB3
S11335A069837A838B839C83C09255069B01AC010B
S11335B0C301B2010E94EC1CED80FE80EE0CFF1CE6
S11335C08701000F111F000F111F000F111F0E198B
S11335D01F090A5A194F0E945E1DF8016183728304
S11335E08383948329813A814B815C81C501B40131
S11335F00E94EC1C0E945E1DF8016583768387831C
S11336009087C082F701E251FB4F61E080810E9404
S11336108F118130C9F58EE02D813E81829FF001AA
S1133620839FF00D1124EA5AF94F4181528163813D
S1133630748126E839E18D2D0E94F913813031F52A
S11336408EE02D813E81829FF001839FF00D112435
S1133650EA5AF94F85819681A781B085818792873F
S1133660A387B48782E0858781E011C082E00FC020
S113367083E00DC084E00BC085E009C081E007C091
S113368081E005C080E003C080E001C080E02696B0
S11336900FB6F894DEBF0FBECDBFDF91CF911F915F
S11336A00F91FF90EF90DF90CF90BF90AF909F90DD
S11336B08F907F906F905F904F900895CF93DF939A
S11336C0909154069130B1F5811136C0C82FD0E0E5
S11336D0CE01880F991FFC01EE0FFF1FEE0FFF1F95
S11336E0EE0FFF1FE81BF90BEA5AF94F858582306C
S11336F029F5FE01EE0FFF1FE251FB4F60E08081D0
S11337000E948F118130E1F48EE08C9FF0018D9F37
S1133710F00D1124EA5AF94F83E08587FE01EE0F7C
S1133720FF1FE251FB4F81810E945814813051F0F8
S113373080E009C082E007C083E005C085E003C0E3
S113374080E001C081E0DF91CF910895809164060B
S1133750813081F010BC87E689B982E08BB988E1B9
S11337608AB980E880BD80B5866880BD81E0809399
S11337706406089587E0089590916406992329F0DA
S11337805D9BFECF8CB981E0089586E00895EF92A9
S1133790FF920F931F93CF93DF932091640622230C
S11337A099F08B017C01C0E0D0E009C0F701EC0F77
S11337B0FD1F80810E94BC1B813041F42196C017FB
S11337C0D107A0F381E003C086E001C080E0DF916F
S11337D0CF911F910F91FF90EF9008959C019091CC
S11337E06406992361F02115310559F08AB1806886
S11337F08AB9309368062093670681E0089586E0CD
S1133800089585E008958CB108951F920F920FB624
S11338100F9211242F933F934F935F936F937F9352
S11338208F939F93AF93BF93EF93FF93E0916906B8
S1133830F0916A060995FF91EF91BF91AF919F9125
S11338408F917F916F915F914F913F912F910F9045
S11338500FBE0F901F9018951F920F920FB60F92E4
S113386011242F933F934F935F936F937F938F9381
S11338709F93AF93BF93EF93FF93E0916706F0910B
S113388068060995FF91EF91BF91AF919F918F9138
S11338907F916F915F914F913F912F910F900FBE48
S11338A00F901F9018951F920F920FB60F9211242C
S11338B02F933F934F935F936F937F938F939F9334
S11338C0AF93BF93EF93FF93E0916506F091660683
S11338D00995FF91EF91BF91AF919F918F917F9146
S11338E06F915F914F913F912F910F900FBE0F9069
S11338F01F9018955058BB27AA270E94921C0C941D
S1133900051E0E94F71D38F00E94FE1D20F039F4B8
S11339109F3F19F426F40C94F41D0EF4E095E7FB94
S11339200C94EE1DE92F0E94161E58F3BA17620775
S113393073078407950720F079F4A6F50C94381ED4
S11339400EF4E0950B2EBA2FA02D0B01B9019001B6
S11339500C01CA01A0011124FF27591B99F0593FFA
S113396050F4503E68F11A16F040A22F232F342F42
S11339704427585FF3CF469537952795A795F04090
S11339805395C9F77EF41F16BA0B620B730B840BA5
S1133990BAF09150A1F0FF0FBB1F661F771F881F5D
S11339A0C2F70EC0BA0F621F731F841F48F48795B5
S11339B077956795B795F7959E3F08F0B0CF9395A7
S11339C0880F08F09927EE0F9795879508950E9420
S11339D0CA1D08F481E008950E94001D0C94051E80
S11339E00E94FE1D58F00E94F71D40F029F45F3F2D
S11339F029F00C94EE1D51110C94391E0C94F41DF5
S1133A000E94161E68F39923B1F3552391F3951B75
S1133A10550BBB27AA2762177307840738F09F5FEB
S1133A205F4F220F331F441FAA1FA9F335D00E2E58
S1133A303AF0E0E832D091505040E695001CCAF7C5
S1133A402BD0FE2F29D0660F771F881FBB1F261788
S1133A5037074807AB07B0E809F0BB0B802DBF015F
S1133A60FF2793585F4F3AF09E3F510578F00C942E
S1133A70EE1D0C94391E5F3FE4F3983ED4F3869513
S1133A8077956795B795F7959F5FC9F7880F911D4F
S1133A909695879597F90895E1E0660F771F881F3B
S1133AA0BB1F621773078407BA0720F0621B730BEE
S1133AB0840BBA0BEE1F88F7E09508950E941E1E32
S1133AC088F09F5798F0B92F9927B751B0F0E1F0DB
S1133AD0660F771F881F991F1AF0BA95C9F714C08B
S1133AE0B13091F00E94381EB1E008950C94381E54
S1133AF0672F782F8827B85F39F0B93FCCF38695C4
S1133B0077956795B395D9F73EF490958095709520
S1133B1061957F4F8F4F9F4F0895E89409C097FB9D
S1133B203EF490958095709561957F4F8F4F9F4F90
S1133B309923A9F0F92F96E9BB279395F6958795D4
S1133B4077956795B795F111F8CFFAF4BB0F11F497
S1133B5060FF1BC06F5F7F4F8F4F9F4F16C088233E
S1133B6011F096E911C0772321F09EE8872F762F74
S1133B7005C0662371F096E8862F70E060E02AF0B5
S1133B809A95660F771F881FDAF7880F96958795A1
S1133B9097F90895990F0008550FAA0BE0E8FEEF76
S1133BA016161706E807F907C0F012161306E407FD
S1133BB0F50798F0621B730B840B950B39F40A26F6
S1133BC061F0232B242B252B21F408950A2609F4D4
S1133BD0A140A6958FEF811D811D089597F99F67D8
S1133BE080E870E060E008959FEF80EC0895002481
S1133BF00A941616170618060906089500240A944E
S1133C0012161306140605060895092E0394000CD3
S1133C1011F4882352F0BB0F40F4BF2B11F460FF62
S1133C2004C06F5F7F4F8F4F9F4F089557FD90588B
S1133C30440F551F59F05F3F71F04795880F97FB6C
S1133C40991F61F09F3F79F0879508951216130626
S1133C501406551FF2CF4695F1DF08C01616170655
S1133C601806991FF1CF869571056105089408958A
S1133C70E894BB2766277727CB0197F908950E941C
S1133C80521E0C94051E0E94F71D38F00E94FE1D62
S1133C9020F0952311F00C94EE1D0C94F41D1124C6
S1133CA00C94391E0E94161E70F3959FC1F3950F54
S1133CB050E0551F629FF001729FBB27F00DB11DAC
S1133CC0639FAA27F00DB11DAA1F649F6627B00D3C
S1133CD0A11D661F829F2227B00DA11D621F739F25
S1133CE0B00DA11D621F839FA00D611D221F749F33
S1133CF03327A00D611D231F849F600D211D822F7A
S1133D00762F6A2F11249F5750409AF0F1F08823A0
S1133D104AF0EE0FFF1FBB1F661F771F881F9150CD
S1133D205040A9F79E3F510580F00C94EE1D0C9471
S1133D30391E5F3FE4F3983ED4F3869577956795F3
S1133D40B795F795E7959F5FC1F7FE2B880F911DF7
S1133D509695879597F9089597FB072E16F4009486
S1133D6007D077FD09D00E940C1F07FC05D03EF454
S1133D70909581959F4F0895709561957F4F089513
S1133D80A1E21A2EAA1BBB1BFD010DC0AA1FBB1F5B
S1133D90EE1FFF1FA217B307E407F50720F0A21BCD
S1133DA0B30BE40BF50B661F771F881F991F1A943A
S1133DB069F760957095809590959B01AC01BD0164
S1133DC0CF010895EE0FFF1F0590F491E02D0994A3
S1133DD0A29FB001B39FC001A39F700D811D112448
S1133DE0911DB29F700D811D1124911D0895002411
S1133DF0A7FD00942A0F301D401D501D601D701D2D
S1133E00801D901D08952A153B054C055D056E0522
S1133E107F05800791070895AA1BBB1B51E107C0CA
S1133E20AA1FBB1FA617B70710F0A61BB70B881F46
S1133E30991F5A95A9F780959095BC01CD010895D5
S1073E40F894FFCF20
S1133E44020504110204313233783435362B373801
S1133E54392B302E3D2D03040506000102130504FD
S1133E64070206000302050101020601010207011B
S1133E74010202000102030001020400010305001F
S1133E84010001010000020100000301000004011B
S1133E9400000501000006010000070100030201FF
S1133EA400030301000304010001020000030701ED
S1133EB40103060101050643757272656E7420548C
S1133EC4656D702069733A00202020272D27205423
S1133ED46F20457869740020200020202020457834
S1133EE4636565646564002020204D617820416D1C
S1133EF46F756E7400456E74657220416D6F756ED6
S1133F0474002050726F63657373696E672E2E2E6E
S1133F142E002020506C656173652057616974001C
S1133F2420202020202046756E64002020496E73D2
S1133F34756666696369656E740020205472616EE7
S1133F4473616374696F6E00202020537563636525
S1133F54737366756C002020596F75722042616C0E
S1133F64616E636500322E446973706C6179205408
S1133F74656D7000312E496E7365727420436172ED
S1133F84640020496E636F72726563742050494EF5
S1133F9400437573746F6D6572205365727669633B
S1133FA46500506C6561736520436F6E746163745E
S1133FB40020202054727920416761696E00456EA7
S1133FC474657220596F75722050494E00696E20D1
S1133FD474686520446174616261736500596F7526
S1133FE4722043617264206973206E6F7400202010
S1133FF42020437573746F6D657200202020205750
S1134004656C636F6D650020205072657373204284
S11340147574746F6E0057616974696E6720666F96
S113402472204361726400526563656976696E67E0
S1134034204461746100427574746F6E205072651B
S1134044737365640050726F6772616D6D656400AB
S11340542A2A2A2A2A4C4F434B45442A2A2A2A2A02
S1134064002A2A2A2A2A2A41544D2A2A2A2A2A2A6E
S11340742A000A50726F6772616D6D696E67204D14
S11340846F64650D000A55534552204D6F64650DE8
S1134094000A596F757220496E7075743A20000ACB
S11340A4496E76616C69642043686F6963652C208A
S11340B44F6E6C792043686F6F73652066726F6D01
S11340C4203120746F20330D000A4D617820416D36
S11340D46F756E743A20000A496E76616C696420C7
S11340E442616C616E63652C2042616C616E636530
S11340F42073686F756C6420626520696E2028786B
S11341047878782E78782920666F726D61740D0A38
S1134114000A50414E3A20000A496E76616C696483
S11341242050414E2C2050414E2073686F756C64AE
S11341342062652039206E756D6572696320636839
S113414461726163746572730D0A000A42616C6181
S11341546E63653A20000A496E76616C6964204294
S1134164616C616E63652C204F6E6C79203720631B
S11341746861726163746572730D000A44617461E9
S11341842053617665642C20466C61672052616912
S11341947365640A000A41544D2050494E3A200084
S11341A40A496E636F72726563742050494E0D0040
S11341B40A4C6F6164696E672E2E2E0D000A496ED7
S11341C476616C69642050494E2C204F6E6C7920C2
S11341D43420636861726163746572730D000A311B
S11341E42E416464204E657720437573746F6D6546
S11341F4720A0D322E557064617465204D61782005
S1134204416D6F756E740A0D332E457869740D0013
S11342140A44617461204261736520697320656D89
S11342247074792C20796F75206D757374207265A0
S1134234676973746572206174206C65617374209A
S11342446F6E6520637573746F6D65720D000A4932
S11342546E76616C696420496E70757421000A413C
S1134264544D2069732042757379204E6F772C2046
S113427450726F6772616D6D696E67204D6F64650E
S11342842077696C6C207374617274206166746540
S1134294722063757272656E742050726F636573F5
S11342A4730D0041544D205465726D696E616C0D3B
S11342B4004C6F6164696E672E2E0038353230000D
S11342C441444D494E00000E0F64000003001000E9
S9030000FC
