:100000000C942A000C94B20A0C94D90A0C94000B9C
:100010000C94840C0C94A90C0C94150C0C943A0CB4
:100020000C945F0C0C94F00B0C94CB0B0C94A60B63
:100030000C948A0E0C94D60F0C94FD0F0C94AF0FF9
:100040000C9474080C9447000C9447000C944700DF
:100050000C94470011241FBECFE5D8E0DEBFCDBF12
:1000600012E0A0E6B0E0EEE8F0E202C005900D92EA
:10007000A43FB107D9F724E0A4EFB2E001C01D927C
:10008000A035B207E1F70E9449080C9445100C9482
:10009000000080916600843009F405C10E942B04A1
:1000A000813009F0CFC00E94F607813009F0CCC042
:1000B0000E946D0E813009F0C9C00E94AE068130E9
:1000C00009F0C6C00E941A07813009F0C3C00E941F
:1000D0009507813009F0C0C00E94A407813009F063
:1000E000BDC06FEF80E090E00E943A04813009F0DB
:1000F000B7C02AE030E040E050E060E070E080E02F
:1001000090E00E949B0880EE92E00E94810781307F
:1001100009F0A8C082ED92E00E940B08813009F03E
:10012000A3C063E073E080E090E00E947604813039
:1001300009F09CC02AE030E040E050E060E070E070
:1001400080E090E00E949B08809103038A3AA1F12D
:100150001092650080E690E00E94B10E482F50E0BA
:1001600060E670E08BE090E00E942905813009F0A4
:100170007FC060E080E00E944A07813009F07AC0C9
:100180008EEB90E00E948107813009F075C060E03D
:100190000E944A07813009F071C08FEC90E00E9404
:1001A0008107813009F06CC080EE90E00E940B085E
:1001B000813009F067C041C081E08093650048E06C
:1001C00050E065EF72E083E090E00E94020681302B
:1001D00009F05AC062E073E082E090E00E94760489
:1001E000813009F053C048E050E06DEF72E08BE0E1
:1001F00090E00E940206813009F04AC060E080E091
:100200000E944A07813009F045C082EF90E00E94C9
:100210008107813009F040C060E00E944A078130C8
:10022000E9F580E091E00E9481078130C9F58FE017
:1002300091E00E940B088130A9F584E0809366006C
:1002400081E0089580E0089580E0089580E00895B9
:1002500080E0089580E0089580E0089580E00895AA
:1002600080E0089580E0089580E0089580E008959A
:1002700080E0089581E0089580E0089581E0089588
:1002800080E0089580E0089580E0089580E008957A
:1002900080E0089581E0089580E0089581E0089568
:1002A00080E0089580E008950F931F93CF93DF932C
:1002B000CDB7DEB7CF5FD1090FB6F894DEBF0FBE62
:1002C000CDBF8C01CE0101962FEFFC0111922A9532
:1002D000E9F70E942608853039F4B801CE0101966D
:1002E0000E94230F81E005C0813011F080E001C041
:1002F00086E0C150DF4F0FB6F894DEBF0FBECDBF12
:10030000DF91CF911F910F910895CF93DF93EC016F
:100310008AE191E00E940B088130C1F4CE010E9475
:100320005401813029F011F0863091F48630B1F318
:100330008981882379F0CE010E94170F87E291E02E
:100340000E940B08813021F380E005C080E003C0EB
:1003500080E001C081E0DF91CF910895CF93DF93DA
:10036000EC0180E591E00E940B088130D9F4CE01C8
:100370000E945401813029F011F08630A9F48630B2
:10038000B1F38F81811103C08C818E3279F0CE015F
:100390000E94170F8DE591E00E940B08813009F350
:1003A00080E005C080E003C080E001C081E0DF9113
:1003B000CF910895CF93DF93EC018DE891E00E94F7
:1003C0000B088130C1F4CE010E945401813029F024
:1003D00011F0863091F48630B1F38985882379F065
:1003E000CE010E94170F83E991E00E940B08813033
:1003F00021F380E005C080E003C080E001C081E01F
:10040000DF91CF910895CF93DF93EC0183EB91E0DF
:100410000E940B088130C1F4CE010E94540181304A
:1004200029F011F0863091F48630B1F38F81882362
:1004300079F0CE010E94170F8DEB91E00E940B081E
:10044000813021F380E005C080E003C080E001C07E
:1004500081E0DF91CF910895CF93DF93EC010E946B
:10046000410881EE91E00E940B08813069F5CE01D0
:100470000E945401813029F011F0863039F5863020
:10048000B1F3BE0180E690E00E94BD0E813039F0EC
:100490008CEE91E00E940B08813041F019C08BEF87
:1004A00091E00E940B088130A9F40AC0CE010E949D
:1004B000170F87E092E00E940B08813091F20CC088
:1004C0000E94450881E009C080E007C080E005C0C7
:1004D00080E003C080E001C080E0DF91CF9108950B
:1004E000CF93DF932091020330E0C9010296D82F09
:1004F000D295D07F2D5F3F4FC22FC295C07F84E041
:1005000093E00E94B10E482F50E064E073E08D2F1D
:1005100090E00E9429058130D9F48EE093E00E949A
:10052000B10E482F50E06EE073E08C2F90E00E94F7
:100530002905813079F4609102036F5F60930203B3
:1005400082E090E00E943A04813031F080E005C002
:1005500080E003C080E001C081E0DF91CF91089589
:10056000EF92FF920F931F93CF93DF93CDB7DEB738
:100570006E970FB6F894DEBF0FBECDBF8C0187E239
:1005800092E00E940B08813071F5CE0101967C014A
:100590008EE1F70111928A95E9F769E472E0C701EB
:1005A0000E94EC0EB801C7010E94EC0E6CE472E0F0
:1005B000C7010E94EC0EB801665F7F4FC7010E9421
:1005C000EC0E6CE472E0C7010E94EC0EB8016C5EA8
:1005D0007F4FC7010E94EC0E6BE472E0C7010E94DE
:1005E000EC0E81E001C080E06E960FB6F894DEBF9D
:1005F0000FBECDBFDF91CF911F910F91FF90EF9074
:100600000895CF93DF93CDB7DEB7AB970FB6F894CD
:10061000DEBF0FBECDBF80916600843009F0EDC013
:10062000FE0131968AE0DF011D928A95E9F78091FB
:1006300065008111A9C03A968AE0DF011D928A9572
:10064000E9F788E07296DF01982F1D929A95E9F7F5
:100650001BA61AA6389695E0DF011D929A95E9F738
:100660007097DF011D928A95E9F78091F40281115C
:1006700009C0CE0185960E942C02813009F072C01B
:100680008093F4028EE492E00E940B08813009F01E
:100690006BC0CE018A960E9485018AA5813379F5C7
:1006A000CE010B960E94DA01813009F05FC064E050
:1006B00073E0CE010B960E94230FCE014D960E944F
:1006C0000302813009F054C06EE073E0CE014D9614
:1006D0000E94230F0E947002813009F04BC0CE01AE
:1006E0008A960E94170F809102038130C9F56AEA49
:1006F00080E090E00E943A048130F1F531C082330D
:10070000A1F4CE0145960E94AE01CE0145960E940D
:10071000B10E482F50E0BE016B5E7F4F83E090E04A
:100720000E942905813051F51BC08333C9F48091A3
:1007300003038A3A69F41092F40281E08093650021
:100740008FE091E00E940B088130D1F080E05EC024
:100750008DE792E00E940B088130A1F080E056C046
:1007600081E054C080E052C080E050C080E04EC0C4
:1007700080E04CC080E04AC080E048C080E046C0D5
:1007800081E044C081E042C080913003813011F4A7
:1007900010926500CE0101960E945401813059F4F7
:1007A0006AEE72E0CE0101960E94BD0E813039F4EE
:1007B000109265002BC0813011F0863001F58091D8
:1007C0002F038130F1F486E193E00E94B00224E629
:1007D00030E040E050E060E070E080E090E00E94B7
:1007E0009B088091300381110EC08AEB92E00E9439
:1007F0000B08813051F080E009C085E007C080E03F
:1008000005C081E003C081E001C081E0AB960FB676
:10081000F894DEBF0FBECDBFDF91CF9108950E9447
:100820004900813039F48FB780688FBF0E9401037F
:100830008130E1F380E008959A0122273770220F7A
:10084000232F221F330B31952065FC012083FB01F0
:10085000408381E0089580916700833051F00E94C9
:10086000CE0C853029F083E08093670081E0089505
:1008700080E008951F93CF93DF9300D01F92CDB7F0
:10088000DEB7AC016B8390916700933011F519824C
:100890001A82BE016E5F7F4FCE0101960E941C043A
:1008A000182F8130C1F421E030E0AE014D5F5F4F81
:1008B0006A8189810E94070E813079F42FE030E04F
:1008C00040E050E060E070E080E090E00E949B0833
:1008D00005C012E003C010E001C010E0812F0F90AE
:1008E0000F900F90DF91CF911F910895EF92FF929B
:1008F0001F93CF93DF9300D0CDB7DEB7AC019091BB
:100900006700933021F56115710519F17B0119829A
:100910001A82BE016E5F7F4FCE0101960E941C04B9
:10092000182F8130C1F421E030E0A7016A8189816C
:100930000E94560E813089F425E030E040E050E01E
:1009400060E070E080E090E00E949B0807C012E049
:1009500005C014E003C010E001C010E0812F0F902B
:100960000F90DF91CF911F91FF90EF900895EF923C
:10097000FF921F93CF93DF9300D0CDB7DEB7909156
:1009800067009330F9F461157105F1F07B0190E196
:10099000899FA001112419821A82BE016E5F7F4FC8
:1009A000CE0101960E941C04182F813079F420E1B9
:1009B00030E0A7016A8189810E94070E813039F0F9
:1009C00010E005C012E003C014E001C010E0812F68
:1009D0000F900F90DF91CF911F91FF90EF900895AE
:1009E000EF92FF921F93CF93DF9300D0CDB7DEB786
:1009F000909167009330F9F461157105F1F07B0176
:100A000090E1899FA001112419821A82BE016E5FB4
:100A10007F4FCE0101960E941C04182F813079F47B
:100A200020E130E0A7016A8189810E94560E813061
:100A300039F010E005C012E003C014E001C010E07E
:100A4000812F0F900F90DF91CF911F91FF90EF902A
:100A500008956F927F928F929F92AF92BF92CF92A2
:100A6000DF92EF92FF920F931F93CF93DF9300D00B
:100A7000CDB7DEB75C016B017A01809167008330EE
:100A800009F0A1C0672B09F4A0C019821A82A50140
:100A9000BE016E5F7F4FCE0101960E941C04182F8D
:100AA000813009F094C0450180EF882287E09822C8
:100AB0009694879496948794969487949694879422
:100AC000682C8A2D8F7051F190E1A92EA81AB12CB3
:100AD000EA14FB0458F49701A6016A8189810E94F7
:100AE000070E813009F47CC010E07AC09501A601A0
:100AF0006A8189810E94070E813009F06AC0EA1874
:100B0000FB082FE030E040E050E060E070E080E083
:100B100090E00E949B087724739403C0712CA12C51
:100B2000B12CC701929582958F7089279F70892774
:100B3000082F1CC00150B6016A0D7B1D872D860D44
:100B40000E94B704813009F046C0739480E1E81A2E
:100B5000F10880E1A80EB11C2FE030E040E050E049
:100B600060E070E080E090E00E949B08101614F3B3
:100B7000E114F104A9F1A401470D511D42955295CC
:100B8000507F5427407F5427BE016E5F7F4FCE01B8
:100B900001960E941C04182F8130F9F4A6014A0D19
:100BA0005B1D97016A8189810E94070E8130B9F42B
:100BB0002FE030E040E050E060E070E080E090E066
:100BC0000E949B080DC012E00BC014E009C010E0A9
:100BD00007C010E005C010E003C010E001C010E045
:100BE000812F0F900F90DF91CF911F910F91FF9068
:100BF000EF90DF90CF90BF90AF909F908F907F90BD
:100C00006F9008956F927F928F929F92AF92BF9252
:100C1000CF92DF92EF92FF920F931F93CF93DF93C8
:100C200000D0CDB7DEB75C016B017A01809167001F
:100C3000833009F076C0672B09F475C019821A82D7
:100C4000A501BE016E5F7F4FCE0101960E941C047C
:100C5000182F813009F069C0450180EF882287E0B4
:100C600098229694879496948794969487949694D1
:100C70008794782C8A2D8F7089F090E1A92EA81A7C
:100C8000B12C9501A6016A8189810E94560E81309E
:100C900009F04DC0EA18FB0801E003C000E0A12CF8
:100CA000B12CC701929582958F7089279F708927F3
:100CB00011C0B6016A0D7B1D802F870D0E94F004C4
:100CC0008130B9F50F5F80E1E81AF10880E1A80EE4
:100CD000B11C862D66246A94680E8111EACFE11456
:100CE000F10451F1A401400F511D42955295507FDE
:100CF0005427407F5427BE016E5F7F4FCE0101967F
:100D00000E941C04182F8130B1F4A6014A0D5B1D0E
:100D100097016A8189810E94560E813069F010E046
:100D20000BC012E009C014E007C010E005C010E0DD
:100D300003C010E001C010E0812F0F900F90DF91F1
:100D4000CF911F910F91FF90EF90DF90CF90BF90C8
:100D5000AF909F908F907F906F90089580916800E2
:100D6000853071F080E790E00E942B09813011F00E
:100D7000873029F485E08093680081E0089580E061
:100D80000895CF93C82F80FF05C061E08AE00E94DC
:100D9000190A04C060E08AE00E94190AC1FF05C078
:100DA00061E08BE00E94190A04C060E08BE00E94C1
:100DB000190AC2FF05C061E08CE00E94190A04C054
:100DC00060E08CE00E94190AC3FF05C061E08DE07D
:100DD0000E94190A04C060E08DE00E94190ACF91B8
:100DE000089561E089E00E94190A21E030E040E0C6
:100DF00050E060E070E080E090E00E949B0860E0DE
:100E000089E00E94190A0895CF93C82F60E087E017
:100E10000E94190A8C2F82958F700E94C1060E9431
:100E2000F1068C2F8F700E94C1060E94F10681E0AE
:100E3000CF91089580916900863059F180E790E064
:100E40000E942B09813011F0873011F560E087E0B6
:100E50000E94190A60E089E00E94190A83E30E9457
:100E6000040782E30E94040788E20E94040788E0E6
:100E70000E94040781E00E94040786E00E940407A4
:100E80008CE00E94040786E08093690081E0089569
:100E900080E0089590916900963089F4833088F459
:100EA000613188F4282F30E02E5F3F4F862F90E489
:100EB000299F800D11240E94040781E0089585E098
:100EC000089583E0089582E00895CF93909169009A
:100ED0009630A1F4C82F61E087E00E94190A8C2F98
:100EE00082958F700E94C1060E94F1068C2F8F7030
:100EF0000E94C1060E94F10681E001C085E0CF9109
:100F00000895CF93DF93EC0180916900863049F416
:100F100003C021960E94650788818111FACF81E084
:100F200001C085E0DF91CF91089580916A008530FE
:100F300051F00E944C08813029F485E080936A00CA
:100F400081E0089580E0089580916B00863049F03B
:100F50000E94340F813039F486E080936B0081E089
:100F6000089586E0089580E00895CF93DF93C091BF
:100F70003203D0E00E94AD0FCD5CDC4F88839091AE
:100F80003203E92FF0E0ED5CFC4F80818D3071F48D
:100F90000E94660FE0913203F0E0ED5CFC4F10829E
:100FA0001092320381E0809331031DC0883051F4E8
:100FB000992341F00E94660F809132038150809303
:100FC000320311C0883079F090913204913021F4CD
:100FD0008AE20E94660F02C00E94660F809132036F
:100FE0008F5F80933203DF91CF91089580916C00E1
:100FF000833081F00E94500F813011F0873049F426
:1010000085EB97E00E94980F83E080936C0081E06D
:10101000089580E00895CF93DF93009781F02091A9
:101020006C00223079F0EC010E94B10E682F70E064
:10103000CE010E94710F813021F020E003C024E036
:1010400001C021E0822FDF91CF910895BC01892B4F
:10105000A1F080916C00823099F080913103813051
:1010600071F41092310383E393E00E94230F83E332
:1010700093E00E94170F85E0089584E0089581E0D1
:10108000089581E08093320408951092320481E043
:1010900008950E940F04FFCF80916D00873011F1F9
:1010A00020E013C03BB3E22FF0E0EE0FFF1FE25948
:1010B000FF4F81E090E0008002C0880F991F0A94E2
:1010C000E2F7809583238BBB2F5F222359F397E0B0
:1010D00096B986B18F7D86B986B186B990936D0039
:1010E00081E0089588E008951F920F920FB60F9245
:1010F00011242F933F934F935F936F937F938F931D
:101100009F93AF93BF93EF93FF93E0913304F091DC
:1011100034040995FF91EF91BF91AF919F918F9109
:101120007F916F915F914F913F912F910F900FBEE3
:101130000F901F9018952F923F924F925F926F924F
:101140007F928F929F92AF92BF92CF92DF92EF9257
:10115000FF920F931F93CF93DF9300D000D01F9285
:10116000CDB7DEB7222E332E442E552E662E798330
:101170008A839B83912C1D821C82B0E0F0E0E0E02A
:10118000712C812C3DC02C2D3D2D4E2D5F2D602FBF
:10119000712F8A2D9B2DA1E00E942410C22ED32EE8
:1011A000E42EF52E062F172FA82EB92E08C0C12C1D
:1011B000D12CE12CF12C00E010E0A12CB12C2C2D35
:1011C0003D2D4E2D5F2D602F712F8A2D9B2DACE074
:1011D0000E943910C1F2B8F28C81292D3D81482F2F
:1011E0005B2F6F2F7E2F872D982DA1E00E9424105A
:1011F000922E3D834C83B52FF62FE72F782E892E24
:10120000292D3D814C815B2F6F2F7E2F872D982DAF
:10121000A22CB32CC42CD52CE62CF9800A811B817E
:101220000E94301020F20F900F900F900F900F90AF
:10123000DF91CF911F910F91FF90EF90DF90CF90B2
:10124000BF90AF909F908F907F906F905F904F90E6
:101250003F902F900895AC01892B09F4E4C090E0F1
:10126000D7C0E92FF0E0EE0FFF1FEE0FFF1FE40FD6
:10127000F51F3181383008F0D8C020812130C1F10C
:1012800038F0223009F464C0233009F491C0CFC093
:101290002AB361E070E0DB0102C0AA0FBB1F3A95E0
:1012A000E2F78A2F809582238ABBAAB38281282FF6
:1012B00030E0018002C0220F331F0A94E2F72A2B8C
:1012C0002ABB8BB3018002C0660F771F0A94E2F736
:1012D000609568236BBB6BB38381282F30E001805E
:1012E00002C0220F331F0A94E2F7262B2BBB8FC0BC
:1012F00027B361E070E0DB0102C0AA0FBB1F3A9583
:10130000E2F78A2F8095822387BBA7B38281282F9B
:1013100030E0018002C0220F331F0A94E2F72A2B2B
:1013200027BB88B3018002C0660F771F0A94E2F7DB
:101330006095682368BB68B38381282F30E0018003
:1013400002C0220F331F0A94E2F7262B28BB5FC08E
:1013500024B361E070E0DB0102C0AA0FBB1F3A9525
:10136000E2F78A2F8095822384BBA4B38281282F41
:1013700030E0018002C0220F331F0A94E2F72A2BCB
:1013800024BB85B3018002C0660F771F0A94E2F781
:101390006095682365BB65B38381282F30E00180A9
:1013A00002C0220F331F0A94E2F7262B25BB2FC061
:1013B00021B361E070E0DB0102C0AA0FBB1F3A95C8
:1013C000E2F78A2F8095822381BBA1B38281282FE7
:1013D00030E0018002C0220F331F0A94E2F72A2B6B
:1013E00021BB82B3018002C0660F771F0A94E2F727
:1013F0006095682362BB62B38381282F30E001804F
:1014000002C0220F331F0A94E2F7262B22BB9F5FF4
:10141000933108F426CF509337044093360481E08B
:1014200080933504089585E0089583E0089584E06D
:101430000895843108F090C090913504992309F4FF
:101440008DC0E82FF0E0CF01880F991F880F991FFA
:10145000E0913604F0913704E80FF91F8081813064
:1014600021F130F08230F1F1833009F458C078C0B6
:10147000613069F42BB381E090E0018002C0880FF5
:10148000991F0A94E2F7822B8BBB81E008952BB35E
:1014900081E090E0018002C0880F991F0A94E2F772
:1014A000809582238BBB81E00895613069F428B375
:1014B00081E090E0018002C0880F991F0A94E2F752
:1014C000822B88BB81E0089528B381E090E0018001
:1014D00002C0880F991F0A94E2F78095822388BB87
:1014E00081E00895613069F425B381E090E00180E6
:1014F00002C0880F991F0A94E2F7822B85BB81E016
:10150000089525B381E090E0018002C0880F991F03
:101510000A94E2F78095822385BB81E008956130CB
:1015200069F422B381E090E0018002C0880F991F26
:101530000A94E2F7822B82BB81E0089522B381E016
:1015400090E0018002C0880F991F0A94E2F780950D
:10155000822382BB81E0089582E0089586E00895A9
:1015600084E008951F920F920FB60F9211242F93CB
:101570003F934F935F936F937F938F939F93AF931B
:10158000BF93EF93FF93E0913C04F0913D040995E4
:10159000FF91EF91BF91AF919F918F917F916F914B
:1015A0005F914F913F912F910F900FBE0F901F9021
:1015B00018951F920F920FB60F9211242F933F93FD
:1015C0004F935F936F937F938F939F93AF93BF934B
:1015D000EF93FF93E0913A04F0913B040995FF915A
:1015E000EF91BF91AF919F918F917F916F915F919B
:1015F0004F913F912F910F900FBE0F901F90189514
:101600001F920F920FB60F9211242F933F934F9377
:101610005F936F937F938F939F93AF93BF93EF935A
:10162000FF93E0913804F09139040995FF91EF910F
:10163000BF91AF919F918F917F916F915F914F91EA
:101640003F912F910F900FBE0F901F90189590E033
:101650000EC0292F30E0F901EE0FFF1F2E0F3F1FA4
:10166000F901E051FD4F2081281719F09F5F992360
:1016700081F3892F90E0FC01EE0FFF1FEE0FFF1F9B
:10168000E15CFB4F408151816281738141155105BD
:101690006105710581F0880F991F880F991FFC0162
:1016A000E15CFB4F4150510961097109408351834D
:1016B00062837383089523B72E7F23BF23B72D7FC3
:1016C00023BF23B72B7F23BF29B72E7F29BFFC0160
:1016D000ED5BFB4F24E02083E0914404F09145044E
:1016E0000995089580913E04813061F120E024C085
:1016F000822F90E0FC01EE0FFF1FE80FF91FE05171
:10170000FD4F3081332319F03330F0F40FC0FC016A
:10171000EE0FFF1FE80FF91FE051FD4F328131112D
:1017200005C013BE39B73C7F39BF12BEFC01ED5B6B
:10173000FB4F31E030832F5F2223D1F281E0809391
:101740003E04089583E0089585E008951F920F9266
:101750000FB60F9211242F933F934F935F936F9384
:101760007F938F939F93AF93BF93EF93FF9380E00B
:101770000E94270BFF91EF91BF91AF919F918F91A5
:101780007F916F915F914F913F912F910F900FBE7D
:101790000F901F9018951F920F920FB60F92112461
:1017A0002F933F934F935F936F937F938F939F9369
:1017B000AF93BF93EF93FF9380E00E94270BFF91BD
:1017C000EF91BF91AF919F918F917F916F915F91B9
:1017D0004F913F912F910F900FBE0F901F90189532
:1017E0001F920F920FB60F9211242F933F934F9396
:1017F0005F936F937F938F939F93AF93BF93EF9379
:10180000FF9381E00E94270BFF91EF91BF91AF9171
:101810009F918F917F916F915F914F913F912F9108
:101820000F900FBE0F901F9018951F920F920FB63A
:101830000F9211242F933F934F935F936F937F9356
:101840008F939F93AF93BF93EF93FF9381E00E9499
:10185000270BFF91EF91BF91AF919F918F917F9156
:101860006F915F914F913F912F910F900FBE0F900D
:101870001F9018951F920F920FB60F9211242F935D
:101880003F934F935F936F937F938F939F93AF9308
:10189000BF93EF93FF9381E00E94270BFF91EF919D
:1018A000BF91AF919F918F917F916F915F914F9178
:1018B0003F912F910F900FBE0F901F9018951F9280
:1018C0000F920FB60F9211242F933F934F935F9374
:1018D0006F937F938F939F93AF93BF93EF93FF93F8
:1018E00081E00E94270BFF91EF91BF91AF919F91F3
:1018F0008F917F916F915F914F913F912F910F90B9
:101900000FBE0F901F9018951F920F920FB60F9257
:1019100011242F933F934F935F936F937F938F93F4
:101920009F93AF93BF93EF93FF9382E00E94270BA7
:10193000FF91EF91BF91AF919F918F917F916F91A7
:101940005F914F913F912F910F900FBE0F901F907D
:1019500018951F920F920FB60F9211242F933F9359
:101960004F935F936F937F938F939F93AF93BF93A7
:10197000EF93FF9382E00E94270BFF91EF91BF91BD
:10198000AF919F918F917F916F915F914F913F9117
:101990002F910F900FBE0F901F9018958091BC0053
:1019A000863041F011B88AEF80B986E08093BC00A0
:1019B00081E0089587E008958091BC00863059F455
:1019C00084EA86BF06B607FEFDCF81B1887F8830E6
:1019D00021F080E0089585E0089581E008959091D8
:1019E000BC00963029F5623028F588232CF190E070
:1019F000880F991F682B63B984E886BF06B607FE77
:101A0000FDCF81B1887F883359F028F48831B1F057
:101A1000803241F00BC0803489F0883429F006C050
:101A200088E3089580E2089588E4089580E00895A9
:101A300085E0089582E0089583E0089581E00895A7
:101A40008091BC00863059F484EA86BF06B607FE52
:101A5000FDCF81B1887F803121F080E0089585E05D
:101A6000089581E008958091BC00863039F484E9BE
:101A700086BF06B604FCFDCF81E0089585E0089599
:101A80009091BC00963069F483B984E886BF06B6AD
:101A900007FEFDCF81B1887F883229F0803329F499
:101AA000089585E0089588E2089580E00895FC0196
:101AB0009091BC00963079F4309779F084EC86BF31
:101AC00006B607FEFDCF81B1887F803541F483B132
:101AD000808381E0089585E0089584E0089580E0A2
:101AE0000895FC019091BC00963079F4309779F01C
:101AF00084E886BF06B607FEFDCF81B1887F8835B2
:101B000041F483B1808381E0089585E0089584E005
:101B1000089580E008957F928F929F92AF92BF9236
:101B2000CF92DF92EF92FF920F931F93CF93DF93A9
:101B3000782EEB017A0169018091BC00863009F0B2
:101B400047C0209709F446C0232B09F445C07720ED
:101B50000CF444C00E94DC0C882309F44AC060E005
:101B6000872D0E94EF0C8130D9F50BC04E018FEF0D
:101B7000881A980A88810E94400D75018823C9F14E
:101B8000E401570181E0A81AB108EF2879F70E9413
:101B9000200D813039F561E0872D0E94EF0C8130F6
:101BA00019F508C0E6012196C6010E94570D813043
:101BB000E9F46E0101501109A9F7C6010E94710DE7
:101BC0008130B1F40E94330D813099F080E011C072
:101BD00085E00FC084E00DC084E00BC083E009C045
:101BE00080E007C080E005C080E003C080E001C065
:101BF00080E0DF91CF911F910F91FF90EF90DF90E8
:101C0000CF90BF90AF909F908F907F900895BF929C
:101C1000CF92DF92EF92FF920F931F93CF93DF93B8
:101C2000182F062FEA0179018091BC00863059F502
:101C3000209759F111235CF10E94DC0C882361F19B
:101C400060E0812F0E94EF0CB82E81E0B81221C015
:101C5000802F0E94400D81110CC01EC06E018FEFBD
:101C6000C81AD80A88810E94400D78018823A1F003
:101C7000E601870101501109EF2881F70E94330D19
:101C8000811109C009C085E007C084E005C083E078
:101C900003C080E001C08B2DDF91CF911F910F9188
:101CA000FF90EF90DF90CF90BF9008950F931F9318
:101CB000CF93DF931F92CDB7DEB7698389019A0175
:101CC00041E050E0BE016F5F7F4F0E948B0D0F908F
:101CD000DF91CF911F910F9108958091BD008730C2
:101CE000B9F087B3806287BB87B38F7B87BB87B32D
:101CF0008F7E87BB87B38F7787BB8DB18F7E8DB982
:101D00008DB180648DB987E08093BD0081E0089536
:101D100088E008951F920F920FB60F9211242F930F
:101D20003F934F935F936F937F938F939F93AF9363
:101D3000BF93EF93FF93E0914604F0914704099518
:101D4000FF91EF91BF91AF919F918F917F916F9193
:101D50005F914F913F912F910F900FBE0F901F9069
:101D60001895AC0180E001C08F5FFA01E80FF11D0A
:101D700020812111F9CF8F5F0895FF920F931F9358
:101D8000CF93DF93EC018B010E94B10EF82EC801B6
:101D90000E94B10E8F15A8F0F816A8F030E007C029
:101DA000F801E80FF91F808128130FC03F5F832FD0
:101DB00090E0FE01E80FF91F20812111F1CF81E0B1
:101DC00005C082E003C083E001C080E0DF91CF91D5
:101DD0001F910F91FF900895FF920F931F93CF9340
:101DE000DF93EC018B01CB010E94B10EF82ECE01E6
:101DF0000E94B10E815090E00BC0280F311DFE01F2
:101E0000E20FF31FD801A90FB11D2C9120839F5F12
:101E1000292F30E04F2D50E0415051094217530710
:101E200064F7DF91CF911F910F91FF900895AC015E
:101E300090E002C09F5F1082FA01E90FF11D20813E
:101E40002111F8CF0895DC0190E005C0FB01E20FFD
:101E5000F31F40839F5F292F30E0FD01E20FF31F46
:101E600040814111F3CF089580914804813091F071
:101E70000E94720B813011F0833071F480E790E0A2
:101E80000E942B09813011F0873041F481E080936A
:101E90004804089580E0089580E0089580E0089562
:101EA00080914904813081F010BC8CE089B982E0D6
:101EB0008BB988E18AB980E880BD80B5866880BD2D
:101EC00081E080934904089587E008959091490442
:101ED000992329F05D9BFECF8CB981E0089586E0BF
:101EE0000895EF92FF920F931F93CF93DF9320916A
:101EF0004904222399F08B017C01C0E0D0E009C0A5
:101F0000F701EC0FFD1F80810E94660F813041F4C4
:101F10002196C017D107A0F381E003C086E001C07D
:101F200080E0DF91CF911F910F91FF90EF90089586
:101F30009C0190914904992361F02115310559F0D4
:101F40008AB180688AB930934D0420934C0481E0B3
:101F5000089586E0089585E008958CB108951F9254
:101F60000F920FB60F9211242F933F934F935F93CD
:101F70006F937F938F939F93AF93BF93EF93FF9351
:101F8000E0914E04F0914F040995FF91EF91BF91BC
:101F9000AF919F918F917F916F915F914F913F9101
:101FA0002F910F900FBE0F901F9018951F920F92B8
:101FB0000FB60F9211242F933F934F935F936F931C
:101FC0007F938F939F93AF93BF93EF93FF93E09192
:101FD0004C04F0914D040995FF91EF91BF91AF91A1
:101FE0009F918F917F916F915F914F913F912F9131
:101FF0000F900FBE0F901F9018951F920F920FB663
:102000000F9211242F933F934F935F936F937F937E
:102010008F939F93AF93BF93EF93FF93E0914A0405
:10202000F0914B040995FF91EF91BF91AF919F9172
:102030008F917F916F915F914F913F912F910F9071
:102040000FBE0F901F9018950024A7FD00942A0F33
:10205000301D401D501D601D701D801D901D089578
:102060002A153B054C055D056E057F058007910728
:1020700008950024A7FD00942A1730054005500557
:0E20800060057005800590050895F894FFCF67
:10208E00383532300002050204050407020600034B
:10209E000001010100020101000301010004000121
:1020AE000005000100060001000700010205010005
:1020BE0002060100020701000304010003050100EE
:1020CE0003060100030701000100010001010100E8
:1020DE0001020100010300000202010005062A2A86
:1020EE002A2A2A2A2A41544D2A2A2A2A2A2A002A08
:1020FE002A2A2A2A4C4F434B45442A2A2A2A2A00A6
:10210E0050726F6772616D6D696E67204D6F646599
:10211E000D00312E496E7365727420436172640036
:10212E00322E446973706C61792054656D70005560
:10213E00534552204D6F64650D00596F75722049DD
:10214E006E7075743A2000496E76616C6964204336
:10215E00686F6963652C204F6E6C792043686F6FD2
:10216E0073652066726F6D203120746F20330D0001
:10217E004D617820416D6F756E743A2000496E7610
:10218E00616C69642042616C616E63652C204F6ED8
:10219E006C79203720636861726163746572732095
:1021AE0065672E20313233342E35360D0050414EB8
:1021BE003A2000496E76616C69642050414E2C20A5
:1021CE004F6E6C7920392063686172616374657239
:1021DE00730D0042616C616E63653A2000496E7644
:1021EE00616C69642042616C616E63652C204F6E78
:1021FE006C79203720636861726163746572730D48
:10220E0000436172642050494E3A2000496E636F5C
:10221E0072726563742050494E0D004C6F61646993
:10222E006E672E2E2E0D00496E76616C69642050FD
:10223E00494E2C204F6E6C79203420636861726198
:10224E0063746572730D004461746120697320625A
:10225E0065696E672073656E7420746F207468658F
:10226E002041544D2E2E2E0D002300232D00312EF5
:10227E00416464204E657720437573746F6D65728B
:10228E000D322E557064617465204D617820416D5C
:10229E006F756E740D332E457869740D004461743C
:1022AE0061204261736520697320656D7074792CAD
:1022BE0020796F75206D75737420726567697374FC
:1022CE006572206174206C65617374206F6E652079
:1022DE00637573746F6D65720D0044617461205384
:1022EE0075636365737366756C6C792053656E7474
:1022FE000D0041544D205465726D696E616C0D0078
:10230E004C6F6164696E672E2E0041444D494E003C
:04231E0000020000B9
:00000001FF
