:100000000C9431000C94DC120C9403130C942A13FE
:100010000C943A150C945F150C94CB140C94F014BA
:100020000C9415150C94A6140C9481140C945C1467
:100030000C947F170C94031C0C942A1C0C94DC1B4E
:100040000C94B80F0C944E000C944E000C944E007F
:100050000C944E008F1A9B1A921A951A981A8F1A9E
:100060008F1A11241FBECFE5D8E0DEBFCDBF15E04B
:10007000A0E6B0E0E2EFFDE302C005900D92A432ED
:10008000B107D9F726E0A4E2B5E001C01D92AF396F
:10009000B207E1F70E94170F0C94F71E0C940000B2
:1000A000CF93DF9390913F05292F30E02F5F3F4F93
:1000B000D22FD295DD0FD07E9295990F907EC0E31E
:1000C000C90F81E495E00E94A617482F50E061E433
:1000D00075E08D2F90E00E94DC098130D9F48BE42B
:1000E00095E00E94A617482F50E06BE475E08C2F36
:1000F00090E00E94DC09813079F460913F056F5FE8
:1001000060933F0582E090E00E94ED08813031F07D
:1001100080E005C080E003C080E001C081E0DF91A5
:10012000CF910895CF93DF931F92CDB7DEB7198299
:1001300081E080936C050E94FF0C60E080E00E94EB
:10014000A00C8130F9F487ED90E00E94EB0C813037
:10015000D9F4CE0101960E945A0D813059F460E025
:100160000E94A00C813091F4898190E00E942D0DB5
:10017000813071F488EE90E00E94EB0C813051F0F8
:1001800080E009C080E007C080E005C080E003C0D7
:1001900080E001C081E00F90DF91CF9108951F931F
:1001A000CF93DF93CDB7DEB72A970FB6F894DEBFB3
:1001B0000FBECDBFFE0131968AE0DF011D928A9508
:1001C000E9F7109231051CC090E001968295880FE6
:1001D000807E4AE050E0BE016F5F7F4F90E00E945A
:1001E000B50A813081F56DE575E0CE0101960E947A
:1001F000B217813069F0809131058F5F80933105AE
:100200008091310590913F058917F0F280E001C09F
:1002100081E08130D1F4109131051295110F107EDB
:10022000105D61E475E0CE0101960E94F11748E08F
:1002300050E06BE475E0812F90E00E94B50A8130B8
:1002400031F080E005C080E003C08BE001C08AE0AF
:100250002A960FB6F894DEBF0FBECDBFDF91CF91C7
:100260001F910895CF93DF93EC0180912F0590E0CB
:100270008B5D9A4F0E94820B863009F074C06091AA
:100280002F05862F90E0FC01EB5DFA4F20812D3386
:1002900009F5FC01EB5DFA4F108210922F0566E024
:1002A00081E00E94A00C813009F05FC087EF90E0F0
:1002B0000E94EB0C813009F05AC066E00E94A00C4D
:1002C000813009F056C0BE0185E295E00E94F11729
:1002D00087E05AC02D32B1F4EFEFE60FE0932F051F
:1002E000F0E0EB5DFA4F10826B5F81E00E94A00CA2
:1002F000813009F040C080E20E94BB0C8130E9F1FE
:1003000080E042C06A3049F16A5F81E00E94A00C3F
:100310008130A9F58091300581110BC0E0912F0546
:10032000F0E0EB5DFA4F80810E94BB0C813049F513
:100330000DC080912F05843030F48AE20E94BB0CFE
:10034000813009F503C0815080932F0580912F05DE
:100350008F5F80932F0581E017C0FC01EB5DFA4FA2
:10036000108281E011C081E00FC080E00DC080E00C
:100370000BC080E009C080E007C081E005C080E0DC
:1003800003C080E001C080E0DF91CF9108954F92DB
:100390005F926F927F928F929F92AF92BF92CF9215
:1003A000DF92EF92FF921F93CF93DF93CDB7DEB72B
:1003B00028970FB6F894DEBF0FBECDBFFE01319671
:1003C00088E0DF011D928A95E9F78BE495E00E94B1
:1003D00050182B013C0182E395E00E9450184B011C
:1003E0005C01CE0101960E94E517CE0101960E94A4
:1003F0003201873009F0B6C0CE0101960E94501834
:100400006B017C019B01AC01C501B4010E94BE1CC3
:1004100088230CF56AEF70E087E091E00E94040DFC
:1004200024EF31E040E050E060E070E080E090E0F8
:100430000E94DF0F0E94FF0C60E080E00E94A00C91
:10044000813009F09AC085E191E00E94EB0C813087
:1004500009F488C094C062E271E082E391E00E94F6
:10046000040DA7019601C301B2010E94BE1C88239E
:100470000CF560E471E08BE491E00E94040D24EF40
:1004800031E040E050E060E070E080E090E00E9409
:10049000DF0F0E94FF0C60E080E00E94A00C813022
:1004A00009F06FC085E191E00E94EB0C813009F406
:1004B00059C069C06AE571E088E691E00E94040DC8
:1004C00040E064E680E00E94130E28EE33E040E056
:1004D00050E060E070E080E090E00E94DF0F80E09C
:1004E0000E94A40D10926E05A7019601C301B201EE
:1004F0000E94511C6B017C018BE495E00E94E51782
:100500004BE455E0C701B6010E94CE1810913105A9
:100510001295110F107E105D8BE495E00E94A617D6
:10052000482F50E06BE475E0812F90E00E94DC09D9
:10053000813059F56BE475E086E791E00E94040D87
:1005400028EE33E040E050E060E070E080E090E0D2
:100550000E94DF0F65E871E084E991E00E94040DDC
:1005600081E014C02BE930E040E050E060E070E052
:1005700080E090E00E94DF0F34CF80E007C080E091
:1005800005C080E003C080E001C080E028960FB67F
:10059000F894DEBF0FBECDBFDF91CF911F91FF90CA
:1005A000EF90DF90CF90BF90AF909F908F907F9013
:1005B0006F905F904F9008951F93CF93DF9300D07B
:1005C00000D01F92CDB7DEB7FE01319685E0DF0186
:1005D0001D928A95E9F781E08093300510E0CE0105
:1005E00001960E94E517CE0101960E9432018730E4
:1005F00009F057C01F5F67E675E0CE0101960E94C3
:10060000B217813009F443C0133011F568EF70E080
:1006100082EA91E00E94040D28EE33E040E050E0D1
:1006200060E070E080E090E00E94DF0F61EB71E03D
:1006300082EC91E00E94040D28EE33E040E050E0AF
:1006400060E070E080E090E00E94DF0F89E037C05A
:1006500061ED71E082EA91E00E94040D24EF31E047
:1006600040E050E060E070E080E090E00E94DF0F4A
:100670000E94FF0C60E080E00E94A00C8130E1F459
:100680008EED91E00E94EB0C813059F017C062E2D0
:1006900071E082E391E00E94040D1092300588E041
:1006A0000EC02BE930E040E050E060E070E080E018
:1006B00090E00E94DF0F93CF80E001C080E00F90B8
:1006C0000F900F900F900F90DF91CF911F91089591
:1006D0000E94FF0C60E080E00E94A00C813009F0D5
:1006E0004CC00E94CF008B3041F46DEE71E08DEF75
:1006F00091E00E94040D8BE008958EED91E00E9440
:10070000EB0C8130E1F50E94DC028930D1F18830B8
:10071000D1F56EE072E08BE192E00E94040D20EDD5
:1007200037E040E050E060E070E080E090E00E9460
:10073000DF0F6BE475E086E791E00E94040D20ED89
:1007400037E040E050E060E070E080E090E00E9440
:10075000DF0F0E94FF0C60E080E00E94A00C81305F
:10076000A1F485E191E00E94EB0C813081F40E94BC
:10077000C701813069F080E0089580E0089580E04D
:10078000089589E0089580E0089580E0089580E06C
:100790000895AC0120E091E00AC0FB01E90FF11DD2
:1007A0008081FA01E20FF11D80832F5F9F5F9A30F5
:1007B000A0F3FA01E20FF11D108220E09BE00AC0D5
:1007C000FB01E90FF11D8081FA01E20FF11D828723
:1007D0002F5F9F5F9431A0F3FA01E20FF11D1286A3
:1007E00090E085E10AC0FB01E80FF11D2081FA01CC
:1007F000E90FF11D248B9F5F8F5F8931A0F3FA0110
:10080000E90FF11D148A81E008951F93CF93DF93C0
:10081000CDB7DEB7DA950FB6F894DEBF0FBECDBF09
:1008200081E080936E051982FE0132968FEFDF0121
:100830001D928A95E9F767E272E086E392E00E94F2
:10084000040D0FC080E00E945C08813009F089C06F
:10085000BE016F5F7F4F80E00E944A08813009F03F
:1008600082C08981882371F367E472E086E592E0B3
:100870000E94040D60E082E10E94661141C06CE1BB
:1008800070E0CE0102960E945217813009F06DC0CF
:100890008A818A32A9F58B818A3291F561E082E101
:1008A0000E94661165E672E082E092E00E94040D0B
:1008B00028EE33E040E050E060E070E080E090E05F
:1008C0000E94DF0F61EB71E082EC91E00E94040D69
:1008D00028EE33E040E050E060E070E080E090E03F
:1008E0000E94DF0F10926E0565E871E084E991E0E7
:1008F0000E94040DCE0102960E94E51711E038C057
:100900008A81833209F0BBCF61E082E10E946611E7
:10091000BE016E5F7F4F83E595E00E94C903182FEB
:10092000813029F583E595E00E9468038B3011F052
:10093000893099F428EE33E040E050E060E070E068
:1009400080E090E00E94DF0F10926E0565E871E094
:1009500084E991E00E94040D0BC0813049F010E061
:1009600007C010E005C010E003C010E001C010E0B7
:10097000812FD3950FB6F894DEBF0FBECDBFDF91A8
:10098000CF911F91089580916100843009F4BDC01A
:100990000E94690C813009F097C00E94C40E81301A
:1009A00009F094C00E94DE08813009F091C00E94D5
:1009B0002417813009F08EC00E946F0B813009F03E
:1009C0008BC00E944B0D813009F088C00E94930DAE
:1009D000813009F085C00E943708813009F082C05B
:1009E00084E095E00E94EB0C813009F07DC086EF39
:1009F00094E00E94D90E813009F078C060E475E07F
:100A000080E090E00E942909813009F071C02AE05D
:100A100030E040E050E060E070E080E090E00E9474
:100A2000DF0F809140058A3AF9F0109260008EE065
:100A300095E00E94A617482F50E06EE075E08BE02D
:100A400090E00E94DC09813009F054C060E772E058
:100A500081E892E00E94040D82E992E00E94D90EA2
:100A6000813009F049C02BC081E08093600048E0EC
:100A700050E062E375E083E090E00E94B50A8130C7
:100A8000E9F56FE375E082E090E00E94290981308A
:100A9000B9F545E050E06AE375E08BE090E00E9434
:100AA000B50A813079F565E871E084E991E00E944A
:100AB000040D85EA92E00E94D90E813029F584E088
:100AC0008093610081E0089580E0089580E00895BA
:100AD00080E0089580E0089580E0089580E0089522
:100AE00080E0089580E0089580E0089580E0089512
:100AF00080E0089580E0089580E0089580E0089502
:100B000080E0089580E0089580E008950F931F939A
:100B1000CF93DF93CDB7DEB7CF5FD1090FB6F8948F
:100B2000DEBF0FBECDBF8C01CE0101962FEFFC01C1
:100B300011922A95E9F70E94F40E853039F4B80134
:100B4000CE0101960E94F11781E005C0813011F0BD
:100B500080E001C086E0C150DF4F0FB6F894DEBFE1
:100B60000FBECDBFDF91CF911F910F910895CF930D
:100B7000DF93EC0181EB92E00E94D90E8130C1F449
:100B8000CE010E948605813029F011F0863091F463
:100B90008630B1F38981882379F0CE010E94E51770
:100BA0008FEB92E00E94D90E813021F380E005C0E6
:100BB00080E003C080E001C081E0DF91CF91089523
:100BC000CF93DF93EC0189EE92E00E94D90E813041
:100BD000D9F4CE010E948605813029F011F08630CB
:100BE000A9F48630B1F38F81811103C08C818E32DC
:100BF00079F0CE010E94E51787EF92E00E94D90EAE
:100C0000813009F380E005C080E003C080E001C0CE
:100C100081E0DF91CF910895CF93DF93EC0188E2DB
:100C200093E00E94D90E8130C1F4CE010E94860566
:100C3000813029F011F0863091F48630B1F3898546
:100C4000882379F0CE010E94E5178FE293E00E949D
:100C5000D90E813021F380E005C080E003C080E040
:100C600001C081E0DF91CF910895CF93DF93EC0134
:100C700080E593E00E94D90E8130C1F4CE010E943C
:100C80008605813029F011F0863091F48630B1F379
:100C90008F81882379F0CE010E94E5178BE593E0E0
:100CA0000E94D90E813021F380E005C080E003C0AE
:100CB00080E001C081E0DF91CF9108951F93CF9331
:100CC000DF93CDB7DEB762970FB6F894DEBF0FBEE5
:100CD000CDBFCE0101962AE0DC011D922A95E9F7ED
:100CE000FE013B9628E0DF011D922A95E9F70E945C
:100CF0000C06813059F561E475E0CE0101960E9441
:100D0000F117CE010B960E943506813009F56BE490
:100D100075E0CE010B960E94F1170E945000182F2B
:100D20008130C1F480913F058130A9F480E893E0DF
:100D30000E94D90E8AEA809340056AEA80E090E03A
:100D40000E94ED08813039F010E005C010E003C0CA
:100D500010E001C010E0812F62960FB6F894DEBF5C
:100D60000FBECDBFDF91CF911F910895CF93DF9339
:100D7000EC010E940F0F8AE993E00E94D90E8130A6
:100D800069F5CE010E948605813029F011F0863088
:100D900039F58630B1F3BE018EE095E00E94B217BE
:100DA000813039F085EA93E00E94D90E813041F01C
:100DB00019C085EB93E00E94D90E8130A9F40AC0D6
:100DC000CE010E94E51782EC93E00E94D90E81309B
:100DD00091F20CC00E94130F81E009C080E007C0AF
:100DE00080E005C080E003C080E001C080E0DF91CA
:100DF000CF910895CF93DF93CDB7DEB769970FB644
:100E0000F894DEBF0FBECDBF80916100843009F041
:100E100017C1FE0131968AE0DF011D928A95E9F73C
:100E20008091600081118BC0198E188E729685E0BA
:100E3000DF011D928A95E9F7389788E0DF011D925E
:100E40008A95E9F780912405811109C0CE01439666
:100E50000E94B606813009F064C08093240583EEB9
:100E600093E00E94D90E813009F05DC085E194E0E5
:100E70000E94D90E813009F058C0CE0148960E94D8
:100E8000B705888D813339F40E945E06CE014896FD
:100E90000E94E517C9C08233D1F4CE010B960E949F
:100EA000E005CE010B960E94A617482F50E0BE0128
:100EB000655F7F4F83E090E00E94DC098130B9F5E7
:100EC00062E375E0CE010B960E94F117ADC083334B
:100ED00009F5809140058A3AA9F41092240581E031
:100EE000809360000E94FF0C85EA92E00E94D90E78
:100EF0008130F9F465E871E084E991E00E94040D25
:100F000081E09FC083E694E00E94D90E813099F081
:100F100080E097C081EA94E00E94D90E813069F4A4
:100F200083C080E08EC080E08CC080E08AC080E01A
:100F300088C080E086C081E084C080E082C080916B
:100F40006D05813031F480916E05811102C01092DF
:100F50006000CE0101960E948605813031F563E183
:100F600075E0CE0101960E94B217813011F5809193
:100F70006E05813051F480936D0581EB94E00E9401
:100F8000D90E813009F04AC014C01092600060E7A9
:100F900072E081E892E00E94040D82E992E00E94F2
:100FA000D90E8130E9F180E04CC0813011F08630FB
:100FB000C9F51B8ACE0143960E94820B8630B1F49C
:100FC0008B89813319F40E9405042EC0823319F4F1
:100FD0000E94920029C08D3239F510926C0565E8A7
:100FE00071E084E991E00E94040D1EC080916C05BF
:100FF0008130D1F41B86CE010B960E945A0D8130B0
:1010000099F460E00E94A00C813031F48B8590E06F
:101010000E942D0D813041F080E013C080E011C0AE
:1010200081E00FC080E00DC024E630E040E050E0F9
:1010300060E070E080E090E00E94DF0F81E001C09E
:1010400085E069960FB6F894DEBF0FBECDBFDF9185
:10105000CF9108950E94C304813039F48FB780681E
:101060008FBF0E94FA068130E1F380E008958091FD
:101070006200853071F085E890E00E947810813040
:1010800011F0873029F485E08093620081E00895B3
:1010900080E00895823060F46115710559F0E82F01
:1010A000F0E0E159FA4F8081FB01808381E00895EF
:1010B00082E0089583E008950F931F93CF93DF9309
:1010C0001F92CDB7DEB7823008F058C01982082FC2
:1010D00010E0F801ED59FF4FBE016F5F7F4F808137
:1010E0000E945712813009F04BC08981813009F587
:1010F00004C00196A11DB11D03C080E090E0DC0199
:10110000883B2BE09207A105B10598F3BE016F5F04
:101110007F4FF801ED59FF4F80810E9457128130B7
:1011200089F58981813081F5F801E159FA4F808391
:1011300030C0882331F081E02CC00196A11DB11D83
:1011400003C080E090E0DC01883B2BE09207A10522
:10115000B10598F3BE016F5F7F4FF801ED59FF4F66
:1011600080810E945712813089F48981811110C0D9
:10117000F801E159FA4F108281E00BC082E009C00A
:1011800080E007C080E005C081E003C080E001C0CE
:1011900081E00F90DF91CF911F910F9108959A01F7
:1011A00022273770220F232F221F330B3195206502
:1011B000FC012083FB01408381E00895809164005D
:1011C000833051F00E948415853029F083E08093AC
:1011D000640081E0089580E008951F93CF93DF932A
:1011E00000D01F92CDB7DEB7AC016B839091640045
:1011F000933011F519821A82BE016E5F7F4FCE01C6
:1012000001960E94CF08182F8130C1F421E030E010
:10121000AE014D5F5F4F6A8189810E94BE168130A9
:1012200079F42FE030E040E050E060E070E080E0F2
:1012300090E00E94DF0F05C012E003C010E001C083
:1012400010E0812F0F900F900F90DF91CF911F91A1
:101250000895EF92FF921F93CF93DF9300D0CDB705
:10126000DEB7AC0190916400933021F561157105F2
:1012700019F17B0119821A82BE016E5F7F4FCE0188
:1012800001960E94CF08182F8130C1F421E030E090
:10129000A7016A8189810E940D17813089F425E0B8
:1012A00030E040E050E060E070E080E090E00E94DC
:1012B000DF0F07C012E005C014E003C010E001C05A
:1012C00010E0812F0F900F90DF91CF911F91FF9031
:1012D000EF900895EF92FF921F93CF93DF9300D08A
:1012E000CDB7DEB7909164009330F9F461157105C4
:1012F000F1F07B0190E1899FA001112419821A82EB
:10130000BE016E5F7F4FCE0101960E94CF08182F5D
:10131000813079F420E130E0A7016A8189810E945F
:10132000BE16813039F010E005C012E003C014E0B1
:1013300001C010E0812F0F900F90DF91CF911F918E
:10134000FF90EF900895EF92FF921F93CF93DF935A
:1013500000D0CDB7DEB7909164009330F9F46115F9
:101360007105F1F07B0190E1899FA00111241982A0
:101370001A82BE016E5F7F4FCE0101960E94CF0898
:10138000182F813079F420E130E0A7016A8189814A
:101390000E940D17813039F010E005C012E003C043
:1013A00014E001C010E0812F0F900F90DF91CF91DA
:1013B0001F91FF90EF9008956F927F928F929F926E
:1013C000AF92BF92CF92DF92EF92FF920F931F9353
:1013D000CF93DF9300D0CDB7DEB75C016B017A010C
:1013E00080916400833009F0A1C0672B09F4A0C08C
:1013F00019821A82A501BE016E5F7F4FCE01019650
:101400000E94CF08182F813009F094C0450180EF69
:10141000882287E09822969487949694879496944D
:10142000879496948794682C8A2D8F7051F190E15F
:10143000A92EA81AB12CEA14FB0458F49701A601AE
:101440006A8189810E94BE16813009F47CC010E057
:101450007AC09501A6016A8189810E94BE168130F9
:1014600009F06AC0EA18FB082FE030E040E050E0E5
:1014700060E070E080E090E00E94DF0F77247394DA
:1014800003C0712CA12CB12CC701929582958F704D
:1014900089279F708927082F1CC00150B6016A0D4B
:1014A0007B1D872D860D0E946A09813009F046C098
:1014B000739480E1E81AF10880E1A80EB11C2FE0D6
:1014C00030E040E050E060E070E080E090E00E94BA
:1014D000DF0F101614F3E114F104A9F1A401470D74
:1014E000511D42955295507F5427407F5427BE018D
:1014F0006E5F7F4FCE0101960E94CF08182F81307A
:10150000F9F4A6014A0D5B1D97016A8189810E9449
:10151000BE168130B9F42FE030E040E050E060E0EA
:1015200070E080E090E00E94DF0F0DC012E00BC081
:1015300014E009C010E007C010E005C010E003C0CF
:1015400010E001C010E0812F0F900F90DF91CF913C
:101550001F910F91FF90EF90DF90CF90BF90AF90D1
:101560009F908F907F906F9008956F927F928F924F
:101570009F92AF92BF92CF92DF92EF92FF920F9322
:101580001F93CF93DF9300D0CDB7DEB75C016B0123
:101590007A0180916400833009F084C0672B09F4DC
:1015A00083C019821A82A501BE016E5F7F4FCE01F2
:1015B00001960E94CF08182F813009F077C04501AD
:1015C00080EF882287E09822969487949694879457
:1015D0009694879496948794782C8A2D8F70F9F03E
:1015E00090E1A92EA81AB12CEA14FB0458F4970133
:1015F000A6016A8189810E940D17813009F45DC0BE
:1016000010E05BC09501A6016A8189810E940D17D7
:10161000813009F04DC0EA18FB0801E003C000E08A
:10162000A12CB12CC701929582958F7089279F704C
:10163000892711C0B6016A0D7B1D802F870D0E947E
:10164000A3098130B9F50F5F80E1E81AF10880E164
:10165000A80EB11C862D66246A94680E8111EACF0B
:10166000E114F10451F1A401400F511D429552952E
:10167000507F5427407F5427BE016E5F7F4FCE01BD
:1016800001960E94CF08182F8130B1F4A6014A0DAF
:101690005B1D97016A8189810E940D17813069F075
:1016A00010E00BC012E009C014E007C010E005C054
:1016B00010E003C010E001C010E0812F0F900F90E8
:1016C000DF91CF911F910F91FF90EF90DF90CF901E
:1016D000BF90AF909F908F907F906F900895809172
:1016E0006500853071F085E890E00E9478108130C7
:1016F00011F0873029F485E08093650081E008953A
:1017000080E00895AF92BF92CF92DF92EF92FF9266
:101710000F931F93CF93DF931F92CDB7DEB76C016A
:1017200090916500953009F050C0C114D10409F4BE
:101730004EC081E0898300E043C0A02EB12CF501AA
:10174000E658FF4F60E080810E946611813009F009
:1017500040C010E029C0E12EF12CF701EA58FF4FFC
:10176000BE016F5F7F4F80810E945712813099F5D3
:101770008981811118C061E0F501E658FF4F808131
:101780000E946611813049F59701220F331F220F05
:10179000331F2A593F4FF901EA0DFB1D8081F601E5
:1017A000808386E01DC01F5F1430A8F2F501E65863
:1017B000FF4F61E080810E946611813081F40F5FEC
:1017C000043008F4BACF87E00BC084E009C083E09E
:1017D00007C080E005C080E003C080E001C080E079
:1017E0000F90DF91CF911F910F91FF90EF90DF90BD
:1017F000CF90BF90AF900895CF93C82F80FF05C0C2
:1018000061E08AE00E94661104C060E08AE00E9404
:101810006611C1FF05C061E08BE00E94661104C043
:1018200060E08BE00E946611C2FF05C061E08CE0C1
:101830000E94661104C060E08CE00E946611C3FF44
:1018400005C061E08DE00E94661104C060E08DE09B
:101850000E946611CF91089561E089E00E946611AF
:1018600021E030E040E050E060E070E080E090E0B7
:101870000E94DF0F60E089E00E9466110895CF9317
:10188000C82F60E087E00E9466118C2F82958F70D0
:101890000E94FC0B0E942C0C21E030E040E050E064
:1018A00060E070E080E090E00E94DF0F8C2F8F708E
:1018B0000E94FC0B0E942C0C22E030E040E050E043
:1018C00060E070E080E090E00E94DF0F81E0CF9167
:1018D000089580917E00863091F185E890E00E9425
:1018E0007810813011F0873049F524E130E040E094
:1018F00050E060E070E080E090E00E94DF0F60E088
:1019000087E00E94661160E089E00E94661183E32F
:101910000E943F0C82E30E943F0C88E20E943F0C31
:101920008CE00E943F0C86E00E943F0C81E00E9408
:101930003F0C86E080937E0081E0089580E008956A
:1019400090917E00963089F4833088F4613188F478
:10195000282F30E02E5F3F4F862F90E4299F800D87
:1019600011240E943F0C81E0089585E0089583E0F2
:10197000089582E00895CF9390917E00963041F5CE
:10198000C82F61E087E00E9466118C2F82958F70CE
:101990000E94FC0B0E942C0C21E030E040E050E063
:1019A00060E070E080E090E00E94DF0F8C2F8F708D
:1019B0000E94FC0B0E942C0C22E030E040E050E042
:1019C00060E070E080E090E00E94DF0F81E001C005
:1019D00085E0CF910895CF93DF93EC0180917E0055
:1019E000863049F403C021960E94BB0C8881811186
:1019F000FACF81E001C085E0DF91CF91089581E0C9
:101A00000E943F0C81E008950F931F93CF93DF93C3
:101A1000EC018B010E94FF0C60E080E00E94A00CB2
:101A2000813089F4CE010E94EB0C813071F460E0CA
:101A30000E94A00C813059F4C8010E94EB0C813047
:101A400039F080E005C080E003C080E001C080E0A4
:101A5000DF91CF911F910F910895CF93DF93CDB771
:101A6000DEB761970FB6F894DEBF0FBECDBF41E081
:101A7000BE016F5F7F4F0E940218CE0101960E9447
:101A8000EB0C81E061960FB6F894DEBF0FBECDBFC0
:101A9000DF91CF91089580917F00853051F00E94B1
:101AA0001A0F813029F485E080937F0081E008954A
:101AB00080E008950F931F93CF93DF9300D000D061
:101AC000CDB7DEB79C0190917F009530F1F42115E0
:101AD0003105E9F0890119821A821B821C82BE013C
:101AE0006F5F7F4F80E00E94420F813091F46981E7
:101AF0007A818B819C812AE030E040E050E00E94B6
:101B0000971EF801208381E005C084E003C083E0D4
:101B100001C080E00F900F900F900F90DF91CF9158
:101B20001F910F91089580918000863049F00E94A6
:101B3000E519813039F486E08093800081E00895D2
:101B400086E0089580E00895DF92EF92FF920F9370
:101B50001F93CF93DF9381115DC0D82E082F10E023
:101B60007801EE0CFF1CEE0CFF1CC701800F911FCB
:101B7000EC01C75EDA4F60E089810E94661160E087
:101B80008A810E946611E0E01CC0ED15C9F0D80101
:101B9000AA0FBB1FAA0FBB1FA00FB11FA75EBA4F92
:101BA0002C918E2F90E0DC01AA0FBB1FAA0FBB1F48
:101BB0008A0F9B1FDC01A75EBA4F8C91281719F082
:101BC000EF5FEE2311F3E13069F4F801EE0FFF1F30
:101BD000EE0FFF1FE00FF11FE75EFA4F80810E94BA
:101BE000351B12C0F0E0E059FA4F808181110CC022
:101BF000F801EE0FFF1FEE0FFF1FE00FF11FE75E72
:101C0000FA4F80810E94351BF801E059FA4F10828B
:101C100081E001C082E0DF91CF911F910F91FF9091
:101C2000EF90DF900895FF920F931F93CF93DF9370
:101C300090918000963009F057C0811157C06536E9
:101C400008F056C0423008F055C0082F10E0F801E7
:101C5000E059FA4F9081913009F44EC0F62E61118F
:101C600004C00E94A40D81E048C0411112C025E0CB
:101C7000209FC001219F900D1124EC01C75EDA4F17
:101C800061E089810E94661160E08A810E9466118C
:101C900013C0413089F425E0209FC001219F900DA1
:101CA0001124EC01C75EDA4F60E089810E94661161
:101CB00061E08A810E946611F801E059FA4F81E0E3
:101CC0008083F801EE0FFF1FEE0FFF1FE00FF11FE3
:101CD000E75EFA4F4381548160E070E02F2D8081F0
:101CE0000E94011A81E009C087E007C082E005C0B8
:101CF00083E003C084E001C085E0DF91CF911F91B4
:101D00000F91FF900895CF93DF93C0917205D0E0BB
:101D10000E94DA1BCD58DA4F888390917205E92F23
:101D2000F0E0ED58FA4F80818D3071F40E94931BE2
:101D3000E0917205F0E0ED58FA4F108210927205B2
:101D400081E0809371051DC0883051F4992341F0E2
:101D50000E94931B8091720581508093720511C07F
:101D6000883079F090917206913021F48AE20E94D5
:101D7000931B02C00E94931B809172058F5F80931A
:101D80007205DF91CF91089580918100833081F0B9
:101D90000E947D1B813011F0873049F483E89EE07A
:101DA0000E94C51B83E08093810081E0089580E05C
:101DB0000895CF93DF93009781F020918100223026
:101DC00079F0EC010E94A617682F70E0CE010E9406
:101DD0009E1B813021F020E003C024E001C021E0FF
:101DE000822FDF91CF910895BC01892BA1F08091C2
:101DF0008100823099F080917105813071F41092E8
:101E0000710583E795E00E94F11783E795E00E9452
:101E1000E51785E0089584E0089581E0089581E064
:101E20008093720608951092720681E008950E94D0
:101E30002A08FFCF80918200873011F120E013C083
:101E40003BB3E22FF0E0EE0FFF1FED57FF4F81E0B5
:101E500090E0008002C0880F991F0A94E2F78095F5
:101E600083238BBB2F5F222359F397E096B986B16A
:101E70008F7D86B986B186B99093820081E00895FE
:101E800088E00895CF92DF92EF92FF92CF93DF9395
:101E900090918200973009F061C06115710509F4D5
:101EA0005FC037B190E0FC01EE0FFF1FED57FF4F11
:101EB0002081232B27B947B1318150E4359F900110
:101EC0001124242B27B926B1206826B926B1206415
:101ED00026B9349BFECF44B125B130E0322F222702
:101EE000242B880F991FFC01ED57FF4F8181833010
:101EF00041F0813069F08823A1F0C12CD12C76010A
:101F000018C0C12CD12C76016894E5F8F6F811C000
:101F10000F2EC12CF0E4DF2EFCE9EF2EFD2CF02D6E
:101F200008C00F2EC12CF0E4DF2EFCE9EF2EFD2CB3
:101F3000F02DEB01B90180E090E00E94641DA70143
:101F400096010E94161E0E94351D688379838A833C
:101F50009B8386B1806186B981E003C086E001C0C1
:101F600085E0DF91CF91FF90EF90DF90CF900895C3
:101F70001F920F920FB60F9211242F933F934F93FE
:101F80005F936F937F938F939F93AF93BF93EF93E1
:101F9000FF93E0917306F09174060995FF91EF911C
:101FA000BF91AF919F918F917F916F915F914F9171
:101FB0003F912F910F900FBE0F901F9018952F9269
:101FC0003F924F925F926F927F928F929F92AF92C9
:101FD000BF92CF92DF92EF92FF920F931F93CF9316
:101FE000DF9300D000D000D0CDB7DEB7222E332E45
:101FF000442E552E662E79838A839B83912C1D82D5
:102000001C82B0E0F0E0E0E0712C812C44C02D2D6A
:102010003E2D4F2D502F612F7A2F8B2D9C2DA1E01F
:102020000E94CE1ED22EE32EF42E052F162FA72FA0
:10203000B82EC92E0AC0D12CE12CF12C00E010E002
:10204000A0E0B12CC12CAD80EE832D2D3E2D4F2D67
:10205000502F612F7A2F8B2D9C2D2B383105410568
:102060005105610571058105910589F280F2EE81C6
:10207000292D3A2D4C815B2F6F2F7E2F872D982D88
:10208000A1E00E94CE1E922E3D834C83B52FF62FE9
:10209000E72F782E892E292D3D814C815B2F6F2FC4
:1020A0007E2F872D982DA22CB32CC42CD52CE62C5A
:1020B000F9800A811B810E94DA1E08F4BCCF2696A3
:1020C0000FB6F894DEBF0FBECDBFDF91CF911F9149
:1020D0000F91FF90EF90DF90CF90BF90AF909F90C7
:1020E0008F907F906F905F904F903F902F900895CA
:1020F000AC01892B09F4E4C090E0D7C0E92FF0E0EF
:10210000EE0FFF1FEE0FFF1FE40FF51F3181383078
:1021100008F0D8C020812130C1F138F0223009F414
:1021200064C0233009F491C0CFC02AB361E070E0ED
:10213000DB0102C0AA0FBB1F3A95E2F78A2F8095F8
:1021400082238ABBAAB38281282F30E0018002C09B
:10215000220F331F0A94E2F72A2B2ABB8BB301808C
:1021600002C0660F771F0A94E2F7609568236BBB85
:102170006BB38381282F30E0018002C0220F331F10
:102180000A94E2F7262B2BBB8FC027B361E070E0E7
:10219000DB0102C0AA0FBB1F3A95E2F78A2F809598
:1021A000822387BBA7B38281282F30E0018002C041
:1021B000220F331F0A94E2F72A2B27BB88B3018032
:1021C00002C0660F771F0A94E2F76095682368BB28
:1021D00068B38381282F30E0018002C0220F331FB3
:1021E0000A94E2F7262B28BB5FC024B361E070E0BD
:1021F000DB0102C0AA0FBB1F3A95E2F78A2F809538
:10220000822384BBA4B38281282F30E0018002C0E6
:10221000220F331F0A94E2F72A2B24BB85B30180D7
:1022200002C0660F771F0A94E2F76095682365BBCA
:1022300065B38381282F30E0018002C0220F331F55
:102240000A94E2F7262B25BB2FC021B361E070E092
:10225000DB0102C0AA0FBB1F3A95E2F78A2F8095D7
:10226000822381BBA1B38281282F30E0018002C08C
:10227000220F331F0A94E2F72A2B21BB82B301807D
:1022800002C0660F771F0A94E2F76095682362BB6D
:1022900062B38381282F30E0018002C0220F331FF8
:1022A0000A94E2F7262B22BB9F5F943108F426CFD5
:1022B000509377064093760681E0809375060895E3
:1022C00085E0089583E0089584E00895853108F05D
:1022D00090C090917506992309F48DC0E82FF0E025
:1022E000CF01880F991F880F991FE0917606F09112
:1022F0007706E80FF91F8081813021F130F08230BC
:10230000F1F1833009F458C078C0613069F42BB31F
:1023100081E090E0018002C0880F991F0A94E2F7E3
:10232000822B8BBB81E008952BB381E090E001808C
:1023300002C0880F991F0A94E2F7809582238BBB15
:1023400081E00895613069F428B381E090E0018074
:1023500002C0880F991F0A94E2F7822B88BB81E0A4
:10236000089528B381E090E0018002C0880F991F92
:102370000A94E2F78095822388BB81E0089561305A
:1023800069F425B381E090E0018002C0880F991FB5
:102390000A94E2F7822B85BB81E0089525B381E0A2
:1023A00090E0018002C0880F991F0A94E2F780959F
:1023B000822385BB81E00895613069F422B381E016
:1023C00090E0018002C0880F991F0A94E2F7822BE7
:1023D00082BB81E0089522B381E090E0018002C0D9
:1023E000880F991F0A94E2F78095822382BB81E0CF
:1023F000089582E0089586E0089584E00895853187
:1024000008F04FC090917506992309F44CC0E82F4D
:10241000F0E0CF01880F991F880F991FE091760691
:10242000F0917706E80FF91F8081813099F028F04C
:102430008230E9F0833041F138C02BB381E090E085
:10244000018002C0880F991F0A94E2F782278BBB94
:1024500081E0089528B381E090E0018002C0880FF8
:10246000991F0A94E2F7822788BB81E0089525B37B
:1024700081E090E0018002C0880F991F0A94E2F782
:10248000822785BB81E0089522B381E090E001803E
:1024900002C0880F991F0A94E2F7822782BB81E06D
:1024A000089582E0089586E0089584E008958531D6
:1024B00008F07CC090917506992309F479C0E82F43
:1024C000F0E0CF01880F991F880F991FE0917606E1
:1024D000F0917706E80FF91F80818130F9F030F034
:1024E0008230A1F1833009F449C064C049B35181FD
:1024F00081E090E09C01052E02C0220F331F0A9458
:10250000E2F7842F90E08223932302C0959587956C
:102510005A95E2F7FB01808381E0089546B351812B
:1025200081E090E09C01052E02C0220F331F0A9427
:10253000E2F7842F90E08223932302C0959587953C
:102540005A95E2F7FB01808381E0089543B35181FE
:1025500081E090E09C01052E02C0220F331F0A94F7
:10256000E2F7842F90E08223932302C0959587950C
:102570005A95E2F7FB01808381E0089540B35181D1
:1025800081E090E09C01052E02C0220F331F0A94C7
:10259000E2F7842F90E08223932302C095958795DC
:1025A0005A95E2F7FB01808381E0089582E0089567
:1025B00086E0089584E008951F920F920FB60F925F
:1025C00011242F933F934F935F936F937F938F9338
:1025D0009F93AF93BF93EF93FF93E0917C06F091AD
:1025E0007D060995FF91EF91BF91AF919F918F91DA
:1025F0007F916F915F914F913F912F910F900FBEFF
:102600000F901F9018951F920F920FB60F921124E2
:102610002F933F934F935F936F937F938F939F93EA
:10262000AF93BF93EF93FF93E0917A06F0917B060F
:102630000995FF91EF91BF91AF919F918F917F91FC
:102640006F915F914F913F912F910F900FBE0F901F
:102650001F9018951F920F920FB60F9211242F936F
:102660003F934F935F936F937F938F939F93AF931A
:10267000BF93EF93FF93E0917806F0917906099567
:10268000FF91EF91BF91AF919F918F917F916F914A
:102690005F914F913F912F910F900FBE0F901F9020
:1026A000189590E00EC0292F30E0F901EE0FFF1FC2
:1026B0002E0F3F1FF901E25EFA4F2081281719F013
:1026C0009F5F992381F3892F90E0FC01EE0FFF1F9C
:1026D000EE0FFF1FE158F94F4081518162817381F4
:1026E000411551056105710581F0880F991F880F0B
:1026F000991FFC01E158F94F4150510961097109D5
:102700004083518362837383089523B72E7F23BF51
:1027100023B72D7F23BF23B72B7F23BF29B72E7F5E
:1027200029BFFC01ED57F94F24E02083E091840696
:10273000F09185060995089580917E06813061F1BA
:1027400020E024C0822F90E0FC01EE0FFF1FE80F75
:10275000F91FE25EFA4F3081332319F03330F0F481
:102760000FC0FC01EE0FFF1FE80FF91FE25EFA4FEA
:102770003281311105C013BE39B73C7F39BF12BE5B
:10278000FC01ED57F94F31E030832F5F2223D1F266
:1027900081E080937E06089583E0089585E00895A2
:1027A0000F931F93CF93DF93890181114AC0C82FE4
:1027B000D0E0FE01ED57F94F8081882309F443C032
:1027C000823009F442C082E0FE01ED57F94F808368
:1027D000FE01EE0FFF1FEC0FFD1FE25EFA4F80813E
:1027E000882321F0833098F185E034C0CB01BA0111
:1027F0002FEF30E040E050E00E94971EFE01EE0F08
:10280000FF1FEE0FFF1FE158F94F208331834283F2
:102810005383262F372F89B7816089BF1093850690
:1028200000938406CE01880F991FC80FD91FC25E7E
:10283000DA4F898183BF232B61F0619562BF81E00C
:1028400009C086E007C082E005C087E003C081E0E0
:1028500001C081E0DF91CF911F910F910895811107
:1028600023C090E0FC01ED57F94F20812223F1F0C5
:102870002230F1F4FC01EE0FFF1FE80FF91FE25EBA
:10288000FA4F2081222319F02330A0F406C023B789
:10289000287F23BF29B72C7F29BFFC01ED57F94FB3
:1028A00023E0208381E0089586E0089582E0089582
:1028B00088E0089585E008951F920F920FB60F9259
:1028C00011242F933F934F935F936F937F938F9335
:1028D0009F93AF93BF93EF93FF9380E00E945113B8
:1028E000FF91EF91BF91AF919F918F917F916F91E8
:1028F0005F914F913F912F910F900FBE0F901F90BE
:1029000018951F920F920FB60F9211242F933F9399
:102910004F935F936F937F938F939F93AF93BF93E7
:10292000EF93FF9380E00E945113FF91EF91BF91CD
:10293000AF919F918F917F916F915F914F913F9157
:102940002F910F900FBE0F901F9018951F920F920E
:102950000FB60F9211242F933F934F935F936F9372
:102960007F938F939F93AF93BF93EF93FF9381E0F8
:102970000E945113FF91EF91BF91AF919F918F9161
:102980007F916F915F914F913F912F910F900FBE6B
:102990000F901F9018951F920F920FB60F9211244F
:1029A0002F933F934F935F936F937F938F939F9357
:1029B000AF93BF93EF93FF9381E00E945113FF9178
:1029C000EF91BF91AF919F918F917F916F915F91A7
:1029D0004F913F912F910F900FBE0F901F90189520
:1029E0001F920F920FB60F9211242F933F934F9384
:1029F0005F936F937F938F939F93AF93BF93EF9367
:102A0000FF9381E00E945113FF91EF91BF91AF912D
:102A10009F918F917F916F915F914F913F912F91F6
:102A20000F900FBE0F901F9018951F920F920FB628
:102A30000F9211242F933F934F935F936F937F9344
:102A40008F939F93AF93BF93EF93FF9381E00E9487
:102A50005113FF91EF91BF91AF919F918F917F9112
:102A60006F915F914F913F912F910F900FBE0F90FB
:102A70001F9018951F920F920FB60F9211242F934B
:102A80003F934F935F936F937F938F939F93AF93F6
:102A9000BF93EF93FF9382E00E945113FF91EF9158
:102AA000BF91AF919F918F917F916F915F914F9166
:102AB0003F912F910F900FBE0F901F9018951F926E
:102AC0000F920FB60F9211242F933F934F935F9362
:102AD0006F937F938F939F93AF93BF93EF93FF93E6
:102AE00082E00E945113FF91EF91BF91AF919F91AE
:102AF0008F917F916F915F914F913F912F910F90A7
:102B00000FBE0F901F9018958091D500863049F028
:102B100082E081B989E080B986E08093D50081E0C8
:102B2000089587E008958091D500863059F484EAAD
:102B300086BF06B607FEFDCF81B1887F883021F0C1
:102B400080E0089585E0089581E008959091D50092
:102B5000963029F5623028F588232CF190E0880F13
:102B6000991F682B63B984E886BF06B607FEFDCFC0
:102B700081B1887F883359F028F48831B1F08032F0
:102B800041F00BC0803489F0883429F006C088E316
:102B9000089580E2089588E4089580E0089585E02E
:102BA000089582E0089583E0089581E0089580917A
:102BB000D500863059F484EA86BF06B607FEFDCFFD
:102BC00081B1887F803121F080E0089585E008950B
:102BD00081E008958091D500863039F484E986BF7C
:102BE00006B604FCFDCF81E0089585E0089590913C
:102BF000D500963069F483B984E886BF06B607FE2F
:102C0000FDCF81B1887F883229F0803329F408957F
:102C100085E0089588E2089580E00895FC01909190
:102C2000D500963079F4309779F084EC86BF06B6FB
:102C300007FEFDCF81B1887F803541F483B1808369
:102C400081E0089585E0089584E0089580E0089586
:102C5000FC019091D500963079F4309779F084E8B2
:102C600086BF06B607FEFDCF81B1887F883541F467
:102C700083B1808381E0089585E0089584E008951C
:102C800080E008957F928F929F92AF92BF92CF92F1
:102C9000DF92EF92FF920F931F93CF93DF93782EE3
:102CA000EB017A0169018091D500863009F047C0B7
:102CB000209709F446C0232B09F445C077200CF473
:102CC00044C00E949315882309F44AC060E0872D10
:102CD0000E94A6158130D9F50BC04E018FEF881ADE
:102CE000980A88810E94F71575018823C9F1E401CB
:102CF000570181E0A81AB108EF2879F70E94D7158B
:102D0000813039F561E0872D0E94A615813019F5D3
:102D100008C0E6012196C6010E940E168130E9F432
:102D20006E0101501109A9F7C6010E9428168130D1
:102D3000B1F40E94EA15813099F080E011C085E07D
:102D40000FC084E00DC084E00BC083E009C080E0C8
:102D500007C080E005C080E003C080E001C080E0E3
:102D6000DF91CF911F910F91FF90EF90DF90CF9067
:102D7000BF90AF909F908F907F900895BF92CF9219
:102D8000DF92EF92FF920F931F93CF93DF93182F51
:102D9000062FEA0179018091D500863059F52097F8
:102DA00059F111235CF10E949315882361F160E0D1
:102DB000812F0E94A615B82E81E0B81221C0802F65
:102DC0000E94F71581110CC01EC06E018FEFC81A4A
:102DD000D80A88810E94F71578018823A1F0E601BE
:102DE000870101501109EF2881F70E94EA1581112E
:102DF00009C009C085E007C084E005C083E003C0C6
:102E000080E001C08B2DDF91CF911F910F91FF903A
:102E1000EF90DF90CF90BF9008950F931F93CF93C3
:102E2000DF931F92CDB7DEB7698389019A0141E034
:102E300050E0BE016F5F7F4F0E9442160F90DF91FE
:102E4000CF911F910F9108958091D6008730B9F0EE
:102E500087B3806487BB87B38F7D87BB87B38F7E43
:102E600087BB87B38F7787BB8DB18F7E8DB98DB1CF
:102E700080648DB987E08093D60081E0089588E072
:102E80000895FC019091D600973041F4309741F0BD
:102E9000779BFECF8FB1808381E0089586E008950F
:102EA00085E00895CF92DF92EF92FF921F93CF9328
:102EB000DF936C019091D6009730B1F47B0110E064
:102EC0000CC0E601C80FD91FCE010E944117813006
:102ED00069F49881992359F01F5F812F90E08E1536
:102EE0009F0578F381E003C086E001C080E0DF91B8
:102EF000CF911F91FF90EF90DF90CF9008951F9298
:102F00000F920FB60F9211242F933F934F935F931D
:102F10006F937F938F939F93AF93BF93EF93FF93A1
:102F2000E0918606F09187060995FF91EF91BF9198
:102F3000AF919F918F917F916F915F914F913F9151
:102F40002F910F900FBE0F901F901895AC0180E04D
:102F500001C08F5FFA01E80FF11D20812111F9CF27
:102F60008F5F0895FF920F931F93CF93DF938C0190
:102F7000EB010E94A617F82ECE010E94A6178F150E
:102F8000B8F0F816B8F030E009C0FE01E80FF91FFC
:102F90008081821788F0281788F03F5F832F90E0A8
:102FA000F801E80FF91F20812111EFCF81E007C060
:102FB00082E005C083E003C082E001C083E0DF91CE
:102FC000CF911F910F91FF900895AC0190E002C046
:102FD0009F5F1082FA01E90FF11D20812111F8CFC6
:102FE0000895DC0190E005C0FB01E20FF31F408370
:102FF0009F5F292F30E0FD01E20FF31F4081411157
:10300000F3CF08950F931F93CF93DF93FC018B01B0
:10301000413009F040C0C0E0D0E06AE070E00E94BA
:10302000831ECB01009711F02196F7CFDE01119698
:10303000A00FB11F1C922DC0A8014C0F5D1F9F0156
:10304000ADECBCEC0E94BF1E969587959695879532
:10305000969587959C01220F331F880F991F880F23
:10306000991F880F991F820F931F9F01281B390BEF
:10307000C901805DDA018C939F01ADECBCEC0E942C
:10308000BF1EFC01F695E795F695E795F695E79551
:103090002197309789F6DF91CF911F910F91089575
:1030A0008F929F92AF92BF92CF92DF92EF92FF9258
:1030B0000F931F93CF93DF93EC010E94A6170FEF9E
:1030C000080FC12CD12C760110E01EC0FE01E10FCB
:1030D000F11D60816E3211F41F5F18C070E0605303
:1030E0007109072E000C880B990B0E94661DA70121
:1030F00096010E94521C20E030E040E251E40E9420
:10310000161E6B017C011F5F101700F320E030E0FA
:1031100040E251E4C701B6010E94C31C4B015C01AF
:103120000F2EC12CD12CF0E8EF2EFFE3FF2EF02D57
:1031300024C020E030E040E251E4C701B6010E9423
:10314000C31C6B017C01FE01E10FF11D608170E089
:1031500060537109072E000C880B990B0E94661DA5
:10316000A70196010E94161E9B01AC01C501B40186
:103170000E94521C4B015C011F5F1017D0F2C50169
:10318000B401DF91CF911F910F91FF90EF90DF90ED
:10319000CF90BF90AF909F908F9008958F929F9205
:1031A000AF92BF92CF92DF92EF92FF920F931F9355
:1031B000CF93DF934B015C018A010E94351DC62E1F
:1031C000D72EE82EF92E262F372F482F592FD0E053
:1031D00009C0CA01B9012AE030E040E050E00E9495
:1031E000971EDF5F211531054105510591F7CFEF9E
:1031F000CD0F6C2D7D2D8E2D9F2D14C02AE030E03B
:1032000040E050E00E94971EDC01CB01C096A11D5A
:10321000B11DF801EC0FF11D8083622F732F842FF5
:10322000952FC150611571058105910539F76C2DF8
:103230007D2D8E2D9F2D0E94641D9B01AC01C5012B
:10324000B4010E94511C20E030E040E251E40E94B1
:10325000161E6B017C010E94351D21E02D0FF80127
:10326000ED0FF11D3EE23083DE5FF801E20FF11D4C
:1032700020E3260F20830E94641D9B01AC01C7013F
:10328000B6010E94511C20E030E040E251E40E946F
:10329000161E0E94351DF801ED0FF11D605D608363
:1032A000DF91CF911F910F91FF90EF90DF90CF9022
:1032B000BF90AF909F908F9008950F931F93E091D0
:1032C0008906F0E0EE0FFF1FEF5DFA4F80810E944C
:1032D000FF11813009F076C08091890690E09C0151
:1032E000220F331FF901EE0FFF1FEE0FFF1FEE0F2E
:1032F000FF1FE21BF30BE657F94F2585223009F03B
:1033000061C0880F991FFC01EE0FFF1FEE0FFF1F1A
:10331000EE0FFF1FE81BF90BE657F94F4185528569
:1033200063857485FC01EF5DFA4F2DE539E18181FC
:103330000E94D013813009F045C08091890690E049
:103340009C01220F331FF901EE0FFF1FEE0FFF1F2D
:10335000EE0FFF1FE21BF30BE657F94F01851285B5
:10336000238534854581568167817085041715074B
:1033700026073707B1F4880F991FFC01EE0FFF1FD6
:10338000EE0FFF1FEE0FFF1FE81BF90BE657F94F7B
:1033900081819281A381B48181879287A387B48739
:1033A00011C0880F991FFC01EE0FFF1FEE0FFF1FCA
:1033B000EE0FFF1FE81BF90BE657F94F41875287C5
:1033C000638774871F910F910895809188068130DB
:1033D00091F00E949C13813011F0833071F485E8E4
:1033E00090E00E947810813011F0873041F481E044
:1033F00080938806089580E0089580E0089580E035
:1034000008954F925F926F927F928F929F92AF92A8
:10341000BF92CF92DF92EF92FF920F931F93CF93C1
:10342000DF9300D000D000D0CDB7DEB790918806F2
:10343000913009F0F2C08111F2C0253608F0F1C0D8
:10344000E82FF0E0FE83ED83DF01AA0FBB1FFD0133
:10345000EE0FFF1FEE0FFF1FEE0FFF1FEA1BFB0B10
:10346000E657F94F9585923009F4DDC0222309F41F
:10347000DCC0122FC82E243661F4FD01EF5DFA4F37
:1034800061E080810E946611813009F4D0C080E043
:10349000D5C0CB01BA010E94641D9B01AC0160E064
:1034A00070E080E89FE30E94C31C4B015C01612F28
:1034B00070E080E090E00E94661DA50194010E94EA
:1034C000161E20E030E048EC52E40E94C31C2B01A1
:1034D0003C019B01AC01C501B4010E94511C4B0190
:1034E0005C01ED81FE81EE0FFF1FEF5DFA4FD18091
:1034F0008D2D90E0FC01EE0FFF1F8E0F9F1FFC0132
:10350000E25EFA4FE1818E2F90E0FC013197E730C7
:10351000F10508F08EC0E65DFF4F0C94B91E61E026
:1035200070E00BC060E470E008C060E071E005C0CE
:1035300060E074E002C068E070E080E090E00E942B
:10354000641D20E034E244E759E40E94C31C69830F
:103550007A838B839C83C09289069B01AC01C30153
:10356000B2010E94C31CED80FE80EE0CFF1C87019F
:10357000000F111F000F111F000F111F0E191F093F
:103580000657194F0E94351DF801618372838383AA
:10359000948329813A814B815C81C501B4010E94E9
:1035A000C31C0E94351DF80165837683878390874D
:1035B000C082F701EF5DFA4F61E080810E946611E1
:1035C0008130C9F58EE02D813E81829FF001839F7D
:1035D000F00D1124E657F94F4181528163817481C6
:1035E0002DE539E18D2D0E94D013813031F58EE02B
:1035F0002D813E81829FF001839FF00D1124E657BB
:10360000F94F85819681A781B08581879287A387AD
:10361000B48782E0858781E011C082E00FC083E03B
:103620000DC084E00BC085E009C081E007C081E0E7
:1036300005C080E003C080E001C080E026960FB6A0
:10364000F894DEBF0FBECDBFDF91CF911F910F91D8
:10365000FF90EF90DF90CF90BF90AF909F908F90B2
:103660007F906F905F904F900895CF93DF939091EC
:1036700088069130B1F5811136C0C82FD0E0CE0157
:10368000880F991FFC01EE0FFF1FEE0FFF1FEE0FBB
:10369000FF1FE81BF90BE657F94F8585823029F5A6
:1036A000FE01EE0FFF1FEF5DFA4F60E080810E9488
:1036B00066118130E1F48EE08C9FF0018D9FF00D5A
:1036C0001124E657F94F83E08587FE01EE0FFF1FB7
:1036D000EF5DFA4F81810E942F14813051F080E01C
:1036E00009C082E007C083E005C085E003C080E038
:1036F00001C081E0DF91CF910895809198068130DB
:1037000081F010BC87E689B982E08BB988E18AB97B
:1037100080E880BD80B5866880BD81E08093980692
:10372000089587E0089590919806992329F05D9B6C
:10373000FECF8CB981E0089586E00895EF92FF9264
:103740000F931F93CF93DF9320919806222399F034
:103750008B017C01C0E0D0E009C0F701EC0FFD1F38
:1037600080810E94931B813041F42196C017D107BC
:10377000A0F381E003C086E001C080E0DF91CF913B
:103780001F910F91FF90EF9008959C0190919806E2
:10379000992361F02115310559F08AB180688AB901
:1037A00030939C0620939B0681E0089586E008955F
:1037B00085E008958CB108951F920F920FB60F9275
:1037C00011242F933F934F935F936F937F938F9326
:1037D0009F93AF93BF93EF93FF93E0919D06F0917A
:1037E0009E060995FF91EF91BF91AF919F918F91A7
:1037F0007F916F915F914F913F912F910F900FBEED
:103800000F901F9018951F920F920FB60F921124D0
:103810002F933F934F935F936F937F938F939F93D8
:10382000AF93BF93EF93FF93E0919B06F0919C06BB
:103830000995FF91EF91BF91AF919F918F917F91EA
:103840006F915F914F913F912F910F900FBE0F900D
:103850001F9018951F920F920FB60F9211242F935D
:103860003F934F935F936F937F938F939F93AF9308
:10387000BF93EF93FF93E0919906F0919A06099513
:10388000FF91EF91BF91AF919F918F917F916F9138
:103890005F914F913F912F910F900FBE0F901F900E
:1038A00018955058BB27AA270E94691C0C94DC1D50
:1038B0000E94CE1D38F00E94D51D20F039F49F3FA4
:1038C00019F426F40C94CB1D0EF4E095E7FB0C9450
:1038D000C51DE92F0E94ED1D58F3BA176207730743
:1038E0008407950720F079F4A6F50C940F1E0EF4CA
:1038F000E0950B2EBA2FA02D0B01B90190010C0100
:10390000CA01A0011124FF27591B99F0593F50F417
:10391000503E68F11A16F040A22F232F342F44276F
:10392000585FF3CF469537952795A795F040539567
:10393000C9F77EF41F16BA0B620B730B840BBAF037
:103940009150A1F0FF0FBB1F661F771F881FC2F7A2
:103950000EC0BA0F621F731F841F48F487957795B6
:103960006795B795F7959E3F08F0B0CF9395880F70
:1039700008F09927EE0F9795879508950E94A11D4D
:1039800008F481E008950E94D71C0C94DC1D0E946D
:10399000D51D58F00E94CE1D40F029F45F3F29F05C
:1039A0000C94C51D51110C94101E0C94CB1D0E943B
:1039B000ED1D68F39923B1F3552391F3951B550B36
:1039C000BB27AA2762177307840738F09F5F5F4FF2
:1039D000220F331F441FAA1FA9F335D00E2E3AF031
:1039E000E0E832D091505040E695001CCAF72BD049
:1039F000FE2F29D0660F771F881FBB1F261737079A
:103A00004807AB07B0E809F0BB0B802DBF01FF27CB
:103A100093585F4F3AF09E3F510578F00C94C51DC6
:103A20000C94101E5F3FE4F3983ED4F3869577958F
:103A30006795B795F7959F5FC9F7880F911D969584
:103A4000879597F90895E1E0660F771F881FBB1FE0
:103A5000621773078407BA0720F0621B730B840B8D
:103A6000BA0BEE1F88F7E09508950E94F51D88F0C7
:103A70009F5798F0B92F9927B751B0F0E1F0660F32
:103A8000771F881F991F1AF0BA95C9F714C0B13073
:103A900091F00E940F1EB1E008950C940F1E672F45
:103AA000782F8827B85F39F0B93FCCF386957795A2
:103AB0006795B395D9F73EF490958095709561958B
:103AC0007F4F8F4F9F4F0895E89409C097FB3EF4B6
:103AD00090958095709561957F4F8F4F9F4F99235B
:103AE000A9F0F92F96E9BB279395F69587957795D9
:103AF0006795B795F111F8CFFAF4BB0F11F460FF99
:103B00001BC06F5F7F4F8F4F9F4F16C0882311F0F0
:103B100096E911C0772321F09EE8872F762F05C004
:103B2000662371F096E8862F70E060E02AF09A959F
:103B3000660F771F881FDAF7880F9695879597F994
:103B40000895990F0008550FAA0BE0E8FEEF16162E
:103B50001706E807F907C0F012161306E407F50781
:103B600098F0621B730B840B950B39F40A2661F0F5
:103B7000232B242B252B21F408950A2609F4A14098
:103B8000A6958FEF811D811D089597F99F6780E8A5
:103B900070E060E008959FEF80EC089500240A949F
:103BA0001616170618060906089500240A94121618
:103BB0001306140605060895092E0394000C11F44B
:103BC000882352F0BB0F40F4BF2B11F460FF04C0F8
:103BD0006F5F7F4F8F4F9F4F089557FD9058440F51
:103BE000551F59F05F3F71F04795880F97FB991F5C
:103BF00061F09F3F79F08795089512161306140619
:103C0000551FF2CF4695F1DF08C0161617061806A5
:103C1000991FF1CF86957105610508940895E89480
:103C2000BB2766277727CB0197F908950E94291EA5
:103C30000C94DC1D0E94CE1D38F00E94D51D20F092
:103C4000952311F00C94C51D0C94CB1D11240C94DC
:103C5000101E0E94ED1D70F3959FC1F3950F50E06B
:103C6000551F629FF001729FBB27F00DB11D639F2E
:103C7000AA27F00DB11DAA1F649F6627B00DA11DD4
:103C8000661F829F2227B00DA11D621F739FB00D7A
:103C9000A11D621F839FA00D611D221F749F3327EA
:103CA000A00D611D231F849F600D211D822F762F83
:103CB0006A2F11249F5750409AF0F1F088234AF060
:103CC000EE0FFF1FBB1F661F771F881F91505040CC
:103CD000A9F79E3F510580F00C94C51D0C94101E51
:103CE0005F3FE4F3983ED4F3869577956795B79553
:103CF000F795E7959F5FC1F7FE2B880F911D96956D
:103D0000879597F9089597FB072E16F4009407D02E
:103D100077FD09D00E94E31E07FC05D03EF4909584
:103D200081959F4F0895709561957F4F0895A1E209
:103D30001A2EAA1BBB1BFD010DC0AA1FBB1FEE1F25
:103D4000FF1FA217B307E407F50720F0A21BB30B70
:103D5000E40BF50B661F771F881F991F1A9469F7EC
:103D600060957095809590959B01AC01BD01CF0148
:103D70000895EE0FFF1F0590F491E02D0994A29F86
:103D8000B001B39FC001A39F700D811D1124911D2F
:103D9000B29F700D811D1124911D08950024A7FD6F
:103DA00000942A0F301D401D501D601D701D801D88
:103DB000901D08952A153B054C055D056E057F0590
:103DC000800791070895AA1BBB1B51E107C0AA1FDA
:103DD000BB1FA617B70710F0A61BB70B881F991FAC
:103DE0005A95A9F780959095BC01CD010895F89456
:023DF000FFCF03
:103DF200020504110204313233783435362B373858
:103E0200392B302E3D2D0304050600010213050453
:103E12000702060003020501010206010102070171
:103E22000102020001020300010204000103050075
:103E32000100010100000201000003010000040171
:103E42000000050100000601000007010003020155
:103E52000003030100030401000102000003070143
:103E62000103060101050643757272656E742054E2
:103E7200656D702069733A00202020272D27205479
:103E82006F2045786974002020002020202045788A
:103E9200636565646564002020204D617820416D72
:103EA2006F756E7400456E74657220416D6F756E2C
:103EB20074002050726F63657373696E672E2E2EC5
:103EC2002E002020506C6561736520576169740073
:103ED20020202020202046756E64002020496E7329
:103EE200756666696369656E740020205472616E3E
:103EF20073616374696F6E0020202053756363657C
:103F0200737366756C002020596F75722042616C64
:103F1200616E636500322E446973706C617920545E
:103F2200656D7000312E496E736572742043617243
:103F3200640020496E636F72726563742050494E4B
:103F420000437573746F6D65722053657276696391
:103F52006500506C6561736520436F6E74616374B4
:103F62000020202054727920416761696E00456EFD
:103F720074657220596F75722050494E00696E2027
:103F820074686520446174616261736500596F757C
:103F9200722043617264206973206E6F7400202066
:103FA2002020437573746F6D6572002020202057A6
:103FB200656C636F6D6500202050726573732042DB
:103FC2007574746F6E0057616974696E6720666FED
:103FD20072204361726400526563656976696E6737
:103FE200204461746100427574746F6E2050726572
:103FF200737365640050726F6772616D6D65640002
:104002002A2A2A2A2A4C4F434B45442A2A2A2A2A58
:10401200002A2A2A2A2A2A41544D2A2A2A2A2A2AC4
:104022002A000A50726F6772616D6D696E67204D6A
:104032006F64650D000A55534552204D6F64650D3E
:10404200000A596F757220496E7075743A20000A21
:10405200496E76616C69642043686F6963652C20E0
:104062004F6E6C792043686F6F73652066726F6D57
:10407200203120746F20330D000A4D617820416D8C
:104082006F756E743A20000A496E76616C6964201D
:1040920042616C616E63652C204F6E6C7920372013
:1040A200636861726163746572732065672E203183
:1040B2003233342E35360D000A50414E3A20000A72
:1040C200496E76616C69642050414E2C204F6E6CB3
:1040D20079203920636861726163746572730D00BF
:1040E2000A42616C616E63653A20000A496E76612C
:1040F2006C69642042616C616E63652C204F6E6C4A
:1041020079203720636861726163746572730D0090
:104112000A446174612053617665642C20466C61A7
:1041220067205261697365640A000A41544D205048
:10413200494E3A20000A496E636F727265637420B9
:1041420050494E0D000A4C6F6164696E672E2E2E27
:104152000D000A496E76616C69642050494E2C202C
:104162004F6E6C792034206368617261637465728A
:10417200730D000A312E416464204E657720437529
:1041820073746F6D65720A0D322E557064617465B9
:10419200204D617820416D6F756E740A0D332E4586
:1041A2007869740D000A312E416464204E657720CF
:1041B200437573746F6D65720A0D322E55706461AA
:1041C2007465204578697374696E672043757374EA
:1041D2006F6D65720A0D332E557064617465204DE2
:1041E200617820416D6F756E740A0D342E457869C1
:1041F200740D000A44617461204261736520697321
:1042020020656D7074792C20796F75206D757374CB
:10421200207265676973746572206174206C6561D0
:104222007374206F6E6520637573746F6D65720DA4
:10423200000A496E76616C696420496E707574215A
:10424200000A41544D2069732042757379204E6FE4
:10425200772C2050726F6772616D6D696E67204DA9
:104262006F64652077696C6C20737461727420616D
:10427200667465722063757272656E742050726F17
:10428200636573730D0041544D205465726D696E00
:10429200616C0D004C6F6164696E672E2E003835BB
:1042A20032300041444D494E00000E0F64000003BD
:0442B20000100000F8
:00000001FF
