S01A0000546865726D6F737461742050726F6A6563742E73726563E8
S11300000C9431000C944E000C944E000C944E0051
S11300100C949F090C94C4090C9430090C94550950
S11300200C947A090C940B090C94E6080C94C108FE
S11300300C944E000C944E000C944E000C944E0004
S11300400C949B040C944E000C944E000C944E00A3
S11300500C944E00E30BEF0BE60BE90BEC0BE30BFC
S1130060E30B11241FBECFE5D8E0DEBFCDBF10E007
S1130070A0E6B0E0E0E2F0E202C005900D92A63FF7
S1130080B107D9F721E0A6EFB0E001C01D92A43278
S1130090B207E1F70E94FA030C940E100C940000CE
S11300A080916500843061F187B3886087BB0E94CA
S11300B0D10C8130E1F460E080E00E94590281308B
S11300C0C1F485EC90E00E9490028130A1F460E0DC
S11300D00E945902813089F485ED90E00E949002DB
S11300E0813069F484E08093650081E0089580E0C4
S11300F0089580E0089580E0089580E0089580E008
S11301000895CF92DF92EF92FF920F931F93809105
S11301106500843009F092C08FEF90E00E94F20CE9
S11301208630A1F46FEF70E08BEF90E00E94590AE3
S113013065E081E00E945902813009F081C08FEFAF
S113014090E00E949002813009F07CC087EF90E03B
S11301500E94D1028130B1F48091F70041E068EF50
S113016070E090E00E94120A65E080E00E9459026B
S1130170813009F069C088EF90E00E9490028130DC
S113018009F064C0C090FB00D090FC00E090FD003A
S1130190F090FE002091F700822F90E0A0E0B0E004
S11301A09C01AD012C193D094E095F09A4E6B0E09C
S11301B00E94C60F02E310E020E030E0A90198019C
S11301C02C193D094E095F090E948F0F2093F600F8
S11301D0253610F01092F6006CE080E00E9459027F
S11301E08130B1F586EE90E00E949002813091F565
S11301F06CE080E00E945902813071F58091F60034
S113020090E00E94A402813049F580E690E00E94CB
S1130210F50980E00E941B0340E06091F60080E055
S11302200E948A032BE930E040E050E060E070E097
S113023080E090E00E94C20481E011C085E00FC01C
S113024080E00DC080E00BC080E009C080E007C002
S113025080E005C080E003C080E001C080E01F9121
S11302600F91FF90EF90DF90CF9008950E9450007F
S1130270813039F48FB780688FBF0E94810081304C
S1130280E1F380E0089580916600853071F080E8A4
S113029090E00E945205813011F0873029F485E006
S11302A08093660081E0089580E00895AF92BF9244
S11302B0CF92DF92EF92FF920F931F93CF93DF932E
S11302C01F92CDB7DEB77C0190916600953009F09E
S11302D050C0E114F10409F44EC081E0898300E0C8
S11302E043C0A02EB12CF501E958FF4F60E0808196
S11302F00E944006813009F040C010E029C0C12EA0
S1130300D12CF601ED58FF4FBE016F5F7F4F808106
S11303100E943107813099F58981811118C061E00B
S1130320F501E958FF4F80810E944006813049F56C
S1130330C601880F991F8C0D9D1D89599F4FFC0183
S1130340EA0DFB1D8081F701808386E01DC01F5FDD
S11303501430A8F2F501E958FF4F61E080810E9452
S11303604006813081F40F5F033008F4BACF87E090
S11303700BC084E009C083E007C080E005C080E0D2
S113038003C080E001C080E00F90DF91CF911F9106
S11303900F91FF90EF90DF90CF90BF90AF900895B2
S11303A0CF93C82F80FF05C061E08AE00E94400619
S11303B004C060E08AE00E944006C1FF05C061E01D
S11303C08BE00E94400604C060E08BE00E9440067F
S11303D0C2FF05C061E08CE00E94400604C060E0FA
S11303E08CE00E944006C3FF05C061E08DE00E94DE
S11303F0400604C060E08DE00E944006CF9108955D
S113040061E089E00E94400621E030E040E050E0F5
S113041060E070E080E090E00E94C20460E089E067
S11304200E9440060895CF93C82F60E087E00E94A1
S113043040068C2F82958F700E94D0010E9400028A
S11304408C2F8F700E94D0010E94000281E0CF9116
S1130450089580917A00863059F180E890E00E94F6
S11304605205813011F0873011F560E087E00E9479
S1130470400660E089E00E94400683E30E94130284
S113048082E30E94130288E20E94130288E00E9421
S1130490130281E00E94130286E00E9413028CE0A2
S11304A00E94130286E080937A0081E0089580E040
S11304B0089590917A00963089F4833088F46131FC
S11304C088F4282F30E02E5F3F4F862F90E4299F39
S11304D0800D11240E94130281E0089585E008959F
S11304E083E0089582E00895CF9390917A00963046
S11304F0A1F4C82F61E087E00E9440068C2F82950A
S11305008F700E94D0010E9400028C2F8F700E9475
S1130510D0010E94000281E001C085E0CF910895DE
S1130520CF93DF93EC0180917A00863049F403C0C5
S113053021960E94740288818111FACF81E001C062
S113054085E0DF91CF910895CF93DF93CDB7DEB7E8
S113055061970FB6F894DEBF0FBECDBF41E0BE0178
S11305606F5F7F4F0E94120ACE0101960E94900293
S113057081E061960FB6F894DEBF0FBECDBFDF9168
S1130580CF91089580917B00853051F00E94FD0346
S1130590813029F485E080937B0081E0089580E038
S11305A008950F931F93CF93DF9300D000D0CDB75E
S11305B0DEB79C0190917B009530F1F42115310553
S11305C0E9F0890119821A821B821C82BE016F5FC5
S11305D07F4F80E00E942504813091F469817A8103
S11305E08B819C812AE030E040E050E00E948F0F34
S11305F0F801208381E005C084E003C083E001C0EA
S113060080E00F900F900F900F90DF91CF911F918A
S11306100F91089580917C00863049F00E94390B37
S1130620813039F486E080937C0081E0089586E08F
S1130630089580E00895DF92EF92FF920F931F9345
S1130640CF93DF9381115DC0D82E082F10E078017D
S1130650EE0CFF1CEE0CFF1CC701800F911FEC0178
S1130660C551DF4F60E089810E94400660E08A81C5
S11306700E944006E0E01CC0ED15C9F0D801AA0FA5
S1130680BB1FAA0FBB1FA00FB11FA551BF4F2C91B9
S11306908E2F90E0DC01AA0FBB1FAA0FBB1F8A0F8D
S11306A09B1FDC01A551BF4F8C91281719F0EF5FF8
S11306B0EE2311F3E13069F4F801EE0FFF1FEE0FA2
S11306C0FF1FE00FF11FE551FF4F80810E94890C4D
S11306D012C0F0E0EE5FFE4F808181110CC0F80182
S11306E0EE0FFF1FEE0FFF1FE00FF11FE551FF4F4D
S11306F080810E94890CF801EE5FFE4F108281E038
S113070001C082E0DF91CF911F910F91FF90EF9094
S1130710DF900895FF920F931F93CF93DF939091EF
S11307207C00963009F057C0811157C0653608F037
S113073056C0423008F055C0082F10E0F801EE5FB3
S1130740FE4F9081913009F44EC0F62E611104C021
S11307500E941B0381E048C0411112C025E0209F84
S1130760C001219F900D1124EC01C551DF4F61E0C0
S113077089810E94400660E08A810E94400613C07D
S1130780413089F425E0209FC001219F900D112460
S1130790EC01C551DF4F60E089810E94400661E0B1
S11307A08A810E944006F801EE5FFE4F81E080835B
S11307B0F801EE0FFF1FEE0FFF1FE00FF11FE551D1
S11307C0FF4F4381548160E070E02F2D80810E94AF
S11307D0550B81E009C087E007C082E005C083E0D3
S11307E003C084E001C085E0DF91CF911F910F9198
S11307F0FF9008950E943601FFCF80917D008730DD
S113080011F120E013C03BB3E22FF0E0EE0FFF1F25
S1130810E258FF4F81E090E0008002C0880F991FEA
S11308200A94E2F7809583238BBB2F5F222359F32D
S113083097E096B986B18F7D86B986B186B99093D3
S11308407D0081E0089588E00895CF92DF92EF92D1
S1130850FF92CF93DF9390917D00973009F061C0B0
S11308606115710509F45FC037B190E0FC01EE0F2A
S1130870FF1FE258FF4F2081232B27B947B1318155
S113088050E4359F90011124242B27B926B1206808
S113089026B926B1206426B9349BFECF44B125B1D4
S11308A030E0322F2227242B880F991FFC01E258B5
S11308B0FF4F8181833041F0813069F08823A1F0BA
S11308C0C12CD12C760118C0C12CD12C760168948E
S11308D0E5F8F6F811C00F2EC12CF0E4DF2EFCE988
S11308E0EF2EFD2CF02D08C00F2EC12CF0E4DF2ECE
S11308F0FCE9EF2EFD2CF02DEB01B90180E090E036
S11309000E94800EA70196010E940E0F0E94510EB4
S1130910688379838A839B8386B1806186B981E009
S113092003C086E001C085E0DF91CF91FF90EF9096
S1130930DF90CF9008951F920F920FB60F9211245B
S11309402F933F934F935F936F937F938F939F93D3
S1130950AF93BF93EF93FF93E0910301F0910401F0
S11309600995FF91EF91BF91AF919F918F917F91E5
S11309706F915F914F913F912F910F900FBE0F9008
S11309801F9018952F923F924F925F926F927F9291
S11309908F929F92AF92BF92CF92DF92EF92FF928B
S11309A00F931F93CF93DF9300D000D01F92CDB746
S11309B0DEB7222E332E442E552E662E79838A835B
S11309C09B83912C1D821C82B0E0F0E0E0E0712C4E
S11309D0812C3DC02C2D3D2D4E2D5F2D602F712F70
S11309E08A2D9B2DA1E00E94D90FC22ED32EE42E76
S11309F0F52E062F172FA82EB92E08C0C12CD12CE6
S1130A00E12CF12C00E010E0A12CB12C2C2D3D2D7B
S1130A104E2D5F2D602F712F8A2D9B2DACE00E94EF
S1130A20EE0FC1F2B8F28C81292D3D81482F5B2F46
S1130A306F2F7E2F872D982DA1E00E94D90F922E23
S1130A403D834C83B52FF62FE72F782E892E292D41
S1130A503D814C815B2F6F2F7E2F872D982DA22CEB
S1130A60B32CC42CD52CE62CF9800A811B810E945E
S1130A70E50F20F20F900F900F900F900F90DF91E1
S1130A80CF911F910F91FF90EF90DF90CF90BF9087
S1130A90AF909F908F907F906F905F904F903F901A
S1130AA02F900895AC01892B09F4E4C090E0D7C0DD
S1130AB0E92FF0E0EE0FFF1FEE0FFF1FE40FF51F0D
S1130AC03181383008F0D8C020812130C1F138F0AC
S1130AD0223009F464C0233009F491C0CFC02AB392
S1130AE061E070E0DB0102C0AA0FBB1F3A95E2F798
S1130AF08A2F809582238ABBAAB38281282F30E073
S1130B00018002C0220F331F0A94E2F72A2B2ABB6A
S1130B108BB3018002C0660F771F0A94E2F76095D9
S1130B2068236BBB6BB38381282F30E0018002C044
S1130B30220F331F0A94E2F7262B2BBB8FC027B357
S1130B4061E070E0DB0102C0AA0FBB1F3A95E2F737
S1130B508A2F8095822387BBA7B38281282F30E018
S1130B60018002C0220F331F0A94E2F72A2B27BB0D
S1130B7088B3018002C0660F771F0A94E2F760957C
S1130B80682368BB68B38381282F30E0018002C0EA
S1130B90220F331F0A94E2F7262B28BB5FC024B32D
S1130BA061E070E0DB0102C0AA0FBB1F3A95E2F7D7
S1130BB08A2F8095822384BBA4B38281282F30E0BE
S1130BC0018002C0220F331F0A94E2F72A2B24BBB0
S1130BD085B3018002C0660F771F0A94E2F760951F
S1130BE0682365BB65B38381282F30E0018002C090
S1130BF0220F331F0A94E2F7262B25BB2FC021B303
S1130C0061E070E0DB0102C0AA0FBB1F3A95E2F776
S1130C108A2F8095822381BBA1B38281282F30E063
S1130C20018002C0220F331F0A94E2F72A2B21BB52
S1130C3082B3018002C0660F771F0A94E2F76095C1
S1130C40682362BB62B38381282F30E0018002C035
S1130C50220F331F0A94E2F7262B22BB9F5F9131A8
S1130C6008F426CF509307014093060181E0809356
S1130C700501089585E0089583E0089584E00895CA
S1130C80823108F090C090910501992309F48DC038
S1130C90E82FF0E0CF01880F991F880F991FE0918A
S1130CA00601F0910701E80FF91F8081813021F1DD
S1130CB030F08230F1F1833009F458C078C06130EB
S1130CC069F42BB381E090E0018002C0880F991F82
S1130CD00A94E2F7822B8BBB81E008952BB381E069
S1130CE090E0018002C0880F991F0A94E2F7809572
S1130CF082238BBB81E00895613069F428B381E0DD
S1130D0090E0018002C0880F991F0A94E2F7822BB9
S1130D1088BB81E0089528B381E090E0018002C09F
S1130D20880F991F0A94E2F78095822388BB81E09B
S1130D300895613069F425B381E090E0018002C038
S1130D40880F991F0A94E2F7822B85BB81E00895EE
S1130D5025B381E090E0018002C0880F991F0A94B6
S1130D60E2F78095822385BB81E00895613069F4C0
S1130D7022B381E090E0018002C0880F991F0A9499
S1130D80E2F7822B82BB81E0089522B381E090E0F8
S1130D90018002C0880F991F0A94E2F7809582238C
S1130DA082BB81E0089582E0089586E0089584E09E
S1130DB00895823108F04FC090910501992309F4F8
S1130DC04CC0E82FF0E0CF01880F991F880F991FBE
S1130DD0E0910601F0910701E80FF91F808181304D
S1130DE099F028F08230E9F0833041F138C02BB318
S1130DF081E090E0018002C0880F991F0A94E2F715
S1130E0082278BBB81E0089528B381E090E00180C4
S1130E1002C0880F991F0A94E2F7822788BB81E0F9
S1130E20089525B381E090E0018002C0880F991FE6
S1130E300A94E2F7822785BB81E0089522B381E01A
S1130E4090E0018002C0880F991F0A94E2F782277C
S1130E5082BB81E0089582E0089586E0089584E0ED
S1130E600895823108F07CC090910501992309F41A
S1130E7079C0E82FF0E0CF01880F991F880F991FE0
S1130E80E0910601F0910701E80FF91F808181309C
S1130E90F9F030F08230A1F1833009F449C064C024
S1130EA049B3518181E090E09C01052E02C0220FDC
S1130EB0331F0A94E2F7842F90E08223932302C025
S1130EC0959587955A95E2F7FB01808381E0089513
S1130ED046B3518181E090E09C01052E02C0220FAF
S1130EE0331F0A94E2F7842F90E08223932302C0F5
S1130EF0959587955A95E2F7FB01808381E00895E3
S1130F0043B3518181E090E09C01052E02C0220F81
S1130F10331F0A94E2F7842F90E08223932302C0C4
S1130F20959587955A95E2F7FB01808381E00895B2
S1130F3040B3518181E090E09C01052E02C0220F54
S1130F40331F0A94E2F7842F90E08223932302C094
S1130F50959587955A95E2F7FB01808381E0089582
S1130F6082E0089586E0089584E0089590E00EC03C
S1130F70292F30E0F901EE0FFF1F2E0F3F1FF9015B
S1130F80E051FF4F2081281719F09F5F992381F3C7
S1130F90892F90E0FC01EE0FFF1FEE0FFF1FE75FAC
S1130FA0FE4F408151816281738141155105610574
S1130FB0710581F0880F991F880F991FFC01E75F65
S1130FC0FE4F415051096109710940835183628385
S1130FD07383089523B72E7F23BF23B72D7F23BFA9
S1130FE023B72B7F23BF29B72E7F29BFFC01E35FE3
S1130FF0FE4F24E02083E0910E01F0910F0109954A
S1131000089580910801813061F120E024C0822F8D
S113101090E0FC01EE0FFF1FE80FF91FE051FF4FB6
S11310203081332319F03330F0F40FC0FC01EE0F9C
S1131030FF1FE80FF91FE051FF4F3281311105C046
S113104013BE39B73C7F39BF12BEFC01E35FFE4FCC
S113105031E030832F5F2223D1F281E080930801B5
S1131060089583E0089585E008950F931F93CF9327
S1131070DF93890181114AC0C82FD0E0FE01E35FEC
S1131080FE4F8081882309F443C0823009F442C0B2
S113109082E0FE01E35FFE4F8083FE01EE0FFF1F3F
S11310A0EC0FFD1FE051FF4F8081882321F0833036
S11310B098F185E034C0CB01BA012FEF30E040E075
S11310C050E00E948F0FFE01EE0FFF1FEE0FFF1F77
S11310D0E75FFE4F2083318342835383262F372FCC
S11310E089B7816089BF10930F0100930E01CE016F
S11310F0880F991FC80FD91FC051DF4F898183BF43
S1131100232B61F0619562BF81E009C086E007C0CE
S113111082E005C087E003C081E001C081E0DF9187
S1131120CF911F910F910895811123C090E0FC018C
S1131130E35FFE4F20812223F1F02230F1F4FC0121
S1131140EE0FFF1FE80FF91FE051FF4F208122230C
S113115019F02330A0F406C023B7287F23BF29B792
S11311602C7F29BFFC01E35FFE4F23E0208381E055
S1131170089586E0089582E0089588E0089585E062
S113118008951F920F920FB60F9211242F933F933D
S11311904F935F936F937F938F939F93AF93BF937B
S11311A0EF93FF9380E00E94B607FF91EF91BF9108
S11311B0AF919F918F917F916F915F914F913F91EB
S11311C02F910F900FBE0F901F9018951F920F92A2
S11311D00FB60F9211242F933F934F935F936F9306
S11311E07F938F939F93AF93BF93EF93FF9380E08D
S11311F00E94B607FF91EF91BF91AF919F918F919C
S11312007F916F915F914F913F912F910F900FBEFE
S11312100F901F9018951F920F920FB60F921124E2
S11312202F933F934F935F936F937F938F939F93EA
S1131230AF93BF93EF93FF9381E00E94B607FF91B2
S1131240EF91BF91AF919F918F917F916F915F913A
S11312504F913F912F910F900FBE0F901F901895B3
S11312601F920F920FB60F9211242F933F934F9317
S11312705F936F937F938F939F93AF93BF93EF93FA
S1131280FF9381E00E94B607FF91EF91BF91AF9168
S11312909F918F917F916F915F914F913F912F918A
S11312A00F900FBE0F901F9018951F920F920FB6BC
S11312B00F9211242F933F934F935F936F937F93D8
S11312C08F939F93AF93BF93EF93FF9381E00E941B
S11312D0B607FF91EF91BF91AF919F918F917F914D
S11312E06F915F914F913F912F910F900FBE0F908F
S11312F01F9018951F920F920FB60F9211242F93DF
S11313003F934F935F936F937F938F939F93AF9389
S1131310BF93EF93FF9381E00E94B607FF91EF9193
S1131320BF91AF919F918F917F916F915F914F91F9
S11313303F912F910F900FBE0F901F9018951F9201
S11313400F920FB60F9211242F933F934F935F93F5
S11313506F937F938F939F93AF93BF93EF93FF9379
S113136082E00E94B607FF91EF91BF91AF919F91E8
S11313708F917F916F915F914F913F912F910F903A
S11313800FBE0F901F9018951F920F920FB60F92D9
S113139011242F933F934F935F936F937F938F9376
S11313A09F93AF93BF93EF93FF9382E00E94B6079E
S11313B0FF91EF91BF91AF919F918F917F916F9129
S11313C05F914F913F912F910F900FBE0F901F90FF
S11313D01895AC0180E001C08F5FFA01E80FF11DA0
S11313E020812111F9CF8F5F0895AC0190E002C0F4
S11313F09F5F1082FA01E90FF11D20812111F8CFBE
S11314000895DC0190E005C0FB01E20FF31F408367
S11314109F5F292F30E0FD01E20FF31F408141114E
S1131420F3CF08950F931F93CF93DF93FC018B01A8
S11314304130D1F5C0E0D0E06AE070E00E947B0F5B
S1131440CB01009779F12196F7CFA8014C0F5D1FCE
S11314509F01ADECBCEC0E94B70F969587959695CD
S11314608795969587959C01220F331F880F991FA6
S1131470880F991F880F991F820F931F9F01281BA4
S1131480390BC901805DDA018C939F01ADECBCEC92
S11314900E94B70FFC01F695E795F695E795F6954A
S11314A0E7952197309789F6DF91CF911F910F919E
S11314B008958F929F92AF92BF92CF92DF92EF9254
S11314C0FF920F931F93CF93DF93EC018B01CB011A
S11314D00E94E909188219821A821B82EEEFE80F32
S11314E0C12CD12C7601C3942DC0D801AE0FB11DEF
S11314F0E7FDBA95AC91B0E0D097A70196010E94A0
S1131500D10F88809980AA80BB80DC01CB01880D33
S1131510991DAA1DBB1D88839983AA83BB83CC0C08
S1131520DD1CEE1CFF1CD701C601880F991FAA1FE2
S1131530BB1F880F991FAA1FBB1FC80ED91EEA1E06
S1131540FB1EE150EE238CF6DF91CF911F910F919A
S1131550FF90EF90DF90CF90BF90AF909F908F90CF
S113156008950F931F93E0911101F0E0EE0FFF1F18
S1131570ED50FF4F80810E94D906813009F076C07A
S11315808091110190E09C01220F331FF901EE0FAD
S1131590FF1FEE0FFF1FEE0FFF1FE21BF30BEE5EAC
S11315A0FE4F2585223009F061C0880F991FFC0188
S11315B0EE0FFF1FEE0FFF1FEE0FFF1FE81BF90BCF
S11315C0EE5EFE4F4185528563857485FC01ED50C6
S11315D0FF4F21EB3AE081810E943508813009F008
S11315E045C08091110190E09C01220F331FF90145
S11315F0EE0FFF1FEE0FFF1FEE0FFF1FE21BF30B9B
S1131600EE5EFE4F01851285238534854581568122
S1131610678170850417150726073707B1F4880F0B
S1131620991FFC01EE0FFF1FEE0FFF1FEE0FFF1FB0
S1131630E81BF90BEE5EFE4F81819281A381B48198
S113164081879287A387B48711C0880F991FFC01F3
S1131650EE0FFF1FEE0FFF1FEE0FFF1FE81BF90B2E
S1131660EE5EFE4F41875287638774871F910F9107
S1131670089580911001813091F00E940108813019
S113168011F0833071F480E890E00E9452058130BB
S113169011F0873041F481E080931001089580E0D7
S11316A0089580E0089580E008954F925F926F92CC
S11316B07F928F929F92AF92BF92CF92DF92EF92DE
S11316C0FF920F931F93CF93DF9300D000D000D0ED
S11316D0CDB7DEB790911001913009F0F2C08111BD
S11316E0F2C0253608F0F1C0E82FF0E0FE83ED8368
S11316F0DF01AA0FBB1FFD01EE0FFF1FEE0FFF1F3F
S1131700EE0FFF1FEA1BFB0BEE5EFE4F958592303A
S113171009F4DDC0222309F4DCC0122FC82E2436BC
S113172061F4FD01ED50FF4F61E080810E944006AD
S1131730813009F4D0C080E0D5C0CB01BA010E9449
S1131740800E9B01AC0160E070E080E89FE30E94A2
S1131750DF0D4B015C01612F70E080E090E00E949E
S1131760820EA50194010E940E0F20E030E048ECA7
S113177052E40E94DF0D2B013C019B01AC01C50129
S1131780B4010E94720D4B015C01ED81FE81EE0FEC
S1131790FF1FED50FF4FD1808D2D90E0FC01EE0F27
S11317A0FF1F8E0F9F1FFC01E051FF4FE1818E2F21
S11317B090E0FC013197E730F10508F08EC0E65D5A
S11317C0FF4F0C94B10F61E070E00BC060E470E077
S11317D008C060E071E005C060E074E002C068E049
S11317E070E080E090E00E94800E20E034E244E764
S11317F059E40E94DF0D69837A838B839C83C092B2
S113180011019B01AC01C301B2010E94DF0DED8007
S1131810FE80EE0CFF1C8701000F111F000F111F2B
S1131820000F111F0E191F090E5E1E4F0E94510E4C
S1131830F801618372838383948329813A814B8184
S11318405C81C501B4010E94DF0D0E94510EF801B4
S11318506583768387839087C082F701ED50FF4FBD
S113186061E080810E9440068130C9F58EE02D81BF
S11318703E81829FF001839FF00D1124EE5EFE4FA6
S1131880418152816381748121EB3AE08D2D0E9464
S11318903508813031F58EE02D813E81829FF00143
S11318A0839FF00D1124EE5EFE4F85819681A78102
S11318B0B08581879287A387B48782E0858781E09A
S11318C011C082E00FC083E00DC084E00BC085E04E
S11318D009C081E007C081E005C080E003C080E06A
S11318E001C080E026960FB6F894DEBF0FBECDBFD0
S11318F0DF91CF911F910F91FF90EF90DF90CF90E8
S1131900BF90AF909F908F907F906F905F904F901B
S11319100895CF93DF93909110019130B1F5811127
S113192036C0C82FD0E0CE01880F991FFC01EE0FFE
S1131930FF1FEE0FFF1FEE0FFF1FE81BF90BEE5EFC
S1131940FE4F8585823029F5FE01EE0FFF1FED5015
S1131950FF4F60E080810E9440068130E1F48EE018
S11319608C9FF0018D9FF00D1124EE5EFE4F83E0FD
S11319708587FE01EE0FFF1FED50FF4F81810E940E
S11319809408813051F080E009C082E007C083E010
S113199005C085E003C080E001C081E0DF91CF9104
S11319A008958091C4008430E1F00E9429028130BE
S11319B089F40E944301813079F40E94C20281308B
S11319C069F40E940A03813059F484E08093C400CE
S11319D081E0089580E0089580E0089580E008950E
S11319E080E00895CF93DF93EC018091230190E090
S11319F0805E9E4F0E945601863009F061C060915E
S1131A002301862F90E0FC01E05EFE4F208123320B
S1131A1009F5FC01E05EFE4F1082109223016EE096
S1131A2081E00E945902813009F04CC083EE90E0BD
S1131A300E949002813009F047C06EE00E94590272
S1131A40813009F043C0BE0180E291E00E94010AA6
S1131A5086E045C02A32A9F4EFEFE60FE0932301B4
S1131A60F0E0E05EFE4F1082635F81E00E94590265
S1131A70813071F580E20E947402813059F186E070
S1131A802EC06230B9F0625F81E00E945902813059
S1131A9019F5E0912301F0E0E05EFE4F80810E94A1
S1131AA074028130D9F4809123018F5F80932301E4
S1131AB081E015C0FC01E05EFE4F108281E00FC0A2
S1131AC081E00DC080E00BC080E009C080E007C069
S1131AD080E005C081E003C080E001C080E0DF91C8
S1131AE0CF9108955058BB27AA270E948A0D0C94C1
S1131AF0D40E0E94C60E38F00E94CD0E20F039F4A8
S1131B009F3F19F426F40C94C30E0EF4E095E7FB02
S1131B100C94BD0EE92F0E94E50E58F3BA17620724
S1131B2073078407950720F079F4A6F50C94070F42
S1131B300EF4E0950B2EBA2FA02D0B01B9019001E4
S1131B400C01CA01A0011124FF27591B99F0593F28
S1131B5050F4503E68F11A16F040A22F232F342F70
S1131B604427585FF3CF469537952795A795F040BE
S1131B705395C9F77EF41F16BA0B620B730B840BD3
S1131B80BAF09150A1F0FF0FBB1F661F771F881F8B
S1131B90C2F70EC0BA0F621F731F841F48F48795E3
S1131BA077956795B795F7959E3F08F0B0CF9395D5
S1131BB0880F08F09927EE0F9795879508950E944E
S1131BC0F30D0C94D40E0E94CD0E58F00E94C60E54
S1131BD040F029F45F3F29F00C94BD0E51110C9490
S1131BE0080F0C94C30E0E94E50E68F39923B1F319
S1131BF0552391F3951B550BBB27AA27621773072F
S1131C00840738F09F5F5F4F220F331F441FAA1FC2
S1131C10A9F335D00E2E3AF0E0E832D0915050407E
S1131C20E695001CCAF72BD0FE2F29D0660F771F2C
S1131C30881FBB1F261737074807AB07B0E809F012
S1131C40BB0B802DBF01FF2793585F4F3AF09E3F97
S1131C50510578F00C94BD0E0C94080F5F3FE4F32B
S1131C60983ED4F3869577956795B795F7959F5FDA
S1131C70C9F7880F911D9695879597F90895E1E026
S1131C80660F771F881FBB1F621773078407BA0785
S1131C9020F0621B730B840BBA0BEE1F88F7E095E0
S1131CA008950E94ED0E88F09F5798F0B92F992758
S1131CB0B751B0F0E1F0660F771F881F991F1AF033
S1131CC0BA95C9F714C0B13091F00E94070FB1E082
S1131CD008950C94070F672F782F8827B85F39F081
S1131CE0B93FCCF3869577956795B395D9F73EF4CC
S1131CF090958095709561957F4F8F4F9F4F089574
S1131D00E89409C097FB3EF4909580957095619591
S1131D107F4F8F4F9F4F9923A9F0F92F96E9BB2747
S1131D209395F695879577956795B795F111F8CFC3
S1131D30FAF4BB0F11F460FF1BC06F5F7F4F8F4F2E
S1131D409F4F16C0882311F096E911C0772321F024
S1131D509EE8872F762F05C0662371F096E8862FBC
S1131D6070E060E02AF09A95660F771F881FDAF713
S1131D70880F9695879597F9089597F99F6780E856
S1131D8070E060E008959FEF80EC089500240A94C9
S1131D901616170618060906089500240A94121642
S1131DA01306140605060895092E0394000C11F475
S1131DB0882352F0BB0F40F4BF2B11F460FF04C022
S1131DC06F5F7F4F8F4F9F4F089557FD9058440F7B
S1131DD0551F59F05F3F71F04795880F97FB991F86
S1131DE061F09F3F79F08795089512161306140643
S1131DF0551FF2CF4695F1DF08C0161617061806D0
S1131E00991FF1CF86957105610508940895E894AA
S1131E10BB2766277727CB0197F908950E94210FE6
S1131E200C94D40E0E94C60E38F00E94CD0E20F001
S1131E30952311F00C94BD0E0C94C30E11240C9434
S1131E40080F0E94E50E70F3959FC1F3950F50E0C3
S1131E50551F629FF001729FBB27F00DB11D639F58
S1131E60AA27F00DB11DAA1F649F6627B00DA11DFE
S1131E70661F829F2227B00DA11D621F739FB00DA4
S1131E80A11D621F839FA00D611D221F749F332714
S1131E90A00D611D231F849F600D211D822F762FAD
S1131EA06A2F11249F5750409AF0F1F088234AF08A
S1131EB0EE0FFF1FBB1F661F771F881F91505040F6
S1131EC0A9F79E3F510580F00C94BD0E0C94080FA9
S1131ED05F3FE4F3983ED4F3869577956795B7957D
S1131EE0F795E7959F5FC1F7FE2B880F911D969597
S1131EF0879597F9089597FB072E16F4009407D059
S1131F0077FD09D00E94FA0F07FC05D03EF49095A6
S1131F1081959F4F0895709561957F4F0895A1E233
S1131F201A2EAA1BBB1BFD010DC0AA1FBB1FEE1F4F
S1131F30FF1FA217B307E407F50720F0A21BB30B9A
S1131F40E40BF50B661F771F881F991F1A9469F716
S1131F5060957095809590959B01AC01BD01CF0172
S1131F600895EE0FFF1F0590F491E02D0994A29FB0
S1131F70B001B39FC001A39F700D811D1124911D59
S1131F80B29F700D811D1124911D08950E94B70FF9
S1131F90A59F900DB49F900DA49F800D911D1124B9
S1131FA00895B7FF0C94C60F0E94C60F821B930BB3
S1131FB008950024A7FD00942A0F301D401D501DD4
S1131FC0601D701D801D901D08952A153B054C054C
S1131FD05D056E057F058007910708950024A7FD20
S1131FE000942A17300540055005600570058005EA
S1131FF090050895AA1BBB1B51E107C0AA1FBB1F74
S1132000A617B70710F0A61BB70B881F991F5A9580
S1132010A9F780959095BC01CD010895F894FFCF60
S11320203020202500050431323334353637383931
S11320302A302303040506000102050407060003F1
S1132040000101010002010100030101000400017B
S1132050000500010006000100070001020501005F
S11320600206010002070100030401000305010048
S11320700306010003070100010001000101010042
S1132080010201000554656D703A20202046616EFE
S11320903A20302500547265663A202020202053CF
S11320A065743A2020002020202500000E0F6400D3
S10920B000020010000014
S9030000FC
