:100000000C942A000C9447000C9447000C94470071
:100010000C9447000C9447000C9447000C94470044
:100020000C9447000C9447000C9447000C94470034
:100030000C9447000C945A050C9481050C943305DC
:100040000C9447000C9447000C9447000C94470014
:100050000C94470011241FBECFE5D8E0DEBFCDBF12
:1000600010E0A0E6B0E0E8E8FBE002C005900D92E9
:10007000A43CB107D9F721E0A4ECB0E001C01D9287
:10008000A03DB207E1F70E9452030C94C2050C9404
:10009000000080916000843081F00E94070381306D
:1000A00049F40E947601813039F484E08093600045
:1000B00081E0089580E0089580E00895CF93DF9374
:1000C000CDB7DEB7C150D1400FB6F894DEBF0FBE3A
:1000D000CDBF80916000843009F0BFC01A821982C0
:1000E000CE0103962FEFFC0111922A95E9F70E94A9
:1000F0003703853009F0ADC08091C600811138C04A
:100100006DEB70E0CE0103960E941702813069F416
:100110008093C7008093C60082E990E00E941C0390
:10012000813009F49CC080E0B5C068EB70E0CE017E
:1001300003960E941702813079F482E08093C70011
:1001400081E08093C60082E990E00E941C03813028
:1001500009F487C080E09EC084E690E00E941C0302
:10016000813009F080C01092C7001092C60092C082
:10017000813009F054C064EC70E0CE0103960E9417
:1001800063028091C4009091C5008115984048F0A9
:100190008FE790E00E941C03813009F466C080E084
:1001A00079C08CE990E00E941C03813009F05FC0A7
:1001B0008091C700823021F5BE016F5F7F4F809133
:1001C000C4009091C5000E94B6011A8280EA90E0B6
:1001D0000E941C03813009F04CC0CE0101960E94A0
:1001E0001C03813009F047C084E790E00E941C03A3
:1001F000813009F042C01092C7001092C6004AC078
:100200008130E9F581EB90E00E941C038130C9F553
:100210008093C70082E08093C60081E03BC08230BB
:1002200091F58CE990E00E941C03813071F56B819F
:100230008091C4009091C5000E94850185E790E0FF
:100240000E941C03813019F51092C7001092C6005D
:1002500021C08130F1F080E01DC085E01BC081E04D
:1002600019C081E017C080E015C081E013C080E0B4
:1002700011C080E00FC080E00DC080E00BC081E0C5
:1002800009C080E007C081E005C080E003C080E0D5
:1002900001C081E0CF5FDE4F0FB6F894DEBF0FBE26
:1002A000CDBFDF91CF9108950E944900813069F45C
:1002B0008FB780688FBF85E790E00E941C03813074
:1002C00021F40E945E008130E1F380E008959A01FC
:1002D00022273770220F232F221F330B31952065E1
:1002E000FC012083FB01408381E00895809161003F
:1002F000833051F00E945503863029F083E08093CB
:10030000610081E0089580E008951F93CF93DF930B
:1003100000D01F92CDB7DEB7AC016B839091610026
:100320009330C9F419821A82BE016E5F7F4FCE01ED
:1003300001960E946701182F813079F421E030E0A6
:10034000AE014D5F5F4F6A8189810E9474048130E4
:1003500029F010E003C012E001C010E0812F0F90DF
:100360000F900F90DF91CF911F910895EF92FF9220
:100370001F93CF93DF9300D0CDB7DEB7AC01909140
:1003800061009330C1F47B0119821A82BE016E5F55
:100390007F4FCE0101960E946701182F813069F4CA
:1003A00021E030E0A7016A8189810E94BD0481308B
:1003B00029F010E003C012E001C010E0812F0F907F
:1003C0000F90DF91CF911F91FF90EF900895CF9301
:1003D000C82FF62F6623A1F08823B9F061E070E002
:1003E00080E090E0E0E009C0AC2FB0E0262F372F8E
:1003F000482F592F0E94A805EF5FEF17A8F309C0F7
:1004000061E070E080E090E004C060E070E080E0D7
:1004100090E0CF910895AC0180E001C08F5FFA01B8
:10042000E80FF11D20812111F9CF8F5F0895FF9210
:100430000F931F93CF93DF93EC018B010E940B026C
:10044000F82EC8010E940B028F15A8F0F816A8F02C
:1004500030E007C0F801E80FF91F808128130FC0B2
:100460003F5F832F90E0FE01E80FF91F20812111EB
:10047000F1CF81E005C082E003C083E001C080E0ED
:10048000DF91CF911F910F91FF900895AC0190E003
:1004900002C09F5F1082FA01E90FF11D2081211136
:1004A000F8CF0895DC0190E005C0FB01E20FF31FD7
:1004B00040839F5F292F30E0FD01E20FF31F408151
:1004C0004111F3CF0895DF92EF92FF920F931F93A4
:1004D000CF93DF937C018B010E940B02F801118204
:1004E0001082CEEFC80F60E055C0F701EC0FF11D90
:1004F000C7FDFA95A081D0EDDA0FDA30A8F4DD243B
:10050000D394D60E80E10E94E7019B01AC01AD2F90
:10051000B0E00E94A805F80120813181620F731FAD
:10052000718360836D2D35C08FEB8A0F8630B8F4F0
:10053000D9ECDA0FDD24D394D60E80E10E94E701D6
:100540009B01AC01AD2FB0E00E94A805F80120810D
:100550003181620F731F718360836D2D1AC08FE923
:100560008A0F8630B0F4D9EADA0FDD24D394D60EA0
:1005700080E10E94E7019B01AC01AD2FB0E00E9439
:10058000A805F80120813181620F731F7183608398
:100590006D2DC150CC230CF0A8CFDF91CF911F91CE
:1005A0000F91FF90EF90DF900895CF93DF93C0916C
:1005B000C900D0E00E943105C653DF4F8883E09127
:1005C000C900F0E0E653FF4F80810E94EA04809169
:1005D000C900282F30E0F901E653FF4F90819D308C
:1005E00051F4F901E653FF4F10821092C90081E0E7
:1005F0008093C80009C0983021F481508093C900CD
:1006000003C08F5F8093C900DF91CF9108958091DF
:100610006200833081F00E94D404813011F0873071
:1006200049F485ED92E00E941C0583E0809362000E
:1006300081E0089580E00895CF93DF93009781F0E3
:1006400020916200223079F0EC010E940B02682FA9
:1006500070E0CE010E94F504813021F020E003C05B
:1006600024E001C021E0822FDF91CF910895BC01E9
:10067000892BA1F080916200823099F08091C800AE
:10068000813071F41092C8008AEC90E00E9452020E
:100690008AEC90E00E94460285E0089584E0089587
:1006A00081E008950E945401FFCF8091630087305C
:1006B00041F011B88AEF80B987E08093630081E050
:1006C000089588E0089580916300873059F484EAA2
:1006D00086BF06B607FEFDCF81B1887F883021F046
:1006E00080E0089586E0089581E008959091630088
:1006F000973019F5673019F190E0880F991F862B14
:1007000083B984E886BF06B607FEFDCF81B1887F36
:10071000883359F028F48831A1F0803241F00BC0C1
:10072000803479F0883429F006C088E3089580E2A7
:10073000089588E4089580E0089586E0089586E0AD
:10074000089581E0089580916300873059F484EA28
:1007500086BF06B607FEFDCF81B1887F803121F0CC
:1007600080E0089586E0089581E008958091630017
:10077000873039F484E986BF06B604FCFDCF81E0FA
:10078000089586E0089590916300973069F483B9E5
:1007900084E886BF06B607FEFDCF81B1887F883228
:1007A00029F0803329F4089586E0089588E20895B9
:1007B00080E00895FC0190916300973069F484EC27
:1007C00086BF06B607FEFDCF81B1887F803531F444
:1007D00083B1808381E0089586E0089580E00895E4
:1007E000FC0190916300973069F484E886BF06B6F7
:1007F00007FEFDCF81B1887F883531F483B18083D6
:1008000081E0089586E0089580E008957F928F92B8
:100810009F92AF92BF92CF92DF92EF92FF920F938F
:100820001F93CF93DF93782E7B01EA0169018091BA
:100830006300873009F03FC00E946303882309F4F6
:1008400045C060E0872D0E9476038130B1F50CC071
:1008500047018FEF881A980AF70180810E94C3032D
:10086000E501882399F174015E01F1E0AF1AB10846
:10087000CD2B71F70E94A303813009F561E0872D2C
:100880000E9476038130E9F408C0E6012196C60192
:100890000E94DA038130B9F46E0101501109A9F701
:1008A000C6010E94F003813081F40E94B6038130BA
:1008B00069F080E00BC086E009C080E007C080E0FE
:1008C00005C080E003C080E001C080E0DF91CF91EF
:1008D0001F910F91FF90EF90DF90CF90BF90AF905E
:1008E0009F908F907F900895BF92CF92DF92EF926A
:1008F000FF920F931F93CF93DF93F82EE62E8A017A
:10090000E90180916300873049F50E9463038823E1
:1009100051F160E08F2D0E947603B82E81E0B8126D
:100920001FC08E2D0E94C30381110DC01CC0680121
:10093000EFEFCE1ADE0AF80180810E94C303E701BF
:10094000882389F086017E01F1E0EF1AF108CD2BB2
:1009500071F70E94B603811105C005C086E003C08F
:1009600080E001C08B2DDF91CF911F910F91FF90FF
:10097000EF90DF90CF90BF9008950F931F93CF9388
:10098000DF931F92CDB7DEB7698389019A0141E0F9
:1009900050E0BE016F5F7F4F0E9406040F90DF9111
:1009A000CF911F910F9108958091C901813081F0FD
:1009B00010BC8CE089B982E08BB988E18AB980E803
:1009C00080BD80B5866880BD81E08093C9010895AF
:1009D00087E008959091C901992329F05D9BFECF8E
:1009E0008CB981E0089586E00895EF92FF920F930D
:1009F0001F93CF93DF932091C901222399F08B019C
:100A00007C01C0E0D0E009C0F701EC0FFD1F808140
:100A10000E94EA04813041F42196C017D107A0F367
:100A200081E003C086E001C080E0DF91CF911F919B
:100A30000F91FF90EF9008959C019091C901992327
:100A400061F02115310559F08AB180688AB9309377
:100A5000CD012093CC0181E0089586E0089585E0E2
:100A600008958CB108951F920F920FB60F92112422
:100A70002F933F934F935F936F937F938F939F93A6
:100A8000AF93BF93EF93FF93E091CE01F091CF012D
:100A90000995FF91EF91BF91AF919F918F917F91B8
:100AA0006F915F914F913F912F910F900FBE0F90DB
:100AB0001F9018951F920F920FB60F9211242F932B
:100AC0003F934F935F936F937F938F939F93AF93D6
:100AD000BF93EF93FF93E091CC01F091CD01099585
:100AE000FF91EF91BF91AF919F918F917F916F9106
:100AF0005F914F913F912F910F900FBE0F901F90DC
:100B000018951F920F920FB60F9211242F933F93B7
:100B10004F935F936F937F938F939F93AF93BF9305
:100B2000EF93FF93E091CA01F091CB010995FF91FA
:100B3000EF91BF91AF919F918F917F916F915F9155
:100B40004F913F912F910F900FBE0F901F901895CE
:100B50000E94B305A59F900DB49F900DA49F800D9A
:100B6000911D11240895A29FB001B39FC001A39FBE
:100B7000700D811D1124911DB29F700D811D1124D6
:080B8000911D0895F894FFCFC8
:100B880005020206494E56414C494420496E70758B
:100B9800742121200D436F6D6D616E643A20004908
:100BA8004E56414C49442041646472657373212157
:100BB800200D416464726573733A20004F4B0D0039
:100BC800446174612053746F7265642069733A20BC
:100BD80000446174613A200052454144005752492B
:040BE8005445000070
:00000001FF
