S0180000454550524F4D5F496E746572666163652E7372656354
S11300000C942A000C9447000C9447000C9447006D
S11300100C9447000C9447000C9447000C94470040
S11300200C9447000C9447000C9447000C94470030
S11300300C9447000C9438060C945F060C9411063B
S11300400C9447000C9447000C9447000C94470010
S11300500C94470011241FBECFE5D8E0DEBFCDBF0E
S113006010E0A0E6B0E0E6E8FDE002C005900D92E5
S1130070A43CB107D9F721E0A4ECB0E001C01D9283
S1130080A13DB207E1F70E948E020C94C1060C94C4
S1130090000080916000843081F00E94430281302E
S11300A049F40E947601813039F484E08093600041
S11300B081E0089580E0089580E00895CF93DF9370
S11300C0CDB7DEB7C150D1400FB6F894DEBF0FBE36
S11300D0CDBF80916000843009F0BFC01A821982BC
S11300E0CE0103962FEFFC0111922A95E9F70E94A5
S11300F07302853009F0ADC08091C600811138C00B
S11301006DEB70E0CE0103960E94F004813069F437
S11301108093C7008093C60082E990E00E94580251
S1130120813009F49CC080E0B5C068EB70E0CE017A
S113013003960E94F004813079F482E08093C70032
S113014081E08093C60082E990E00E9458028130E9
S113015009F487C080E09EC084E690E00E945802C3
S1130160813009F080C01092C7001092C60092C07E
S1130170813009F054C064EC70E0CE0103960E9413
S113018040058091C4009091C5008115984048F0C5
S11301908FE790E00E945802813009F466C080E045
S11301A079C08CE990E00E945802813009F05FC068
S11301B08091C700823021F5BE016F5F7F4F80912F
S11301C0C4009091C5000E94C1011A8280EA90E0A7
S11301D00E945802813009F04CC0CE0101960E9461
S11301E05802813009F047C084E790E00E94580229
S11301F0813009F042C01092C7001092C6004AC074
S11302008130E9F581EB90E00E9458028130C9F514
S11302108093C70082E08093C60081E03BC08230B7
S113022091F58CE990E00E945802813071F56B8160
S11302308091C4009091C5000E94850185E790E0FB
S11302400E945802813019F51092C7001092C6001E
S113025021C08130F1F080E01DC085E01BC081E049
S113026019C081E017C080E015C081E013C080E0B0
S113027011C080E00FC080E00DC080E00BC081E0C1
S113028009C080E007C081E005C080E003C080E0D1
S113029001C081E0CF5FDE4F0FB6F894DEBF0FBE22
S11302A0CDBFDF91CF9108950E944900813069F458
S11302B08FB780688FBF85E790E00E945802813035
S11302C021F40E945E008130E1F380E008959A01F8
S11302D022273770220F232F221F330B31952065DD
S11302E0FC012083FB01408381E00895809161003B
S11302F0833051F00E942103853029F083E08093FC
S1130300610081E0089580E008951F93CF93DF9307
S113031000D01F92CDB7DEB7AC016B839091610022
S1130320933011F519821A82BE016E5F7F4FCE01A0
S113033001960E946701182F8130C1F421E030E05A
S1130340AE014D5F5F4F6A8189810E945A048130FA
S113035079F42FE030E040E050E060E070E080E0CD
S113036090E00E94910205C012E003C010E001C0B9
S113037010E0812F0F900F900F90DF91CF911F917C
S11303800895EF92FF921F93CF93DF9300D0CDB7E0
S1130390DEB7AC0190916100933021F561157105D0
S11303A019F17B0119821A82BE016E5F7F4FCE0163
S11303B001960E946701182F8130C1F421E030E0DA
S11303C0A7016A8189810E94A904813089F425E00A
S11303D030E040E050E060E070E080E090E00E94B7
S11303E0910207C012E005C014E003C010E001C090
S11303F010E0812F0F900F90DF91CF911F91FF900C
S1130400EF900895CF93DF93C091C900D0E00E948C
S11304100F06C653DF4F88839091C900E92FF0E09F
S1130420E653FF4F80818D3071F40E94C805E0913E
S1130430C900F0E0E653FF4F10821092C90081E03A
S11304408093C8001DC0883051F4992341F00E9464
S1130450C8058091C90081508093C90011C08830BB
S113046079F09091C901913021F48AE20E94C80583
S113047002C00E94C8058091C9008F5F8093C900A3
S1130480DF91CF91089580916200833081F00E94C2
S1130490B205813011F0873049F482E092E00E9485
S11304A0FA0583E08093620081E0089580E0089576
S11304B0CF93DF93009781F020916200223079F08E
S11304C0EC010E94E404682F70E0CE010E94D30581
S11304D0813021F020E003C024E001C021E0822F1C
S11304E0DF91CF910895BC01892BA1F08091620026
S11304F0823099F08091C800813071F41092C80064
S11305008AEC90E00E942F058AEC90E00E9423057B
S113051085E0089584E0089581E008950E945401DF
S1130520FFCF2F923F924F925F926F927F928F9262
S11305309F92AF92BF92CF92DF92EF92FF920F936E
S11305401F93CF93DF9300D000D01F92CDB7DEB7B7
S1130550222E332E442E552E662E79838A839B8336
S1130560912C1D821C82B0E0F0E0E0E0712C812C23
S11305703DC02C2D3D2D4E2D5F2D602F712F8A2DCA
S11305809B2DA1E00E94A006C22ED32EE42EF52EB0
S1130590062F172FA82EB92E08C0C12CD12CE12C60
S11305A0F12C00E010E0A12CB12C2C2D3D2D4E2D72
S11305B05F2D602F712F8A2D9B2DACE00E94B50614
S11305C0C1F2B8F28C81292D3D81482F5B2F6F2F0A
S11305D07E2F872D982DA1E00E94A006922E3D83A8
S11305E04C83B52FF62FE72F782E892E292D3D81A8
S11305F04C815B2F6F2F7E2F872D982DA22CB32C2F
S1130600C42CD52CE62CF9800A811B810E94AC06EF
S113061020F20F900F900F900F900F90DF91CF91D9
S11306201F910F91FF90EF90DF90CF90BF90AF900C
S11306309F908F907F906F905F904F903F902F90FE
S1130640089580916300863041F011B88AEF80B933
S113065086E08093630081E0089587E008958091A7
S11306606300863059F484EA86BF06B607FEFDCFE0
S113067081B1887F883021F080E0089585E0089575
S113068081E0089590916300963029F5623028F551
S113069088232CF190E0880F991F682B63B984E8B4
S11306A086BF06B607FEFDCF81B1887F883359F037
S11306B028F48831B1F0803241F00BC0803489F0E5
S11306C0883429F006C088E3089580E2089588E418
S11306D0089580E0089585E0089582E0089583E018
S11306E0089581E0089580916300863059F484EA86
S11306F086BF06B607FEFDCF81B1887F803121F029
S113070080E0089585E0089581E008958091630074
S1130710863039F484E986BF06B604FCFDCF81E057
S1130720089585E0089590916300963069F483B943
S113073084E886BF06B607FEFDCF81B1887F883284
S113074029F0803329F4089585E0089588E2089516
S113075080E00895FC0190916300963079F430971D
S113076079F084EC86BF06B607FEFDCF81B1887FA1
S1130770803541F483B1808381E0089585E0089554
S113078084E0089580E00895FC0190916300963020
S113079079F4309779F084E886BF06B607FEFDCF7A
S11307A081B1887F883541F483B1808381E00895E5
S11307B085E0089584E0089580E008957F928F9203
S11307C09F92AF92BF92CF92DF92EF92FF920F93DC
S11307D01F93CF93DF93782EEB017A016901809107
S11307E06300863009F047C0209709F446C0232BE4
S11307F009F445C077200CF444C00E942F038823D9
S113080009F44AC060E0872D0E9442038130D9F583
S11308100BC04E018FEF881A980A88810E949303B7
S113082075018823C9F1E401570181E0A81AB108D0
S1130830EF2879F70E947303813039F561E0872D41
S11308400E944203813019F508C0E6012196C601D1
S11308500E94AA038130E9F46E0101501109A9F73D
S1130860C6010E94C4038130B1F40E948603813022
S113087099F080E011C085E00FC084E00DC084E0F1
S11308800BC083E009C080E007C080E005C080E0C1
S113089003C080E001C080E0DF91CF911F910F91F0
S11308A0FF90EF90DF90CF90BF90AF909F908F908C
S11308B07F900895BF92CF92DF92EF92FF920F93B1
S11308C01F93CF93DF93182F062FEA0179018091AC
S11308D06300863059F5209759F111235CF10E9489
S11308E02F03882361F160E0812F0E944203B82E18
S11308F081E0B81221C0802F0E94930381110CC0A3
S11309001EC06E018FEFC81AD80A88810E94930313
S113091078018823A1F0E601870101501109EF282D
S113092081F70E948603811109C009C085E007C0D0
S113093084E005C083E003C080E001C08B2DDF911B
S1130940CF911F910F91FF90EF90DF90CF90BF90C8
S113095008950F931F93CF93DF931F92CDB7DEB704
S1130960698389019A0141E050E0BE016F5F7F4FC6
S11309700E94DE030F90DF91CF911F910F91089594
S1130980CF93C82FF62F6623A1F08823B9F061E036
S113099070E080E090E0E0E009C0AC2FB0E0262FEA
S11309A0372F482F592F0E949506EF5FEF17A8F3B2
S11309B009C061E070E080E090E004C060E070E0B5
S11309C080E090E0CF910895AC0180E001C08F5F9A
S11309D0FA01E80FF11D20812111F9CF8F5F0895ED
S11309E0FF920F931F93CF93DF938C01EB010E942F
S11309F0E404F82ECE010E94E4048F15B8F0F81632
S1130A00B8F030E009C0FE01E80FF91F80818217B9
S1130A1088F0281788F03F5F832F90E0F801E80FF3
S1130A20F91F20812111EFCF81E007C082E005C0CA
S1130A3083E003C082E001C083E0DF91CF911F9186
S1130A400F91FF900895AC0190E002C09F5F108267
S1130A50FA01E90FF11D20812111F8CF0895DC017D
S1130A6090E005C0FB01E20FF31F40839F5F292F35
S1130A7030E0FD01E20FF31F40814111F3CF0895EF
S1130A80DF92EF92FF920F931F93CF93DF937C013A
S1130A908B010E94E404F80111821082CEEFC80F8A
S1130AA060E055C0F701EC0FF11DC7FDFA95A08178
S1130AB0D0EDDA0FDA30A8F4DD24D394D60E80E139
S1130AC00E94C0049B01AC01AD2FB0E00E949506CA
S1130AD0F80120813181620F731F718360836D2D52
S1130AE035C08FEB8A0F8630B8F4D9ECDA0FDD24E9
S1130AF0D394D60E80E10E94C0049B01AC01AD2FBB
S1130B00B0E00E949506F80120813181620F731FC5
S1130B10718360836D2D1AC08FE98A0F8630B0F41B
S1130B20D9EADA0FDD24D394D60E80E10E94C00402
S1130B309B01AC01AD2FB0E00E949506F801208125
S1130B403181620F731F718360836D2DC150CC237B
S1130B500CF0A8CFDF91CF911F910F91FF90EF90F0
S1130B60DF9008958091CA01813081F010BC8CE03F
S1130B7089B982E08BB988E18AB980E880BD80B503
S1130B80866880BD81E08093CA01089587E0089556
S1130B909091CA01992329F05D9BFECF8CB981E025
S1130BA0089586E00895EF92FF920F931F93CF93D9
S1130BB0DF932091CA01222399F08B017C01C0E0CC
S1130BC0D0E009C0F701EC0FFD1F80810E94C80529
S1130BD0813041F42196C017D107A0F381E003C00E
S1130BE086E001C080E0DF91CF911F910F91FF90CB
S1130BF0EF9008959C019091CA01992361F0211509
S1130C00310559F08AB180688AB93093CE012093B6
S1130C10CD0181E0089586E0089585E008958CB1C2
S1130C2008951F920F920FB60F9211242F933F93A2
S1130C304F935F936F937F938F939F93AF93BF93E0
S1130C40EF93FF93E091CF01F091D0010995FF91CB
S1130C50EF91BF91AF919F918F917F916F915F9130
S1130C604F913F912F910F900FBE0F901F901895A9
S1130C701F920F920FB60F9211242F933F934F930D
S1130C805F936F937F938F939F93AF93BF93EF93F0
S1130C90FF93E091CD01F091CE010995FF91EF9181
S1130CA0BF91AF919F918F917F916F915F914F9180
S1130CB03F912F910F900FBE0F901F9018951F9288
S1130CC00F920FB60F9211242F933F934F935F937C
S1130CD06F937F938F939F93AF93BF93EF93FF9300
S1130CE0E091CB01F091CC010995FF91EF91BF9177
S1130CF0AF919F918F917F916F915F914F913F91B0
S1130D002F910F900FBE0F901F901895A29FB001C6
S1130D10B39FC001A39F700D811D1124911DB29F2B
S1130D20700D811D1124911D08950E948606A59FB2
S1130D30900DB49F900DA49F800D911D11240895D2
S1130D400024A7FD00942A0F301D401D501D601D76
S1130D50701D801D901D08952A153B054C055D05E9
S1130D606E057F058007910708950024A7FD009470
S1130D702A1730054005500560057005800590056B
S1090D800895F894FFCF72
S1130D8605020205494E56414C494420496E707588
S1130D96742121200D436F6D6D616E643A20004904
S1130DA64E56414C49442041646472657373212153
S1130DB6200D416464726573733A20004F4B0D0035
S1130DC6446174612053746F7265642069733A20B8
S1130DD600446174613A2000524541440057524927
S1070DE6544500006C
S9030000FC
