S0180000454550524F4D5F496E746572666163652E7372656354
S11300000C942A000C9447000C9447000C9447006D
S11300100C9447000C9447000C9447000C94470040
S11300200C9447000C9447000C9447000C94470030
S11300300C9447000C9486050C94AD050C945F0554
S11300400C9447000C9447000C9447000C94470010
S11300500C94470011241FBECFE5D8E0DEBFCDBF0E
S113006010E0A0E6B0E0E0EEFBE002C005900D92E7
S1130070A43CB107D9F721E0A4ECB0E001C01D9283
S1130080A03DB207E1F70E945E030C94EE050C94C8
S1130090000080916000843081F00E94130381305D
S11300A049F40E947601813039F484E08093600041
S11300B081E0089580E0089580E00895CF93DF9370
S11300C0CDB7DEB7C150D1400FB6F894DEBF0FBE36
S11300D0CDBF80916000843009F0BFC01A821982BC
S11300E0CE0103962FEFFC0111922A95E9F70E94A5
S11300F04303853009F0ADC08091C600811138C03A
S11301006DEB70E0CE0103960E941C02813069F40D
S11301108093C7008093C60082E990E00E94280380
S1130120813009F49CC080E0B5C068EB70E0CE017A
S113013003960E941C02813079F482E08093C70008
S113014081E08093C60082E990E00E942803813018
S113015009F487C080E09EC084E690E00E942803F2
S1130160813009F080C01092C7001092C60092C07E
S1130170813009F054C064EC70E0CE0103960E9413
S113018068028091C4009091C5008115984048F0A0
S11301908FE790E00E942803813009F466C080E074
S11301A079C08CE990E00E942803813009F05FC097
S11301B08091C700823021F5BE016F5F7F4F80912F
S11301C0C4009091C5000E94B6011A8280EA90E0B2
S11301D00E942803813009F04CC0CE0101960E9490
S11301E02803813009F047C084E790E00E94280387
S11301F0813009F042C01092C7001092C6004AC074
S11302008130E9F581EB90E00E9428038130C9F543
S11302108093C70082E08093C60081E03BC08230B7
S113022091F58CE990E00E942803813071F56B818F
S11302308091C4009091C5000E94850185E790E0FB
S11302400E942803813019F51092C7001092C6004D
S113025021C08130F1F080E01DC085E01BC081E049
S113026019C081E017C080E015C081E013C080E0B0
S113027011C080E00FC080E00DC080E00BC081E0C1
S113028009C080E007C081E005C080E003C080E0D1
S113029001C081E0CF5FDE4F0FB6F894DEBF0FBE22
S11302A0CDBFDF91CF9108950E944900813069F458
S11302B08FB780688FBF85E790E00E942803813064
S11302C021F40E945E008130E1F380E008959A01F8
S11302D022273770220F232F221F330B31952065DD
S11302E0FC012083FB01408381E00895809161003B
S11302F0833051F00E946103853029F083E08093BC
S1130300610081E0089580E008951F93CF93DF9307
S113031000D01F92CDB7DEB7AC016B839091610022
S11303209330C9F419821A82BE016E5F7F4FCE01E9
S113033001960E946701182F813079F421E030E0A2
S1130340AE014D5F5F4F6A8189810E949A048130BA
S113035029F010E003C012E001C010E0812F0F90DB
S11303600F900F90DF91CF911F910895EF92FF921C
S11303701F93CF93DF9300D0CDB7DEB7AC0190913C
S113038061009330D9F461157105D1F07B011982B4
S11303901A82BE016E5F7F4FCE0101960E946701F3
S11303A0182F813079F421E030E0A7016A81898136
S11303B00E94E904813039F010E005C012E003C066
S11303C014E001C010E0812F0F900F90DF91CF91C6
S11303D01F91FF90EF900895CF93C82FF62F6623B7
S11303E0A1F08823B9F061E070E080E090E0E0E003
S11303F009C0AC2FB0E0262F372F482F592F0E9469
S1130400D405EF5FEF17A8F309C061E070E080E066
S113041090E004C060E070E080E090E0CF91089547
S1130420AC0180E001C08F5FFA01E80FF11D20816B
S11304302111F9CF8F5F0895FF920F931F93CF93EC
S1130440DF93EC018B010E941002F82EC8010E9478
S113045010028F15A8F0F816A8F030E007C0F801D4
S1130460E80FF91F808128130FC03F5F832F90E0AE
S1130470FE01E80FF91F20812111F1CF81E005C0B1
S113048082E003C083E001C080E0DF91CF911F913F
S11304900F91FF900895AC0190E002C09F5F10821D
S11304A0FA01E90FF11D20812111F8CF0895DC0133
S11304B090E005C0FB01E20FF31F40839F5F292FEB
S11304C030E0FD01E20FF31F40814111F3CF0895A5
S11304D0DF92EF92FF920F931F93CF93DF937C01F0
S11304E08B010E941002F80111821082CEEFC80F16
S11304F060E055C0F701EC0FF11DC7FDFA95A0812E
S1130500D0EDDA0FDA30A8F4DD24D394D60E80E1EE
S11305100E94EC019B01AC01AD2FB0E00E94D40518
S1130520F80120813181620F731F718360836D2D07
S113053035C08FEB8A0F8630B8F4D9ECDA0FDD249E
S1130540D394D60E80E10E94EC019B01AC01AD2F47
S1130550B0E00E94D405F80120813181620F731F3D
S1130560718360836D2D1AC08FE98A0F8630B0F4D1
S1130570D9EADA0FDD24D394D60E80E10E94EC018F
S11305809B01AC01AD2FB0E00E94D405F80120819D
S11305903181620F731F718360836D2DC150CC2331
S11305A00CF0A8CFDF91CF911F910F91FF90EF90A6
S11305B0DF900895CF93DF93C091C900D0E00E94EB
S11305C05D05C653DF4F88839091C900E92FF0E0A1
S11305D0E653FF4F80818D3071F40E941605E0913F
S11305E0C900F0E0E653FF4F10821092C90081E089
S11305F08093C80015C0883051F4992341F00E94BB
S113060016058091C90081508093C90009C08830C3
S113061039F00E9416058091C9008F5F8093C9004C
S1130620DF91CF91089580916200833081F00E9420
S11306300005813011F0873049F48AED92E00E9480
S1130640480583E08093620081E0089580E0089586
S1130650CF93DF93009781F020916200223079F0EC
S1130660EC010E941002682F70E0CE010E94210567
S1130670813021F020E003C024E001C021E0822F7A
S1130680DF91CF910895BC01892BA1F08091620084
S1130690823099F08091C800813071F41092C800C2
S11306A08AEC90E00E9457028AEC90E00E944B0290
S11306B085E0089584E0089581E008950E9454013E
S11306C0FFCF80916300863041F011B88AEF80B982
S11306D086E08093630081E0089587E00895809127
S11306E06300863059F484EA86BF06B607FEFDCF60
S11306F081B1887F883021F080E0089585E00895F5
S113070081E0089590916300963029F5623028F5D0
S113071088232CF190E0880F991F682B63B984E833
S113072086BF06B607FEFDCF81B1887F883359F0B6
S113073028F48831B1F0803241F00BC0803489F064
S1130740883429F006C088E3089580E2089588E497
S1130750089580E0089585E0089582E0089583E097
S1130760089581E0089580916300863059F484EA05
S113077086BF06B607FEFDCF81B1887F803121F0A8
S113078080E0089585E0089581E0089580916300F4
S1130790863039F484E986BF06B604FCFDCF81E0D7
S11307A0089585E0089590916300963069F483B9C3
S11307B084E886BF06B607FEFDCF81B1887F883204
S11307C029F0803329F4089585E0089588E2089596
S11307D080E00895FC0190916300963079F430979D
S11307E079F084EC86BF06B607FEFDCF81B1887F21
S11307F0803541F483B1808381E0089585E00895D4
S113080084E0089580E00895FC019091630096309F
S113081079F4309779F084E886BF06B607FEFDCFF9
S113082081B1887F883541F483B1808381E0089564
S113083085E0089584E0089580E008957F928F9282
S11308409F92AF92BF92CF92DF92EF92FF920F935B
S11308501F93CF93DF93782EEB017A016901809186
S11308606300863009F047C0209709F446C0232B63
S113087009F445C077200CF444C00E946F03882318
S113088009F44AC060E0872D0E9482038130D9F5C3
S11308900BC04E018FEF881A980A88810E94D303F7
S11308A075018823C9F1E401570181E0A81AB10850
S11308B0EF2879F70E94B303813039F561E0872D81
S11308C00E948203813019F508C0E6012196C60111
S11308D00E94EA038130E9F46E0101501109A9F77D
S11308E0C6010E9404048130B1F40E94C603813021
S11308F099F080E011C085E00FC084E00DC084E071
S11309000BC083E009C080E007C080E005C080E040
S113091003C080E001C080E0DF91CF911F910F916F
S1130920FF90EF90DF90CF90BF90AF909F908F900B
S11309307F900895BF92CF92DF92EF92FF920F9330
S11309401F93CF93DF93182F062FEA01790180912B
S11309506300863059F5209759F111235CF10E9408
S11309606F03882361F160E0812F0E948203B82E17
S113097081E0B81221C0802F0E94D30381110CC0E2
S11309801EC06E018FEFC81AD80A88810E94D30353
S113099078018823A1F0E601870101501109EF28AD
S11309A081F70E94C603811109C009C085E007C010
S11309B084E005C083E003C080E001C08B2DDF919B
S11309C0CF911F910F91FF90EF90DF90CF90BF9048
S11309D008950F931F93CF93DF931F92CDB7DEB784
S11309E0698389019A0141E050E0BE016F5F7F4F46
S11309F00E941E040F90DF91CF911F910F910895D3
S1130A008091C901813081F010BC8CE089B982E009
S1130A108BB988E18AB980E880BD80B5866880BDDD
S1130A2081E08093C901089587E008959091C901F8
S1130A30992329F05D9BFECF8CB981E0089586E06F
S1130A400895EF92FF920F931F93CF93DF9320911A
S1130A50C901222399F08B017C01C0E0D0E009C0D8
S1130A60F701EC0FFD1F80810E941605813041F4CF
S1130A702196C017D107A0F381E003C086E001C02E
S1130A8080E0DF91CF911F910F91FF90EF90089537
S1130A909C019091C901992361F02115310559F008
S1130AA08AB180688AB93093CD012093CC0181E06A
S1130AB0089586E0089585E008958CB108951F9205
S1130AC00F920FB60F9211242F933F934F935F937E
S1130AD06F937F938F939F93AF93BF93EF93FF9302
S1130AE0E091CE01F091CF010995FF91EF91BF9173
S1130AF0AF919F918F917F916F915F914F913F91B2
S1130B002F910F900FBE0F901F9018951F920F9268
S1130B100FB60F9211242F933F934F935F936F93CC
S1130B207F938F939F93AF93BF93EF93FF93E09142
S1130B30CC01F091CD010995FF91EF91BF91AF9157
S1130B409F918F917F916F915F914F913F912F91E1
S1130B500F900FBE0F901F9018951F920F920FB613
S1130B600F9211242F933F934F935F936F937F932F
S1130B708F939F93AF93BF93EF93FF93E091CA0139
S1130B80F091CB010995FF91EF91BF91AF919F91A6
S1130B908F917F916F915F914F913F912F910F9022
S1130BA00FBE0F901F9018950E94DF05A59F900D12
S1130BB0B49F900DA49F800D911D11240895A29FB0
S1130BC0B001B39FC001A39F700D811D1124911D1D
S1130BD0B29F700D811D1124911D0895F894FFCFCB
S1130BE005020205494E56414C494420496E707530
S1130BF0742121200D436F6D6D616E643A200049AC
S1130C004E56414C494420416464726573732121FA
S1130C10200D416464726573733A20004F4B0D00DC
S1130C20446174612053746F7265642069733A205F
S1130C3000446174613A20005245414400575249CE
S1070C405445000013
S9030000FC
