S011000053504920536C6176652E737265630C
S11300000C942A000C9447000C9447000C9447006D
S11300100C9447000C9447000C9447000C94470040
S11300200C9447000C9447000C9447000C94470030
S11300300C948B000C9447000C9447000C944700DC
S11300400C9447000C9447000C9447000C94470010
S11300500C94470011241FBECFE5D8E0DEBFCDBF0E
S113006010E0A0E6B0E0E8E6F1E002C005900D92F1
S1130070A236B107D9F720E0A2E6B0E001C01D9294
S1130080A436B207E1F70E9449000C94B2000C9424
S11300900000CF93DF931F92CDB7DEB70E945D00BF
S11300A019828FEF8ABBCE0101960E947A00898162
S11300B091E0980F99838BBBF6CF809160008730D5
S11300C0B9F087B3806287BB87B38F7B87BB87B365
S11300D08F7E87BB87B38F7787BB8DB18F7E8DB9BA
S11300E08DB180648DB987E08093600081E00895CC
S11300F088E00895FC0190916000973041F43097B6
S113010041F0779BFECF8FB1808381E0089586E034
S1130110089585E008951F920F920FB60F9211244F
S11301202F933F934F935F936F937F938F939F93FB
S1130130AF93BF93EF93FF93E0916200F09163005C
S11301400995FF91EF91BF91AF919F918F917F910D
S11301506F915F914F913F912F910F900FBE0F9030
S10B01601F901895F894FFCFDD
S105016806008B
S9030000FC
