S00C0000436172642E737265639E
S11300000C942A000C9408070C942F070C945607A0
S11300100C9447000C9447000C9447000C94470040
S11300200C9447000C9447000C9447000C94470030
S11300300C9485090C94B50A0C94DC0A0C948E0A71
S11300400C9447000C9447000C9447000C94470010
S11300500C94470011241FBECFE5D8E0DEBFCDBF0E
S113006011E0A0E6B0E0ECE4F6E102C005900D92E8
S1130070AE3BB107D9F722E0AEEBB1E001C01D926F
S1130080AC3EB207E1F70E9469060C94240B0C9471
S113009000008091D701813019F41092D70108959E
S11300A081E08093D7018091DA0181110AC088B37D
S11300B08F7E88BB8AE20E944A0988B3806188BB2C
S11300C0089581E08093D90108950F931F93CF93EE
S11300D0DF93CDB7DEB7CF5FD1090FB6F894DEBF9B
S11300E00FBECDBF8C01CE0101962FEFFC01119202
S11300F02A95E9F70E944606853039F4B801CE0105
S113010001960E941E0A81E005C0813011F080E052
S113011001C086E0C150DF4F0FB6F894DEBF0FBEBA
S1130120CDBFDF91CF911F910F910895CF93DF93AE
S1130130EC0185E690E00E942B068130C1F4CE01EB
S11301400E946500813029F011F0863091F48630E8
S1130150B1F38985882379F0CE010E94120A88E7D9
S113016090E00E942B06813021F380E005C080E0FE
S113017003C080E001C081E0DF91CF910895CF9367
S1130180DF93EC0189E990E00E942B068130C1F4F1
S1130190CE010E946500813029F011F0863091F47F
S11301A08630B1F38985882379F0CE010E94120A42
S11301B084EA90E00E942B06813021F380E005C0A0
S11301C080E003C080E001C081E0DF91CF91089519
S11301D0CF93DF93EC010E94610684EC90E00E94CF
S11301E02B068130D9F4CE010E946500813029F0BC
S11301F011F08630A9F48630B1F38C81882351F054
S1130200CE010E94120A8FEC90E00E942B068130EE
S113021021F308C00E94650681E005C080E003C0A8
S113022080E001C080E0DF91CF910895CF93DF9308
S1130230EC014AE050E0BC0180E290E00E944204FC
S11302408130E9F52AE030E040E050E060E070E021
S113025080E090E00E946C064AE050E0BE01665FD8
S11302607F4F80E390E00E944204813051F52AE000
S113027030E040E050E060E070E080E090E00E9418
S11302806C06BE016C5E7F4F45E050E080E490E078
S11302900E9442048130B9F42AE030E040E050E0AA
S11302A060E070E080E090E00E946C066AEA80E022
S11302B090E00E945303813041F080E007C080E069
S11302C005C080E003C080E001C081E0DF91CF91F0
S11302D00895EF92FF920F931F93CF93DF93CDB7BF
S11302E0DEB76E970FB6F894DEBF0FBECDBF7C01AC
S11302F08FEE90E00E942B068130F1F58E010F5FA6
S11303001F4F8EE1F80111928A95E9F761E171E0DE
S1130310C8010E94E709B701C8010E94E70964E126
S113032071E0C8010E94E709B701665F7F4FC80109
S11303300E94E70964E171E0C8010E94E709B7017E
S11303406C5E7F4FC8010E94E70963E171E0C80158
S11303500E94E70988B38F7E88BBC8010E94AC095C
S1130360682F70E0C8010E945F09813039F488B3B6
S1130370806188BB81E003C080E001C080E06E96AC
S11303800FB6F894DEBF0FBECDBFDF91CF911F91A2
S11303900F91FF90EF900895CF93DF93CDB7DEB721
S11303A0A3970FB6F894DEBF0FBECDBF8091600057
S11303B0843009F0B0C0FE0131968AE0DF011D925D
S11303C08A95E9F78091DA0181114EC086E191E0C6
S11303D00E942B06813009F045C02AE0CE014596E3
S11303E0FC01322F11923A95E9F7FE013B96DF01A9
S11303F01D922A95E9F7749625E0DF011D922A954E
S1130400E9F70E949600813069F5CE010B960E94AF
S1130410BF00813039F5CE014F960E94E80081304B
S113042009F56EEB71E0CE0145960E941E0A68EC58
S113043071E0CE010B960E941E0A62ED71E0CE01BE
S11304404F960E941E0A8EEB91E00E9416018130A5
S113045049F48093DA0181E491E00E942B06813013
S113046009F44DC080E05EC08091D801813031F440
S11304708091D901811102C01092DA01CE01019656
S11304800E9465008130C9F468EB71E0CE010196E9
S11304900E94B8098130A9F48091D901813049F4CE
S11304A08093D8018CE491E00E942B068130A9F559
S11304B008C01092DA0181E035C0813011F0863035
S11304C071F58091D7018130D1F48FEF8BBB8EEB26
S11304D091E00E94690128E833E140E050E060E0E7
S11304E070E080E090E00E946C068091D801811158
S11304F006C081E991E00E942B06813091F42BE93A
S113050030E040E050E060E070E080E090E00E9485
S11305106C0681E007C085E005C080E003C080E090
S113052001C080E0A3960FB6F894DEBF0FBECDBF26
S1130530DF91CF910895CF93DF93EC014AE050E02F
S1130540BC0180E290E00E941B05813061F52AE045
S113055030E040E050E060E070E080E090E00E9435
S11305606C064AE050E0BE01665F7F4F80E390E096
S11305700E941B058130C9F42AE030E040E050E0DD
S113058060E070E080E090E00E946C06BE016C5E6A
S11305907F4F45E050E080E490E00E941B058130ED
S11305A031F080E005C080E003C080E001C081E05C
S11305B0DF91CF910895CF93DF931F92CDB7DEB72C
S11305C0809160008430B9F10E944403813051F578
S11305D00E941606813041F50E941C09813031F5D4
S11305E089EA91E00E942B06813011F51982BE013F
S11305F06F5F7F4F80E090E00E948F038130D1F4E1
S113060089818A3A19F01092DA0107C081E0809357
S1130610DA018EEB91E00E949B0284E080936000FB
S113062081E009C080E007C080E005C080E003C02D
S113063080E001C080E00F90DF91CF9108950E9487
S1130640DB02813081F482E00E94FC0689E490E0C0
S11306500E9403078FB780688FBF8FEF8ABB0E9409
S1130660CC018130E1F380E008959A0122273770AC
S1130670220F232F221F330B31952065FC01208389
S1130680FB01408381E0089580916100833051F043
S11306900E947D07853029F083E08093610081E02A
S11306A0089580E008951F93CF93DF9300D01F92A5
S11306B0CDB7DEB7AC016B8390916100933011F537
S11306C019821A82BE016E5F7F4FCE0101960E948D
S11306D03503182F8130C1F421E030E0AE014D5FC5
S11306E05F4F6A8189810E94B608813079F42FE0D6
S11306F030E040E050E060E070E080E090E00E9494
S11307006C0605C012E003C010E001C010E0812FA8
S11307100F900F900F90DF91CF911F910895EF925A
S1130720FF921F93CF93DF9300D0CDB7DEB7AC0118
S113073090916100933021F56115710519F17B01E8
S113074019821A82BE016E5F7F4FCE0101960E940C
S11307503503182F8130C1F421E030E0A7016A810C
S113076089810E940509813089F425E030E040E068
S113077050E060E070E080E090E00E946C0607C00A
S113078012E005C014E003C010E001C010E0812FA6
S11307900F900F90DF91CF911F91FF90EF900895EC
S11307A0EF92FF921F93CF93DF9300D0CDB7DEB7C4
S11307B0909161009330F9F461157105F1F07B01BA
S11307C090E1899FA001112419821A82BE016E5FF3
S11307D07F4FCE0101960E943503182F813079F4A2
S11307E020E130E0A7016A8189810E94B608813046
S11307F039F010E005C012E003C014E001C010E0BD
S1130800812F0F900F90DF91CF911F91FF90EF9068
S11308100895EF92FF921F93CF93DF9300D0CDB74B
S1130820DEB7909161009330F9F461157105F1F030
S11308307B0190E1899FA001112419821A82BE01D3
S11308406E5F7F4FCE0101960E943503182F8130D1
S113085079F420E130E0A7016A8189810E940509C9
S1130860813039F010E005C012E003C014E001C08B
S113087010E0812F0F900F90DF91CF911F91FF9087
S1130880EF9008956F927F928F929F92AF92BF9252
S1130890CF92DF92EF92FF920F931F93CF93DF9348
S11308A000D0CDB7DEB75C016B017A0180916100A5
S11308B0833009F0A1C0672B09F4A0C019821A8201
S11308C0A501BE016E5F7F4FCE0101960E943503E4
S11308D0182F813009F094C0450180EF882287E009
S11308E09822969487949694879496948794969451
S11308F08794682C8A2D8F7051F190E1A92EA81A43
S1130900B12CEA14FB0458F49701A6016A81898189
S11309100E94B608813009F47CC010E07AC09501C9
S1130920A6016A8189810E94B608813009F06AC0F3
S1130930EA18FB082FE030E040E050E060E070E0AF
S113094080E090E00E946C067724739403C0712CBD
S1130950A12CB12CC701929582958F7089279F7025
S11309608927082F1CC00150B6016A0D7B1D872DF5
S1130970860D0E94D003813009F046C0739480E153
S1130980E81AF10880E1A80EB11C2FE030E040E045
S113099050E060E070E080E090E00E946C06101689
S11309A014F3E114F104A9F1A401470D511D42957A
S11309B05295507F5427407F5427BE016E5F7F4F6E
S11309C0CE0101960E943503182F8130F9F4A60157
S11309D04A0D5B1D97016A8189810E94B6088130A6
S11309E0B9F42FE030E040E050E060E070E080E0F7
S11309F090E00E946C060DC012E00BC014E009C028
S1130A0010E007C010E005C010E003C010E001C012
S1130A1010E0812F0F900F90DF91CF911F910F91D4
S1130A20FF90EF90DF90CF90BF90AF909F908F900A
S1130A307F906F9008956F927F928F929F92AF9262
S1130A40BF92CF92DF92EF92FF920F931F93CF93B7
S1130A50DF9300D0CDB7DEB75C016B017A018091E2
S1130A606100833009F084C0672B09F483C01982C4
S1130A701A82A501BE016E5F7F4FCE0101960E94CE
S1130A803503182F813009F077C0450180EF8822A3
S1130A9087E0982296948794969487949694879462
S1130AA096948794782C8A2D8F70F9F090E1A92E72
S1130AB0A81AB12CEA14FB0458F49501A6016A8122
S1130AC089810E940509813009F45DC010E05BC092
S1130AD09501A6016A8189810E940509813009F086
S1130AE04DC0EA18FB0801E003C000E0A12CB12CC2
S1130AF0C701929582958F7089279F70892711C0AD
S1130B00B6016A0D7B1D802F870D0E940904813078
S1130B10B9F50F5F80E1E81AF10880E1A80EB11C75
S1130B20862D66246A94680E8111EACFE114F104DB
S1130B3051F1A401400F511D42955295507F542705
S1130B40407F5427BE016E5F7F4FCE0101960E9405
S1130B503503182F8130B1F4A6014A0D5B1D9701AE
S1130B606A8189810E940509813069F010E00BC017
S1130B7012E009C014E007C010E005C010E003C093
S1130B8010E001C010E0812F0F900F90DF91CF9102
S1130B901F910F91FF90EF90DF90CF90BF90AF9097
S1130BA09F908F907F906F900895CF93DF93C09123
S1130BB0DC01D0E00E948C0AC352DE4F88839091FE
S1130BC0DC01E92FF0E0E352FE4F80818D3071F4B7
S1130BD00E94450AE091DC01F0E0E352FE4F1082EE
S1130BE01092DC0181E08093DB011DC0883051F458
S1130BF0992341F00E94450A8091DC018150809341
S1130C00DC0111C0883079F09091DC02913021F43C
S1130C108AE20E94450A02C00E94450A8091DC01D2
S1130C208F5F8093DC01DF91CF9108958091620002
S1130C30833081F00E942F0A813011F0873049F40B
S1130C4085ED95E00E94770A83E08093620081E05D
S1130C50089580E00895CF93DF93009781F0209169
S1130C606200223079F0EC010E94AC09682F70E038
S1130C70CE010E94500A813021F020E003C024E01C
S1130C8001C021E0822FDF91CF910895BC01892B0F
S1130C90A1F080916200823099F08091DB01813073
S1130CA071F41092DB018DED91E00E941E0A8DED2E
S1130CB091E00E94120A85E0089584E0089581E09D
S1130CC0089581E08093DC0208951092DC0281E0B3
S1130CD008950E941F03FFCF2F923F924F925F927D
S1130CE06F927F928F929F92AF92BF92CF92DF9238
S1130CF0EF92FF920F931F93CF93DF9300D000D016
S1130D001F92CDB7DEB7222E332E442E552E662EDB
S1130D1079838A839B83912C1D821C82B0E0F0E04E
S1130D20E0E0712C812C3DC02C2D3D2D4E2D5F2DEE
S1130D30602F712F8A2D9B2DA1E00E94030BC22EE0
S1130D40D32EE42EF52E062F172FA82EB92E08C069
S1130D50C12CD12CE12CF12C00E010E0A12CB12C01
S1130D602C2D3D2D4E2D5F2D602F712F8A2D9B2D07
S1130D70ACE00E94180BC1F2B8F28C81292D3D81A0
S1130D80482F5B2F6F2F7E2F872D982DA1E00E9477
S1130D90030B922E3D834C83B52FF62FE72F782E2D
S1130DA0892E292D3D814C815B2F6F2F7E2F872D1E
S1130DB0982DA22CB32CC42CD52CE62CF9800A81B6
S1130DC01B810E940F0B20F20F900F900F900F9039
S1130DD00F90DF91CF911F910F91FF90EF90DF90D3
S1130DE0CF90BF90AF909F908F907F906F905F90C7
S1130DF04F903F902F9008959BB790649BBF95B7F9
S1130E00892B85BF08959093E2028093E1020895AF
S1130E101F920F920FB60F9211242F933F934F936B
S1130E205F936F937F938F939F93AF93BF93EF934E
S1130E30FF93E091E102F091E2020995FF91EF91B5
S1130E40BF91AF919F918F917F916F915F914F91DE
S1130E503F912F910F900FBE0F901F9018951F92E6
S1130E600F920FB60F9211242F933F934F935F93DA
S1130E706F937F938F939F93AF93BF93EF93FF935E
S1130E80E091DF02F091E0020995FF91EF91BF91AB
S1130E90AF919F918F917F916F915F914F913F910E
S1130EA02F910F900FBE0F901F9018951F920F92C5
S1130EB00FB60F9211242F933F934F935F936F9329
S1130EC07F938F939F93AF93BF93EF93FF93E0919F
S1130ED0DD02F091DE020995FF91EF91BF91AF9190
S1130EE09F918F917F916F915F914F913F912F913E
S1130EF00F900FBE0F901F9018958091630086305D
S1130F0041F011B88AEF80B986E08093630081E0F4
S1130F10089587E0089580916300863059F484EA47
S1130F2086BF06B607FEFDCF81B1887F883021F0E9
S1130F3080E0089585E0089581E00895909163002C
S1130F40963029F5623028F588232CF190E0880F3B
S1130F50991F682B63B984E886BF06B607FEFDCFE8
S1130F6081B1887F883359F028F48831B1F0803218
S1130F7041F00BC0803489F0883429F006C088E33E
S1130F80089580E2089588E4089580E0089585E056
S1130F90089582E0089583E0089581E008958091A2
S1130FA06300863059F484EA86BF06B607FEFDCF97
S1130FB081B1887F803121F080E0089585E0089533
S1130FC081E0089580916300863039F484E986BF16
S1130FD006B604FCFDCF81E0089585E00895909164
S1130FE06300963069F483B984E886BF06B607FEC9
S1130FF0FDCF81B1887F883229F0803329F40895A8
S113100085E0089588E2089580E00895FC019091B8
S11310106300963079F4309779F084EC86BF06B695
S113102007FEFDCF81B1887F803541F483B1808391
S113103081E0089585E0089584E0089580E00895AE
S1131040FC0190916300963079F4309779F084E84C
S113105086BF06B607FEFDCF81B1887F883541F48F
S113106083B1808381E0089585E0089584E0089544
S113107080E008957F928F929F92AF92BF92CF9219
S1131080DF92EF92FF920F931F93CF93DF93782E0B
S1131090EB017A01690180916300863009F047C051
S11310A0209709F446C0232B09F445C077200CF49B
S11310B044C00E948B07882309F44AC060E0872D4E
S11310C00E949E078130D9F50BC04E018FEF881A1C
S11310D0980A88810E94EF0775018823C9F1E40109
S11310E0570181E0A81AB108EF2879F70E94CF07C9
S11310F0813039F561E0872D0E949E07813019F512
S113110008C0E6012196C6010E9406088130E9F470
S11311106E0101501109A9F7C6010E94200881300F
S1131120B1F40E94E207813099F080E011C085E0BB
S11311300FC084E00DC084E00BC083E009C080E0F0
S113114007C080E005C080E003C080E001C080E00B
S1131150DF91CF911F910F91FF90EF90DF90CF908F
S1131160BF90AF909F908F907F900895BF92CF9241
S1131170DF92EF92FF920F931F93CF93DF93182F79
S1131180062FEA01790180916300863059F5209792
S113119059F111235CF10E948B07882361F160E00F
S11311A0812F0E949E07B82E81E0B81221C0802FA3
S11311B00E94EF0781110CC01EC06E018FEFC81A88
S11311C0D80A88810E94EF0778018823A1F0E601FC
S11311D0870101501109EF2881F70E94E20781116C
S11311E009C009C085E007C084E005C083E003C0EE
S11311F080E001C08B2DDF91CF911F910F91FF9063
S1131200EF90DF90CF90BF9008950F931F93CF93EB
S1131210DF931F92CDB7DEB7698389019A0141E05C
S113122050E0BE016F5F7F4F0E943A080F90DF913C
S1131230CF911F910F91089580916400873041F1FF
S113124087B3806B87BB87B38F7B87BB88B3806191
S113125088BB8DB180618DB98DB18F7D8DB98DB114
S1131260877F8DB98DB18B7F8DB98EB181608EB939
S11312708DB18E7F8DB98DB18D7F8DB98DB18DB9C5
S11312808DB180648DB987E08093640081E0089516
S113129088E00895CF93DF931F92CDB7DEB7909186
S11312A06400973039F48FB9779BFECF8FB189836F
S11312B081E001C086E00F90DF91CF910895EF9215
S11312C0FF920F931F93CF93209164002730A1F4D2
S11312D08B017C01C0E009C0F701E20FF31F80819C
S11312E00E944A09813051F4CF5F2C2F30E020173F
S11312F0310790F381E003C086E001C080E0CF9124
S11313001F910F91FF90EF9008951F920F920FB6C7
S11313100F9211242F933F934F935F936F937F9377
S11313208F939F93AF93BF93EF93FF93E091E30267
S1131330F091E4020995FF91EF91BF91AF919F91D4
S11313408F917F916F915F914F913F912F910F906A
S11313500FBE0F901F901895AC0180E001C08F5F05
S1131360FA01E80FF11D20812111F9CF8F5F089553
S1131370FF920F931F93CF93DF93EC018B010E9495
S1131380AC09F82EC8010E94AC098F15A8F0F81614
S1131390A8F030E007C0F801E80FF91F8081281396
S11313A00FC03F5F832F90E0FE01E80FF91F2081FB
S11313B02111F1CF81E005C082E003C083E001C0C8
S11313C080E0DF91CF911F910F91FF900895FF92DC
S11313D00F931F93CF93DF93EC018B01CB010E94FA
S11313E0AC09F82ECE010E94AC09815090E00BC0EC
S11313F0280F311DFE01E20FF31FD801A90FB11D03
S11314002C9120839F5F292F30E04F2D50E04150D5
S113141051094217530764F7DF91CF911F910F9140
S1131420FF900895AC0190E002C09F5F1082FA0122
S1131430E90FF11D20812111F8CF0895DC0190E01E
S113144005C0FB01E20FF31F40839F5F292F30E0AB
S1131450FD01E20FF31F40814111F3CF0895809104
S1131460E502813081F010BC8CE089B982E08BB94F
S113147088E18AB980E880BD80B5866880BD81E056
S11314808093E502089587E008959091E5029923F9
S113149029F05D9BFECF8CB981E0089586E0089524
S11314A0EF92FF920F931F93CF93DF932091E50266
S11314B0222399F08B017C01C0E0D0E009C0F70140
S11314C0EC0FFD1F80810E94450A813041F4219672
S11314D0C017D107A0F381E003C086E001C080E01B
S11314E0DF91CF911F910F91FF90EF9008959C0190
S11314F09091E502992361F02115310559F08AB1E3
S113150080688AB93093E9022093E80281E0089563
S113151086E0089585E008958CB108951F920F9296
S11315200FB60F9211242F933F934F935F936F93B2
S11315307F938F939F93AF93BF93EF93FF93E09128
S1131540EA02F091EB020995FF91EF91BF91AF91FF
S11315509F918F917F916F915F914F913F912F91C7
S11315600F900FBE0F901F9018951F920F920FB6F9
S11315700F9211242F933F934F935F936F937F9315
S11315808F939F93AF93BF93EF93FF93E091E80200
S1131590F091E9020995FF91EF91BF91AF919F916D
S11315A08F917F916F915F914F913F912F910F9008
S11315B00FBE0F901F9018951F920F920FB60F92A7
S11315C011242F933F934F935F936F937F938F9344
S11315D09F93AF93BF93EF93FF93E091E602F09153
S11315E0E7020995FF91EF91BF91AF919F918F9180
S11315F07F916F915F914F913F912F910F900FBE0B
S11316000F901F9018950024A7FD00942A0F301DF9
S1131610401D501D601D701D801D901D08952A15CC
S11316203B054C055D056E057F0580079107089510
S11316300024A7FD00942A173005400550056005D5
S10F16407005800590050895F894FFCF14
S113164C05020205064361726420486F6C6465727E
S113165C204E616D653A2000496E76616C69642098
S113166C4E616D652C204F6E6C7920392063686156
S113167C726163746572730D00436172642050412E
S113168C4E3A2000496E76616C69642050414E2CB0
S113169C204F6E6C792039206368617261637465C4
S11316AC72730D00436172642050494E3A20004914
S11316BC6E76616C69642050494E2C204F6E6C79A7
S11316CC203420636861726163746572730D004425
S11316DC617461206973206265696E672073656E3D
S11316EC7420746F207468652041544D2E2E2E0D79
S11316FC002300232D0050726F6772616D6D696E4B
S113170C67204D6F64650D456E7465722074686551
S113171C20466F6C6C6F77696E6720446174610D41
S113172C0055534552204D6F64650D00434152449E
S113173C2069732042757379204E6F772C20507278
S113174C6F6772616D6D696E67204D6F646520778C
S113175C696C6C2073746172742061667465722098
S113176C63757272656E742050726F636573730D5A
S113177C0044617461205375636365737366756C9F
S113178C6C792053656E740D0043415244205465AA
S111179C726D696E616C0D0041444D494E0042
S9030000FC
