:100000000C942A000C94E7070C940E080C94350805
:100010000C9447000C9447000C9447000C94470044
:100020000C9447000C9447000C9447000C94470034
:100030000C94600A0C94940B0C94BB0B0C946D0BF9
:100040000C9447000C9447000C9447000C94470014
:100050000C94470011241FBECFE5D8E0DEBFCDBF12
:1000600012E0A0E6B0E0E2EFF7E102C005900D92E9
:10007000A032B107D9F723E0A0E2B2E001C01D929F
:10008000AE34B207E1F70E943F070C94F70B0C94D3
:10009000000080913B0281111CC0909139029111A6
:1000A00018C080913C02813019F480933902089580
:1000B000811117C088B38F7E88BB63E070E085E64E
:1000C00090E00E943A0A88B3806188BB109239029E
:1000D0000895813031F480913902811102C010926B
:1000E0003B0208950F931F93CF93DF93CDB7DEB7F5
:1000F000CF5FD1090FB6F894DEBF0FBECDBF8C0124
:10010000CE0101962FEFFC0111922A95E9F70E948A
:100110001C07853039F4B801CE0101960E94FD0A12
:1001200081E005C0813011F080E001C086E0C1505F
:10013000DF4F0FB6F894DEBF0FBECDBFDF91CF917A
:100140001F910F910895CF93DF93EC0188E690E023
:100150000E9401078130C9F4CE010E9472008130F3
:1001600029F011F0863099F48630B1F3CE010E9467
:10017000870A8A3071F08BE790E00E940107813096
:1001800051F4CE010E94F10AE1CF80E005C080E089
:1001900003C081E001C080E0DF91CF9108951F93FB
:1001A000CF93DF93EC0188EA90E00E940107813051
:1001B00099F5CE010E947200813029F011F086304D
:1001C00069F58630B1F3CE010E94870A8A30E9F0E2
:1001D00084EB90E00E940107813011F5CE010E946E
:1001E000F10AE1CFFE01E10FF11D808180538A30D9
:1001F00050F084EB90E00E940107813099F4CE0129
:100200000E94F10A05C01F5F01C010E0193050F3D1
:10021000193049F681E007C080E005C080E003C0E6
:1002200080E001C080E0DF91CF911F9108951F937E
:10023000CF93DF93EC010E94370787EE90E00E9496
:1002400001078130A9F5CE010E947200813029F0AA
:1002500011F0863079F58630B1F3CE010E94870A1D
:100260008530E9F083EF90E00E940107813021F5AD
:10027000CE010E94F10AE1CFFE01E10FF11D808164
:1002800080538A3050F083EF90E00E940107813064
:10029000A9F4CE010E94F10A05C01F5F01C010E061
:1002A000143050F3143049F60E943B0781E007C038
:1002B00080E005C080E003C080E001C080E0DF9105
:1002C000CF911F910895CF93DF93EC014AE050E066
:1002D000BC0181E090E00E94E4048130E9F52AE06D
:1002E00030E040E050E060E070E080E090E00E94AC
:1002F00042074AE050E0BE01665F7F4F8BE090E02E
:100300000E94E404813051F52AE030E040E050E002
:1003100060E070E080E090E00E944207BE016C5E09
:100320007F4F45E050E085E190E00E94E404813099
:10033000B9F42AE030E040E050E060E070E080E0B6
:1003400090E00E9442076AEA80E090E00E94B803D1
:10035000813041F080E007C080E005C080E003C04C
:1003600080E001C081E0DF91CF910895EF92FF928C
:100370000F931F93CF93DF93CDB7DEB76E970FB672
:10038000F894DEBF0FBECDBF7C0186E291E00E94F3
:1003900001078130F1F58E010F5F1F4F8EE1F801EB
:1003A00011928A95E9F769E471E0C8010E94C60AD2
:1003B000B701C8010E94C60A6CE471E0C8010E943E
:1003C000C60AB701665F7F4FC8010E94C60A6CE487
:1003D00071E0C8010E94C60AB7016C5E7F4FC80178
:1003E0000E94C60A6BE471E0C8010E94C60A88B385
:1003F0008F7E88BBC8010E94870A682F70E0C80101
:100400000E943A0A813039F488B3806188BB81E068
:1004100003C080E001C080E06E960FB6F894DEBFA6
:100420000FBECDBFDF91CF911F910F91FF90EF9045
:100430000895CF93DF93CDB7DEB7A3970FB6F894A7
:10044000DEBF0FBECDBF80916000843009F0A6C032
:10045000FE0131968AE0DF011D928A95E9F78091CD
:100460003C02811150C08EE491E00E94010781306E
:1004700009F047C02AE0CE014596FC01322F1192C7
:100480003A95E9F7FE013B96DF011D922A95E9F7BF
:10049000749625E0DF011D922A95E9F70E94A300DA
:1004A000813079F5CE010B960E94CF00813049F55D
:1004B000CE014F960E941701813019F560E272E07B
:1004C000CE0145960E94FD0A6AE272E0CE010B96CB
:1004D0000E94FD0A64E372E0CE014F960E94FD0A7D
:1004E00080E292E00E946301813059F410923A0256
:1004F00080933C028BE791E00E940107813009F470
:1005000041C080E052C080913A02813031F4809144
:100510003B02811102C010923C02CE0101960E9462
:1005200072008130C9F469E172E0CE0101960E9447
:10053000930A8130A9F480913B02813049F4809381
:100540003A0288E891E00E940107813049F508C02D
:1005500010923C0281E029C0813011F0863011F503
:1005600080913902813071F480933B0280E292E005
:100570000E94B6018EEC91E00E9401078130A1F447
:100580001092390224E630E040E050E060E070E094
:1005900080E090E00E94420781E007C085E005C04E
:1005A00080E003C080E001C080E0A3960FB6F8941D
:1005B000DEBF0FBECDBFDF91CF910895CF93DF9304
:1005C000EC014AE050E0BC0181E090E00E94D405DB
:1005D000813061F52AE030E040E050E060E070E01A
:1005E00080E090E00E9442074AE050E0BE01665F72
:1005F0007F4F8BE090E00E94D4058130C9F42AE05F
:1006000030E040E050E060E070E080E090E00E9488
:100610004207BE016C5E7F4F45E050E085E190E00F
:100620000E94D405813031F080E005C080E003C035
:1006300080E001C081E0DF91CF910895CF93DF93F7
:100640001F92CDB7DEB780916000843009F457C0A7
:100650000E94A903813009F047C00E94EC06813056
:1006600009F044C00E94F909813009F041C081B30A
:100670008B7F81BB82B3846082BB6FEF80E090E0B0
:100680000E94B8038130B1F52AE030E040E050E04C
:1006900060E070E080E090E00E94420787EE91E029
:1006A0000E940107813041F51982BE016F5F7F4FC3
:1006B00080E090E00E940104813001F589818A3A4E
:1006C00019F010923C020BC081E080933C028EEF47
:1006D00091E00E94010780E292E00E94DE0284E045
:1006E0008093600081E00BC080E009C080E007C01B
:1006F00080E005C080E003C080E001C080E00F9092
:10070000DF91CF9108950E941E038130C1F428EE3D
:1007100033E040E050E060E070E080E090E00E9474
:10072000420781E00E94DB0789E490E00E94E20733
:100730008FB780688FBF0E9419028130E1F380E09B
:10074000089520E5FC012083FB015083418381E073
:10075000089580916100833051F00E945C088530DB
:1007600029F083E08093610081E0089580E008959E
:10077000FF920F931F93CF93DF9300D000D0CDB79C
:10078000DEB7AC016C8390916100933041F5198222
:100790001B821A82BE016E5F7F4FCE0101960E94BE
:1007A000A103F82E81E0F8121EC001E010E09E01C6
:1007B0002C5F3F4F42E050E0BE016E5F7F4F89816A
:1007C0000E941A09813089F42FE030E040E050E0C7
:1007D00060E070E080E090E00E94420707C068940B
:1007E000FF24F1F803C0F12C01C0F12C8F2D0F90E4
:1007F0000F900F900F90DF91CF911F910F91FF906D
:100800000895CF92DF92FF920F931F93CF93DF93C0
:1008100000D01F92CDB7DEB7AC019091610093304C
:1008200051F56115710559F16B0119821B821A820C
:10083000BE016E5F7F4FCE0101960E94A103F82E8C
:1008400081E0F81220C001E010E0960142E050E0A3
:10085000BE016E5F7F4F89810E947D098130A9F4BE
:1008600025E030E040E050E060E070E080E090E0C3
:100870000E9442070BC06894FF24F1F807C06894F7
:10088000FF24F2F803C0F12C01C0F12C8F2D0F9042
:100890000F900F90DF91CF911F910F91FF90DF90FC
:1008A000CF900895CF92DF92FF920F931F93CF9333
:1008B000DF9300D01F92CDB7DEB7909161009330E7
:1008C00029F56115710531F16B0190E4899FA00153
:1008D000112419821B821A82BE016E5F7F4FCE01E6
:1008E00001960E94A103F82E81E0F81217C000E4DF
:1008F00010E0960142E050E0BE016E5F7F4F8981BB
:100900000E941A09813059F0F12C09C06894FF2423
:10091000F1F805C06894FF24F2F801C0F12C8F2D86
:100920000F900F900F90DF91CF911F910F91FF903B
:10093000DF90CF900895CF92DF92FF920F931F9395
:10094000CF93DF9300D01F92CDB7DEB790916100B7
:10095000933029F56115710531F16B0190E4899FA0
:10096000A001112419821B821A82BE016E5F7F4F83
:10097000CE0101960E94A103F82E81E0F81217C063
:1009800000E410E0960142E050E0BE016E5F7F4F50
:1009900089810E947D09813059F0F12C09C0689449
:1009A000FF24F1F805C06894FF24F2F801C0F12C8F
:1009B0008F2D0F900F900F90DF91CF911F910F917E
:1009C000FF90DF90CF9008956F927F928F929F92C9
:1009D000AF92BF92CF92DF92FF920F931F93CF936C
:1009E000DF9300D01F92CDB7DEB78C015B016A01A7
:1009F00080916100833009F0B4C0672B09F4B5C061
:100A000019821B821A82A801BE016E5F7F4FCE0140
:100A100001960E94A103F82E81E0F812AAC04801B5
:100A200080EC8822E89497F80024880C991C001C1C
:100A3000880C991C001C892C902C0F7389F180E480
:100A4000682E601A712CC614D70478F486019501BB
:100A500042E050E0BE016E5F7F4F89810E941A091B
:100A6000813009F48FC0F12C8DC08301950142E0E3
:100A700050E0BE016E5F7F4F89810E941A0981306C
:100A800009F079C0C618D7082FE030E040E050E008
:100A900060E070E080E090E00E94420701E003C067
:100AA00000E0612C712CC6010024880F991F001CE6
:100AB000880F991F001C892F902D182F1CC01150D2
:100AC000B501660D771D802F880D0E94520481307C
:100AD00009F053C00F5F80E4C81AD10880E4680EA3
:100AE000711C2FE030E040E050E060E070E080E01A
:100AF00090E00E944207111614F3C114D10409F4C6
:100B000041C0A401400F511D0024569547950794FC
:100B1000569547950794542F402DBE016E5F7F4F29
:100B2000CE0101960E94A103F82E81E0F81227C0A1
:100B30009501260D371D860142E050E0BE016E5F33
:100B40007F4F89810E941A098130D9F42FE030E06B
:100B500040E050E060E070E080E090E00E944207FA
:100B600011C06894FF24F1F80DC06894FF24F2F8D6
:100B700009C0F12C07C0F12C05C0F12C03C0F12CE9
:100B800001C0F12C8F2D0F900F900F90DF91CF911E
:100B90001F910F91FF90DF90CF90BF90AF909F90EB
:100BA0008F907F906F9008956F927F928F929F9217
:100BB000AF92BF92CF92DF92FF920F931F93CF938A
:100BC000DF9300D01F92CDB7DEB78C015B016A01C5
:100BD00080916100833009F09DC0672B09F49EC0AD
:100BE00019821B821A82A801BE016E5F7F4FCE015F
:100BF00001960E94A103F82E81E0F81293C04801EB
:100C000080EC8822E89497F80024880C991C001C3A
:100C1000880C991C001C892C902C0F7369F180E4BE
:100C2000682E601A712CC614D704A8F487B38064A8
:100C300087BB88B3806488BB8601950142E050E0A1
:100C4000BE016E5F7F4F89810E947D09813009F46A
:100C500070C0F12C6EC08301950142E050E0BE01EE
:100C60006E5F7F4F89810E947D09813009F05CC0F1
:100C7000C618D70811E003C010E0612C712CC60122
:100C80000024880F991F001C880F991F001C892FB2
:100C9000902D12C0B501660D771D812F880D0E9421
:100CA0009B04813009F042C01F5F80E4C81AD1085C
:100CB00080E4680E711C802F0FEF080F8111EACFBE
:100CC000C114D104B1F1A401410F511D0024569566
:100CD00047950794569547950794542F402DBE018C
:100CE0006E5F7F4FCE0101960E94A103F82E81E036
:100CF000F8121EC09501260D371D860142E050E016
:100D0000BE016E5F7F4F89810E947D09813089F02D
:100D1000F12C0FC06894FF24F1F80BC06894FF24F5
:100D2000F2F807C0F12C05C0F12C03C0F12C01C072
:100D3000F12C8F2D0F900F900F90DF91CF911F917D
:100D40000F91FF90DF90CF90BF90AF909F908F90CA
:100D50007F906F900895CF93DF93C0913E02D0E0D3
:100D60000E946B0BC15CDD4F888390913E02E92F9E
:100D7000F0E0E15CFD4F80818D3071F40E94240B26
:100D8000E0913E02F0E0E15CFD4F108210923E02E5
:100D900081E080933D021DC0883051F4992341F0D9
:100DA0000E94240B80913E02815080933E0211C02C
:100DB000883079F090913E03913021F48AE20E94CC
:100DC000240B02C00E94240B80913E028F5F80930F
:100DD0003E02DF91CF91089580916200833081F0CF
:100DE0000E940E0B813011F0873049F48BEA96E0B7
:100DF0000E94560B83E08093620081E0089580E0BA
:100E00000895CF93DF93009781F020916200223004
:100E100079F0EC010E94870A682F70E0CE010E94F1
:100E20002F0B813021F020E003C024E001C021E03D
:100E3000822FDF91CF910895BC01892BA1F0809181
:100E40006200823099F080913D02813071F41092FD
:100E50003D028FE392E00E94FD0A8FE392E00E9440
:100E6000F10A85E0089584E0089581E0089581E025
:100E700080933E03089510923E0381E008950E94FE
:100E80008303FFCF2F923F924F925F926F927F9298
:100E90008F929F92AF92BF92CF92DF92EF92FF928A
:100EA0000F931F93CF93DF9300D000D000D0CDB726
:100EB000DEB7222E332E442E552E662E79838A835A
:100EC0009B83912C1D821C82B0E0F0E0E0E0712C4D
:100ED000812C44C02D2D3E2D4F2D502F612F7A2F68
:100EE0008B2D9C2DA1E00E94E20BD22EE32EF42E3E
:100EF000052F162FA72FB82EC92E0AC0D12CE12CF2
:100F0000F12C00E010E0A0E0B12CC12CAD80EE830C
:100F10002D2D3E2D4F2D502F612F7A2F8B2D9C2D57
:100F20002B38310541055105610571058105910594
:100F300089F280F2EE81292D3A2D4C815B2F6F2FA3
:100F40007E2F872D982DA1E00E94E20B922E3D83EB
:100F50004C83B52FF62FE72F782E892E292D3D8132
:100F60004C815B2F6F2F7E2F872D982DA22CB32CB9
:100F7000C42CD52CE62CF9800A811B810E94EE0B33
:100F800008F4BCCF26960FB6F894DEBF0FBECDBFD7
:100F9000DF91CF911F910F91FF90EF90DF90CF9055
:100FA000BF90AF909F908F907F906F905F904F9089
:100FB0003F902F9008959BB790649BBF95B7892B66
:100FC00085BF0895909344038093430308951F922F
:100FD0000F920FB60F9211242F933F934F935F936D
:100FE0006F937F938F939F93AF93BF93EF93FF93F1
:100FF000E0914303F09144030995FF91EF91BF9174
:10100000AF919F918F917F916F915F914F913F91A0
:101010002F910F900FBE0F901F9018951F920F9257
:101020000FB60F9211242F933F934F935F936F93BB
:101030007F938F939F93AF93BF93EF93FF93E09131
:101040004103F09142030995FF91EF91BF91AF9158
:101050009F918F917F916F915F914F913F912F91D0
:101060000F900FBE0F901F9018951F920F920FB602
:101070000F9211242F933F934F935F936F937F931E
:101080008F939F93AF93BF93EF93FF93E0913F03B1
:10109000F09140030995FF91EF91BF91AF919F911E
:1010A0008F917F916F915F914F913F912F910F9011
:1010B0000FBE0F901F90189580916300863049F005
:1010C00082E081B989E080B986E08093630081E0A5
:1010D000089587E0089580916300863059F484EA8A
:1010E00086BF06B607FEFDCF81B1887F883021F02C
:1010F00080E0089585E0089581E00895909163006F
:10110000963029F5623028F588232CF190E0880F7D
:10111000991F682B63B984E886BF06B607FEFDCF2A
:1011200081B1887F883359F028F48831B1F080325A
:1011300041F00BC0803489F0883429F006C088E380
:10114000089580E2089588E4089580E0089585E098
:10115000089582E0089583E0089581E008958091E4
:101160006300863059F484EA86BF06B607FEFDCFD9
:1011700081B1887F803121F080E0089585E0089575
:1011800081E0089580916300863039F484E986BF58
:1011900006B604FCFDCF81E0089585E008959091A6
:1011A0006300963069F483B984E886BF06B607FE0B
:1011B000FDCF81B1887F883229F0803329F40895EA
:1011C00085E0089588E2089580E00895FC019091FB
:1011D0006300963079F4309779F084EC86BF06B6D8
:1011E00007FEFDCF81B1887F803541F483B18083D4
:1011F00081E0089585E0089584E0089580E00895F1
:10120000FC0190916300963079F4309779F084E88E
:1012100086BF06B607FEFDCF81B1887F883541F4D1
:1012200083B1808381E0089585E0089584E0089586
:1012300080E008958F929F92AF92BF92CF92DF92FB
:10124000EF92FF920F931F93CF93DF93B82EEB0192
:101250006A017901809163008630C9F52097C9F150
:10126000232BC9F1BB20CCF10E946B088823C1F16C
:1012700060E08B2D0E947E08813089F50BC04E0105
:101280008FEF881A980A88810E94CF086501882309
:1012900039F1E4015601E1E0AE1AB108CD2879F741
:1012A0000CC06701FFEFCF1ADF0AF70180810E94AF
:1012B000CF088E018823A1F07601E8012197012B48
:1012C00081F70E94C208813059F080E009C085E0B2
:1012D00007C084E005C084E003C083E001C080E073
:1012E000DF91CF911F910F91FF90EF90DF90CF9002
:1012F000BF90AF909F908F9008957F928F929F9212
:10130000AF92BF92CF92DF92EF92FF920F931F9313
:10131000CF93DF93782EEB017A016901809163000E
:10132000863009F047C0209709F446C0232B09F402
:1013300045C077200CF444C00E946B08882309F450
:101340004AC060E0872D0E947E088130D9F50BC02D
:101350004E018FEF881A980A88810E94CF08750184
:101360008823C9F1E401570181E0A81AB108EF28E8
:1013700079F70E94AF08813039F561E0872D0E942E
:101380007E08813019F508C0E6012196C6010E9449
:10139000E6088130E9F46E0101501109A9F7C60190
:1013A0000E9400098130B1F40E94C208813099F096
:1013B00080E011C085E00FC084E00DC084E00BC068
:1013C00083E009C080E007C080E005C080E003C082
:1013D00080E001C080E0DF91CF911F910F91FF90DD
:1013E000EF90DF90CF90BF90AF909F908F907F90C5
:1013F000089580916400873031F187B3806B87BB9B
:1014000087B38F7B87BB88B3806188BB8DB18061D8
:101410008DB98DB18F7D8DB98DB1877F8DB98DB12E
:101420008B7F8DB98DB18E7F8DB98DB18D7F8DB94B
:101430008DB181608DB98DB180648DB987E0809365
:10144000640081E0089588E00895CF93DF931F92B0
:10145000CDB7DEB790916400973039F48FB9779BA0
:10146000FECF8FB1898381E001C086E00F90DF91CC
:10147000CF910895EF92FF920F931F93CF932091F6
:1014800064002730A1F48B017C01C0E009C0F701A2
:10149000E20FF31F80810E94250A813051F4CF5F53
:1014A0002C2F30E02017310790F381E003C086E055
:1014B00001C080E0CF911F910F91FF90EF900895B0
:1014C0001F920F920FB60F9211242F933F934F93B9
:1014D0005F936F937F938F939F93AF93BF93EF939C
:1014E000FF93E0914503F09146030995FF91EF9139
:1014F000BF91AF919F918F917F916F915F914F912C
:101500003F912F910F900FBE0F901F901895AC0137
:1015100080E001C08F5FFA01E80FF11D20812111E9
:10152000F9CF8F5F0895FF920F931F93CF93DF93AF
:101530008C01EB010E94870AF82ECE010E94870AD7
:101540008F15B8F0F816B8F030E009C0FE01E80FCA
:10155000F91F8081821788F0281788F03F5F832F5A
:1015600090E0F801E80FF91F20812111EFCF81E011
:1015700007C082E005C083E003C082E001C083E0D1
:10158000DF91CF911F910F91FF900895FF920F93DC
:101590001F93CF93DF93EC018B01CB010E94870A4D
:1015A000F82ECE010E94870A815090E00BC0280FD0
:1015B000311DFE01E20FF31FD801A90FB11D2C91BF
:1015C00020839F5F292F30E04F2D50E0415051097B
:1015D0004217530764F7DF91CF911F910F91FF904E
:1015E0000895AC0190E002C09F5F1082FA01E90FFC
:1015F000F11D20812111F8CF0895DC0190E005C094
:10160000FB01E20FF31F40839F5F292F30E0FD01B4
:10161000E20FF31F40814111F3CF089580914703FA
:10162000813081F010BC87E689B982E08BB988E10E
:101630008AB980E880BD80B5866880BD81E08093EE
:101640004703089587E0089590914703992329F06F
:101650005D9BFECF8CB981E0089586E00895EF92FE
:10166000FF920F931F93CF93DF9320914703222381
:1016700099F08B017C01C0E0D0E009C0F701EC0FCC
:10168000FD1F80810E94240B813041F42196C017F8
:10169000D107A0F381E003C086E001C080E0DF91C4
:1016A000CF911F910F91FF90EF9008959C01909121
:1016B0004703992361F02115310559F08AB18068FB
:1016C0008AB930934B0320934A0381E0089586E062
:1016D000089585E008958CB108951F920F920FB67A
:1016E0000F9211242F933F934F935F936F937F93A8
:1016F0008F939F93AF93BF93EF93FF93E0914C032E
:10170000F0914D030995FF91EF91BF91AF919F919A
:101710008F917F916F915F914F913F912F910F909A
:101720000FBE0F901F9018951F920F920FB60F9239
:1017300011242F933F934F935F936F937F938F93D6
:101740009F93AF93BF93EF93FF93E0914A03F09180
:101750004B030995FF91EF91BF91AF919F918F91AD
:101760007F916F915F914F913F912F910F900FBE9D
:101770000F901F9018951F920F920FB60F92112481
:101780002F933F934F935F936F937F938F939F9389
:10179000AF93BF93EF93FF93E0914803F091490318
:1017A0000995FF91EF91BF91AF919F918F917F919B
:1017B0006F915F914F913F912F910F900FBE0F90BE
:1017C0001F9018950024A7FD00942A0F301D401D7E
:1017D000501D601D701D801D901D08952A153B052C
:1017E0004C055D056E057F05800791070895F89407
:0217F000FFCF29
:1017F20005020205062A2A004361726420486F6CC2
:10180200646572204E616D653A20000A496E766108
:101812006C6964204E616D652C204E616D6520738C
:10182200686F756C6420626520392063686172613B
:1018320063746572730D0A000A4361726420504139
:101842004E3A20000A496E76616C69642050414E1E
:101852002C2050414E2073686F756C6420626520A5
:1018620039206E756D6572696320636861726163A8
:10187200746572730D0A000A436172642050494E06
:101882003A20000A496E76616C69642050494E2CF8
:101892002050494E2073686F756C64206265203455
:1018A200206E756D6572696320636861726163742D
:1018B2006572730D0A004461746120697320626568
:1018C200696E672073656E7420746F20746865207A
:1018D20041544D2E2E2E0D0A002300232D0050724E
:1018E2006F6772616D6D696E67204D6F64650D0A79
:1018F200456E7465722074686520466F6C6C6F77F4
:10190200696E6720446174610D0A000A555345529D
:10191200204D6F64650D0A004341524420697320D3
:1019220042757379204E6F772C2050726F67726107
:101932006D6D696E67204D6F64652077696C6C20F0
:101942007374617274206166746572206375727259
:10195200656E742050726F636573730D0A00446183
:101962007461205375636365737366756C6C79205B
:1019720053656E740D0A0043415244205465726DE2
:10198200696E616C2057696E646F770D0A00596F3A
:101992007520617265206E6F7720696E20557365C0
:1019A20072204D6F64650D0A0041444D494E00009E
:00000001FF
