S01100004932435F536C6176652E73726563FB
S11300000C942A000C943F000C943F000C943F0085
S11300100C943F000C943F000C943F000C943F0060
S11300200C943F000C943F000C943F000C943F0050
S11300300C943F000C943F000C943F000C943F0040
S11300400C943F000C943F000C943F000C943F0030
S11300500C943F0011241FBECFE5D8E0DEBFCDBF16
S113006010E0A0E6B0E0E0E7F2E002C005900D92F7
S1130070A236B107D9F70E9441000C9436010C94C2
S11300800000CF93DF9300D000D0CDB7DEB787E078
S1130090898381E08A8386E08B8383E08C838FEF7E
S11300A08ABB87BB81BB80E10E946F000E947E00F7
S11300B08C3019F08D3031F00BC0CE0101960E94C6
S11300C0F20006C063E070E0CE0101960E940E01CA
S11300D089818BBB8A8188BB8C8182BBE7CF90915D
S11300E06000973049F0880F82B984EC86BF87E0BE
S11300F08093600081E0089588E008958091600015
S1130100873099F406B607FEFDCF81B1887F80362B
S113011071F0883671F0883A71F0803B71F0803765
S113012071F0883771F48EE0089586E008958CE0CC
S113013008958CE008958DE008958DE008958EE093
S113014008958FE00895909160009730E1F483B9A9
S113015084EC86BF06B607FEFDCF81B1887F803A66
S113016029F486B7806886BF89E00895883B69F0E2
S1130170803C29F486B7806886BF8BE00895883C6C
S113018031F48BE0089586E008958AE0089580E0D4
S11301900895FC0190916000973001F584EC86BFCE
S11301A006B607FEFDCF81B1887F803811F088390B
S11301B021F483B180838AE00895883811F0883966
S11301C021F483B180838BE00895803A49F486B7A3
S11301D0806886BF81E088BB89E0089586E0089541
S11301E080E00895CF93DF93EC0180916000873025
S11301F079F401C0E901CE010E94C900893051F0AF
S11302009E012F5F3F4F88818111F4CF81E003C0AD
S113021086E001C081E0DF91CF9108950F931F9391
S1130220CF93DF93EC018B01809160008730A1F4C0
S113023002C08C01E90188810E94A3008A3071F414
S11302409E012F5F3F4F8881882351F0C801019799
S1130250012B79F780E005C086E003C081E001C08E
S113026081E0DF91CF911F910F910895F894FFCF12
S1050270060082
S9030000FC
