:100000000C942A000C943F000C943F000C943F0089
:100010000C943F000C943F000C943F000C943F0064
:100020000C943F000C943F000C943F000C943F0054
:100030000C943F000C943F000C943F000C943F0044
:100040000C943F000C943F000C943F000C943F0034
:100050000C943F0011241FBECFE5D8E0DEBFCDBF1A
:1000600010E0A0E6B0E0E6E2F2E002C005900D92FA
:10007000A236B107D9F70E9441000C9411010C94EB
:100080000000CF93DF9300D000D0CDB7DEB781E082
:10009000898382E08A8383E08B8384E08C830E945F
:1000A0005A0044E050E0BE016F5F7F4F80E10E9444
:1000B000CE00FFCF80916000873041F011B880E220
:1000C00080B987E08093600081E0089588E008951A
:1000D00080916000873069F484EA86BF81E088BB44
:1000E00006B607FEFDCF81B1887F883021F080E021
:1000F000089586E0089581E008959091600097301A
:1001000019F5673019F190E0880F991F862B83B994
:1001100084E886BF06B607FEFDCF81B1887F8833AD
:1001200059F028F48831A1F0803241F00BC08034BE
:1001300079F0883429F006C088E3089580E20895B4
:1001400088E4089580E0089586E0089586E00895A3
:1001500081E0089580916000873039F484E986BF9A
:1001600006B604FCFDCF81E0089586E008959091E5
:100170006000973069F483B984E886BF06B607FE4D
:10018000FDCF81B1887F883229F0803329F408952A
:1001900086E0089588E2089580E00895BF92CF92A6
:1001A000DF92EF92FF920F931F93CF93DF93F82E7E
:1001B0008B01EA0180916000873021F50E94680080
:1001C000882329F160E08F2D0E947D00B82E81E008
:1001D000B8121AC00CC06801EFEFCE1ADE0AF8019F
:1001E00080810E94B700E701882389F086017E01A3
:1001F000F1E0EF1AF108CD2B71F70E94AA008111EE
:1002000005C005C086E003C080E001C08B2DDF91F2
:10021000CF911F910F91FF90EF90DF90CF90BF9003
:060220000895F894FFCFE1
:020226000600D0
:00000001FF
