S01200004932435F53656E6465722E7372656394
S11300000C942A000C943F000C943F000C943F0085
S11300100C943F000C943F000C943F000C943F0060
S11300200C943F000C943F000C943F000C943F0050
S11300300C943F000C943F000C943F000C943F0040
S11300400C943F000C943F000C943F000C943F0030
S11300500C943F0011241FBECFE5D8E0DEBFCDBF16
S113006010E0A0E6B0E0E4E3F2E002C005900D92F7
S1130070A236B107D9F70E9441000C9418010C94E0
S11300800000CF93DF9300D01F92CDB7DEB781E09D
S1130090898382E08A8383E08B830E94580043E053
S11300A050E0BE016F5F7F4F80E10E94CE00FFCF22
S11300B080916000863041F011B88AEF80B986E003
S11300C08093600081E0089587E008958091600046
S11300D0863059F484EA86BF06B607FEFDCF81B1A7
S11300E0887F883021F080E0089585E0089581E0DC
S11300F0089590916000963029F5623028F58823A0
S11301002CF190E0880F991F682B63B984E886BFAF
S113011006B607FEFDCF81B1887F883359F028F4F5
S11301208831B1F0803241F00BC0803489F08834DA
S113013029F006C088E3089580E2089588E40895CC
S113014080E0089585E0089582E0089583E00895AD
S113015081E0089580916000863039F484E986BF97
S113016006B604FCFDCF81E0089585E008959091E2
S11301706000963069F483B984E886BF06B607FE4A
S1130180FDCF81B1887F883229F0803329F4089526
S113019085E0089588E2089580E00895BF92CF92A3
S11301A0DF92EF92FF920F931F93CF93DF93F82E7A
S11301B0EB018A0180916000863039F5209739F18E
S11301C0FF203CF10E946600882341F160E08F2DFE
S11301D00E947900B82E81E0B8121DC00BC06E01D8
S11301E08FEFC81AD80A88810E94B7008701882334
S11301F0A9F0E601780181E0E81AF108012B79F70A
S11302000E94AA00811109C009C085E007C084E0EA
S113021005C083E003C080E001C08B2DDF91CF9146
S11302201F910F91FF90EF90DF90CF90BF900895B2
S1070230F894FFCF6C
S10502340500BF
S9030000FC
