:100000000C942A000C9447000C9447000C94470071
:100010000C9447000C9447000C9447000C94470044
:100020000C9447000C9447000C9447000C94470034
:100030000C9447000C94D4030C94FB030C94AD0374
:100040000C9447000C9447000C9447000C94470014
:100050000C94470011241FBECFE5D8E0DEBFCDBF12
:1000600010E0A0E6B0E0EEE1FAE002C005900D92EB
:10007000A23CB107D9F720E0A2ECB0E001C01D928C
:10008000A63DB207E1F70E94C4010C940D050C9443
:10009000000080916000843051F00E942204813081
:1000A00029F484E08093600081E0089580E0089561
:1000B0001F93CF93DF931F92CDB7DEB7809160007F
:1000C000843091F51982CE0101960E943704813067
:1000D00069F59091C2008981981302C0813041F581
:1000E0008093C200823069F028F4882341F0813087
:1000F00071F020C0833039F0843039F01BC010E03B
:1001000007C012E005C013E003C014E001C011E015
:10011000812F0E949F04813079F4812F0E94E50491
:10012000813061F080E00BC085E009C080E007C04D
:1001300081E005C080E003C080E001C081E00F9055
:10014000DF91CF911F9108950E944900813039F4C9
:100150008FB780688FBF0E9458008130E1F380E044
:10016000089580916100853071F086E690E00E94EC
:10017000C701813011F0873029F485E08093610058
:1001800081E0089580E00895843060F4E82FF0E085
:10019000EE59FF4F61E080810E94B502813021F06D
:1001A00080E0089582E0089581E00895843060F44D
:1001B000E82FF0E0EE59FF4F60E080810E94B50229
:1001C000813021F080E0089582E0089581E0089573
:1001D000AC0180E001C08F5FFA01E80FF11D2081C2
:1001E0002111F9CF8F5F0895FF920F931F93CF9343
:1001F000DF93EC018B010E94E800F82EC8010E94F9
:10020000E8008F15A8F0F816A8F030E007C0F80154
:10021000E80FF91F808128130FC03F5F832F90E004
:10022000FE01E80FF91F20812111F1CF81E005C007
:1002300082E003C083E001C080E0DF91CF911F9195
:100240000F91FF900895AC0190E002C09F5F108273
:10025000FA01E90FF11D20812111F8CF0895DC0189
:1002600090E005C0FB01E20FF31F40839F5F292F41
:1002700030E0FD01E20FF31F40814111F3CF0895FB
:10028000CF93DF93C091C400D0E00E94AB03CB5367
:10029000DF4F88839091C400E92FF0E0EB53FF4FCC
:1002A00080818D3071F40E946403E091C400F0E01D
:1002B000EB53FF4F10821092C40081E08093C30083
:1002C00015C0883051F4992341F00E946403809155
:1002D000C40081508093C40009C0883039F00E9466
:1002E00064038091C4008F5F8093C400DF91CF913D
:1002F000089580916500833081F00E944E03813023
:1003000011F0873049F480E491E00E94960383E085
:100310008093650081E0089580E00895CF93DF9396
:10032000009781F020916500223079F0EC010E9465
:10033000E800682F70E0CE010E946F03813021F049
:1003400020E003C024E001C021E0822FDF91CF91A3
:100350000895BC01892BA1F080916500823099F04D
:100360008091C300813071F41092C30085EC90E05D
:100370000E942F0185EC90E00E94230185E0089502
:1003800084E0089581E008950E94A400FFCFAC01AD
:10039000892B09F4E4C090E0D7C0E92FF0E0EE0F1C
:1003A000FF1FEE0FFF1FE40FF51F8181883008F05B
:1003B000D8C020812130C1F138F0223009F464C066
:1003C000233009F491C0CFC02AB361E070E0DB01B3
:1003D00002C0AA0FBB1F8A95E2F78A2F809582235D
:1003E0008ABBAAB38281282F30E0018002C0220F8D
:1003F000331F0A94E2F72A2B2ABB8BB3018002C079
:10040000660F771F0A94E2F7609568236BBB6BB3A6
:100410008381282F30E0018002C0220F331F0A940D
:10042000E2F7262B2BBB8FC027B361E070E0DB0126
:1004300002C0AA0FBB1F8A95E2F78A2F80958223FC
:1004400087BBA7B38281282F30E0018002C0220F32
:10045000331F0A94E2F72A2B27BB88B3018002C01E
:10046000660F771F0A94E2F76095682368BB68B34C
:100470008381282F30E0018002C0220F331F0A94AD
:10048000E2F7262B28BB5FC024B361E070E0DB01FC
:1004900002C0AA0FBB1F8A95E2F78A2F809582239C
:1004A00084BBA4B38281282F30E0018002C0220FD8
:1004B000331F0A94E2F72A2B24BB85B3018002C0C4
:1004C000660F771F0A94E2F76095682365BB65B3F2
:1004D0008381282F30E0018002C0220F331F0A944D
:1004E000E2F7262B25BB2FC021B361E070E0DB01D2
:1004F00002C0AA0FBB1F8A95E2F78A2F809582233C
:1005000081BBA1B38281282F30E0018002C0220F7D
:10051000331F0A94E2F72A2B21BB82B3018002C069
:10052000660F771F0A94E2F76095682362BB62B397
:100530008381282F30E0018002C0220F331F0A94EC
:10054000E2F7262B22BB9F5F933008F426CF50930F
:10055000CD004093CC0081E08093CB00089585E0EE
:10056000089583E0089584E00895843008F090C0F1
:100570009091CB00992309F48DC0E82FF0E0CF01D2
:10058000880F991F880F991FE091CC00F091CD0042
:10059000E80FF91F8081813021F130F08230F1F1D4
:1005A000833009F458C078C0613069F42BB381E01E
:1005B00090E0018002C0880F991F0A94E2F7822B15
:1005C0008BBB81E008952BB381E090E0018002C0F5
:1005D000880F991F0A94E2F7809582238BBB81E0F4
:1005E0000895613069F428B381E090E0018002C091
:1005F000880F991F0A94E2F7822B88BB81E0089547
:1006000028B381E090E0018002C0880F991F0A940E
:10061000E2F78095822388BB81E00895613069F418
:1006200025B381E090E0018002C0880F991F0A94F1
:10063000E2F7822B85BB81E0089525B381E090E04D
:10064000018002C0880F991F0A94E2F780958223E7
:1006500085BB81E00895613069F422B381E090E0C8
:10066000018002C0880F991F0A94E2F7822B82BB97
:1006700081E0089522B381E090E0018002C0880FFC
:10068000991F0A94E2F78095822382BB81E0089546
:1006900082E0089586E0089584E008958091CE0078
:1006A000813081F010BC8CE089B982E08BB988E19F
:1006B0008AB980E880BD80B5866880BD81E080937E
:1006C000CE00089587E008959091CE00992329F0F7
:1006D0005D9BFECF8CB981E0089586E00895EF928E
:1006E000FF920F931F93CF93DF932091CE0022238D
:1006F00099F08B017C01C0E0D0E009C0F701EC0F5C
:10070000FD1F80810E946403813041F42196C0174F
:10071000D107A0F381E003C086E001C080E0DF9153
:10072000CF911F910F91FF90EF9008959C019091B0
:10073000CE00992361F02115310559F08AB1806806
:100740008AB93093D2002093D10081E0089586E0E9
:10075000089585E008958CB108951F920F920FB609
:100760000F9211242F933F934F935F936F937F9337
:100770008F939F93AF93BF93EF93FF93E091D30039
:10078000F091D4000995FF91EF91BF91AF919F91A6
:100790008F917F916F915F914F913F912F910F902A
:1007A0000FBE0F901F9018951F920F920FB60F92C9
:1007B00011242F933F934F935F936F937F938F9366
:1007C0009F93AF93BF93EF93FF93E091D100F0918C
:1007D000D2000995FF91EF91BF91AF919F918F91B9
:1007E0007F916F915F914F913F912F910F900FBE2D
:1007F0000F901F9018951F920F920FB60F92112411
:100800002F933F934F935F936F937F938F939F9318
:10081000AF93BF93EF93FF93E091CF00F091D0009F
:100820000995FF91EF91BF91AF919F918F917F912A
:100830006F915F914F913F912F910F900FBE0F904D
:100840001F90189580917200843081F00E94B10051
:10085000813049F40E947901813039F484E0809339
:10086000720081E0089580E0089580E008950F937C
:100870001F93CF93DF9300D000D000D0CDB7DEB769
:100880008C01CE01019626E0FC0111922A95E9F730
:100890000E94A901813019F0853009F042C06BEB4C
:1008A00070E0CE0101960E94F400813039F482E0BC
:1008B000F80180838093D50081E036C065EB70E05D
:1008C000CE0101960E94F400813039F483E0F801F2
:1008D00080838093D50081E027C06FEA70E0CE016D
:1008E00001960E94F400813039F484E0F80180839D
:1008F0008093D50081E018C069EA70E0CE010196CE
:100900000E94F400813029F4F80180838093D5009F
:100910000BC08091D500813031F0F801808381E0F7
:1009200003C080E001C081E026960FB6F894DEBFD8
:100930000FBECDBFDF91CF911F910F9108958230EF
:1009400009F128F4882341F0813089F03CC08330DC
:1009500021F1843069F137C080E00E94D60081E047
:100960000E94D60082E00E94D60081E0089580E0D7
:100970000E94D60081E00E94D60082E00E94D6004C
:1009800081E0089580E00E94C40081E00E94D600CA
:1009900082E00E94D60081E0089580E00E94D600A7
:1009A00081E00E94C40082E00E94D60081E00895A8
:1009B00080E00E94D60081E00E94D60082E00E9482
:1009C000C40081E0089580E00895823091F028F419
:1009D000882309F1813039F004C0833081F08430FC
:1009E000A1F080E0089583E790E00E948E0181E00D
:1009F000089587E790E00E948E0181E0089588E8DD
:100A000090E00E948E0181E008958AE990E00E94C2
:0E0A10008E0181E0089581E00895F894FFCFF3
:100A1E0005040001020201000100010101000102B2
:100A2E000100054F4B0D00477265656E204C6564E5
:100A3E00206973204F6E0D0059656C6C6F77204CDA
:100A4E006564206973204F6E0D00526564204C65FD
:100A5E0064206973204F6E0D004154000000005356
:100A6E00544F5000005741495400005354415254C2
:020A7E00000076
:00000001FF
